{
  "contractName": "Auction",
  "abi": [
    {
      "inputs": [
        {
          "internalType": "address",
          "name": "tc",
          "type": "address"
        }
      ],
      "payable": false,
      "stateMutability": "nonpayable",
      "type": "constructor"
    },
    {
      "anonymous": false,
      "inputs": [
        {
          "indexed": false,
          "internalType": "uint256",
          "name": "_value",
          "type": "uint256"
        },
        {
          "indexed": false,
          "internalType": "address",
          "name": "_addr",
          "type": "address"
        }
      ],
      "name": "BidEvent",
      "type": "event"
    },
    {
      "anonymous": false,
      "inputs": [
        {
          "indexed": false,
          "internalType": "uint256",
          "name": "_value",
          "type": "uint256"
        }
      ],
      "name": "ProcessEvent",
      "type": "event"
    },
    {
      "constant": true,
      "inputs": [],
      "name": "auctionTime",
      "outputs": [
        {
          "internalType": "uint256",
          "name": "",
          "type": "uint256"
        }
      ],
      "payable": false,
      "stateMutability": "view",
      "type": "function"
    },
    {
      "constant": true,
      "inputs": [
        {
          "internalType": "uint256",
          "name": "",
          "type": "uint256"
        }
      ],
      "name": "treeNumbers",
      "outputs": [
        {
          "internalType": "uint32",
          "name": "",
          "type": "uint32"
        }
      ],
      "payable": false,
      "stateMutability": "view",
      "type": "function"
    },
    {
      "constant": false,
      "inputs": [],
      "name": "getProcess",
      "outputs": [
        {
          "internalType": "enum Auction.Process",
          "name": "",
          "type": "uint8"
        }
      ],
      "payable": false,
      "stateMutability": "nonpayable",
      "type": "function"
    },
    {
      "constant": true,
      "inputs": [],
      "name": "getBidsHighest",
      "outputs": [
        {
          "internalType": "uint256[16]",
          "name": "highest",
          "type": "uint256[16]"
        }
      ],
      "payable": false,
      "stateMutability": "view",
      "type": "function"
    },
    {
      "constant": true,
      "inputs": [],
      "name": "getBidsAddr",
      "outputs": [
        {
          "internalType": "address[16]",
          "name": "a",
          "type": "address[16]"
        }
      ],
      "payable": false,
      "stateMutability": "view",
      "type": "function"
    },
    {
      "constant": false,
      "inputs": [
        {
          "internalType": "uint256",
          "name": "number",
          "type": "uint256"
        }
      ],
      "name": "bid",
      "outputs": [
        {
          "internalType": "bool",
          "name": "",
          "type": "bool"
        }
      ],
      "payable": true,
      "stateMutability": "payable",
      "type": "function"
    },
    {
      "constant": false,
      "inputs": [
        {
          "internalType": "uint256",
          "name": "number",
          "type": "uint256"
        },
        {
          "internalType": "string",
          "name": "host",
          "type": "string"
        }
      ],
      "name": "addAddr",
      "outputs": [
        {
          "internalType": "bool",
          "name": "",
          "type": "bool"
        }
      ],
      "payable": false,
      "stateMutability": "nonpayable",
      "type": "function"
    },
    {
      "constant": false,
      "inputs": [
        {
          "internalType": "uint256",
          "name": "number",
          "type": "uint256"
        },
        {
          "internalType": "bool",
          "name": "isWithdraw",
          "type": "bool"
        }
      ],
      "name": "payForWithdraw",
      "outputs": [
        {
          "internalType": "bool",
          "name": "",
          "type": "bool"
        }
      ],
      "payable": true,
      "stateMutability": "payable",
      "type": "function"
    },
    {
      "constant": false,
      "inputs": [],
      "name": "getAmount",
      "outputs": [
        {
          "internalType": "bool",
          "name": "",
          "type": "bool"
        }
      ],
      "payable": false,
      "stateMutability": "nonpayable",
      "type": "function"
    },
    {
      "constant": true,
      "inputs": [],
      "name": "getTreeCoins",
      "outputs": [
        {
          "internalType": "uint32[]",
          "name": "",
          "type": "uint32[]"
        }
      ],
      "payable": false,
      "stateMutability": "view",
      "type": "function"
    }
  ],
  "bytecode": "0x60806040523480156200001157600080fd5b5060405162001bcd38038062001bcd833981810160405260208110156200003757600080fd5b8101908080519060200190929190505050806000806101000a81548173ffffffffffffffffffffffffffffffffffffffff021916908373ffffffffffffffffffffffffffffffffffffffff16021790555033600260016101000a81548173ffffffffffffffffffffffffffffffffffffffff021916908373ffffffffffffffffffffffffffffffffffffffff16021790555060008060009054906101000a900473ffffffffffffffffffffffffffffffffffffffff1673ffffffffffffffffffffffffffffffffffffffff166398d5fdca6040518163ffffffff1660e01b815260040160206040518083038186803b1580156200013357600080fd5b505afa15801562000148573d6000803e3d6000fd5b505050506040513d60208110156200015f57600080fd5b810190808051906020019092919050505090506000809054906101000a900473ffffffffffffffffffffffffffffffffffffffff1673ffffffffffffffffffffffffffffffffffffffff1663957292d16040518163ffffffff1660e01b81526004016102006040518083038186803b158015620001db57600080fd5b505afa158015620001f0573d6000803e3d6000fd5b505050506040513d601f19601f820116820180604052506102008110156200021757600080fd5b8101908091905050600390601062000231929190620003b5565b504260018190555060008090505b600380549050811015620003ac576040518060a001604052808381526020013373ffffffffffffffffffffffffffffffffffffffff168152602001600015158152602001600015158152602001604051806020016040528060008152508152506004600060038481548110620002b157fe5b90600052602060002090600891828204019190066004029054906101000a900463ffffffff1663ffffffff1681526020019081526020016000206000820151816000015560208201518160010160006101000a81548173ffffffffffffffffffffffffffffffffffffffff021916908373ffffffffffffffffffffffffffffffffffffffff16021790555060408201518160010160146101000a81548160ff02191690831515021790555060608201518160010160156101000a81548160ff02191690831515021790555060808201518160020190805190602001906200039a9291906200046c565b5090505080806001019150506200023f565b50505062000551565b82805482825590600052602060002090600701600890048101928215620004595791602002820160005b838211156200042557835183826101000a81548163ffffffff021916908363ffffffff1602179055509260200192600401602081600301049283019260010302620003df565b8015620004575782816101000a81549063ffffffff021916905560040160208160030104928301926001030262000425565b505b509050620004689190620004f3565b5090565b828054600181600116156101000203166002900490600052602060002090601f016020900481019282601f10620004af57805160ff1916838001178555620004e0565b82800160010185558215620004e0579182015b82811115620004df578251825591602001919060010190620004c2565b5b509050620004ef919062000529565b5090565b6200052691905b808211156200052257600081816101000a81549063ffffffff021916905550600101620004fa565b5090565b90565b6200054e91905b808211156200054a57600081600090555060010162000530565b5090565b90565b61166c80620005616000396000f3fe6080604052600436106100915760003560e01c8063667e227e11610059578063667e227e1461029f57806385703f33146102f2578063d321fe291461035e578063dc2d9af01461038d578063ecc74558146103c657610091565b8063155f586d14610096578063369672de146100c1578063454a2ab31461011c57806354ab69fd146101625780635c2e5530146101b5575b600080fd5b3480156100a257600080fd5b506100ab610418565b6040518082815260200191505060405180910390f35b3480156100cd57600080fd5b506100fa600480360360208110156100e457600080fd5b810190808035906020019092919050505061041e565b604051808263ffffffff1663ffffffff16815260200191505060405180910390f35b6101486004803603602081101561013257600080fd5b8101908080359060200190929190505050610455565b604051808215151515815260200191505060405180910390f35b34801561016e57600080fd5b506101776106ff565b6040518082601060200280838360005b838110156101a2578082015181840152602081019050610187565b5050505090500191505060405180910390f35b3480156101c157600080fd5b50610285600480360360408110156101d857600080fd5b8101908080359060200190929190803590602001906401000000008111156101ff57600080fd5b82018360208201111561021157600080fd5b8035906020019184600183028401116401000000008311171561023357600080fd5b91908080601f016020809104026020016040519081016040528093929190818152602001838380828437600081840152601f19601f82011690508083019250505050505050919291929050505061078f565b604051808215151515815260200191505060405180910390f35b3480156102ab57600080fd5b506102b461085b565b6040518082601060200280838360005b838110156102df5780820151818401526020810190506102c4565b5050505090500191505060405180910390f35b3480156102fe57600080fd5b50610307610935565b6040518080602001828103825283818151815260200191508051906020019060200280838360005b8381101561034a57808201518184015260208101905061032f565b505050509050019250505060405180910390f35b34801561036a57600080fd5b506103736109b9565b604051808215151515815260200191505060405180910390f35b34801561039957600080fd5b506103a2611175565b604051808260048111156103b257fe5b60ff16815260200191505060405180910390f35b6103fe600480360360408110156103dc57600080fd5b8101908080359060200190929190803515159060200190929190505050611217565b604051808215151515815260200191505060405180910390f35b60015481565b6003818154811061042b57fe5b9060005260206000209060089182820401919006600402915054906101000a900463ffffffff1681565b600062093a806001540142111561046b57600080fd5b60006001905060008090505b601081101561053957600460006003838154811061049157fe5b90600052602060002090600891828204019190066004029054906101000a900463ffffffff1663ffffffff16815260200190815260200160002060010160009054906101000a900473ffffffffffffffffffffffffffffffffffffffff1673ffffffffffffffffffffffffffffffffffffffff163373ffffffffffffffffffffffffffffffffffffffff16141561052b576000915061052c565b5b8080600101915050610477565b508061054457600080fd5b6004600084815260200190815260200160002060000154341161056657600080fd5b600260019054906101000a900473ffffffffffffffffffffffffffffffffffffffff1673ffffffffffffffffffffffffffffffffffffffff166004600085815260200190815260200160002060010160009054906101000a900473ffffffffffffffffffffffffffffffffffffffff1673ffffffffffffffffffffffffffffffffffffffff1614610685576004600084815260200190815260200160002060010160009054906101000a900473ffffffffffffffffffffffffffffffffffffffff1673ffffffffffffffffffffffffffffffffffffffff166108fc60046000868152602001908152602001600020600001549081150290604051600060405180830381858888f19350505050158015610683573d6000803e3d6000fd5b505b346004600085815260200190815260200160002060000181905550336004600085815260200190815260200160002060010160006101000a81548173ffffffffffffffffffffffffffffffffffffffff021916908373ffffffffffffffffffffffffffffffffffffffff1602179055506001915050919050565b61070761154c565b60008090505b60038054905081101561078b57600460006003838154811061072b57fe5b90600052602060002090600891828204019190066004029054906101000a900463ffffffff1663ffffffff1681526020019081526020016000206000015482826010811061077557fe5b602002018181525050808060010191505061070d565b5090565b600062093a806001540142116107a457600080fd5b620d2f00600154014211156107b857600080fd5b6004600084815260200190815260200160002060010160009054906101000a900473ffffffffffffffffffffffffffffffffffffffff1673ffffffffffffffffffffffffffffffffffffffff163373ffffffffffffffffffffffffffffffffffffffff161461082657600080fd5b8160046000858152602001908152602001600020600201908051906020019061085092919061156f565b506001905092915050565b6108636115ef565b60008090505b601081101561093157600460006003838154811061088357fe5b90600052602060002090600891828204019190066004029054906101000a900463ffffffff1663ffffffff16815260200190815260200160002060010160009054906101000a900473ffffffffffffffffffffffffffffffffffffffff168282601081106108ed57fe5b602002019073ffffffffffffffffffffffffffffffffffffffff16908173ffffffffffffffffffffffffffffffffffffffff16815250508080600101915050610869565b5090565b606060038054806020026020016040519081016040528092919081815260200182805480156109af57602002820191906000526020600020906000905b82829054906101000a900463ffffffff1663ffffffff16815260200190600401906020826003010492830192600103820291508084116109725790505b5050505050905090565b600062278d006001540142116109ce57600080fd5b6000806109d9611365565b158015610a335750600260019054906101000a900473ffffffffffffffffffffffffffffffffffffffff1673ffffffffffffffffffffffffffffffffffffffff163373ffffffffffffffffffffffffffffffffffffffff16145b15610c2f5760008090505b600380549050811015610bd7576004600060038381548110610a5c57fe5b90600052602060002090600891828204019190066004029054906101000a900463ffffffff1663ffffffff16815260200190815260200160002060010160159054906101000a900460ff161580610b0c57506004600060038381548110610abf57fe5b90600052602060002090600891828204019190066004029054906101000a900463ffffffff1663ffffffff16815260200190815260200160002060010160149054906101000a900460ff16155b15610b7657600a60096004600060038581548110610b2657fe5b90600052602060002090600891828204019190066004029054906101000a900463ffffffff1663ffffffff168152602001908152602001600020600001540281610b6c57fe5b0483019250610bca565b6004600060038381548110610b8757fe5b90600052602060002090600891828204019190066004029054906101000a900463ffffffff1663ffffffff16815260200190815260200160002060000154820191505b8080600101915050610a3e565b5080821115610c2a573373ffffffffffffffffffffffffffffffffffffffff166108fc8284039081150290604051600060405180830381858888f19350505050158015610c28573d6000803e3d6000fd5b505b61116b565b610c37611365565b158015610c925750600260019054906101000a900473ffffffffffffffffffffffffffffffffffffffff1673ffffffffffffffffffffffffffffffffffffffff163373ffffffffffffffffffffffffffffffffffffffff1614155b15610ed45760008090505b600380549050811015610ece576004600060038381548110610cbb57fe5b90600052602060002090600891828204019190066004029054906101000a900463ffffffff1663ffffffff16815260200190815260200160002060010160009054906101000a900473ffffffffffffffffffffffffffffffffffffffff1673ffffffffffffffffffffffffffffffffffffffff163373ffffffffffffffffffffffffffffffffffffffff161415610ec1576004600060038381548110610d5d57fe5b90600052602060002090600891828204019190066004029054906101000a900463ffffffff1663ffffffff16815260200190815260200160002060010160159054906101000a900460ff168015610e0d57506004600060038381548110610dc057fe5b90600052602060002090600891828204019190066004029054906101000a900463ffffffff1663ffffffff16815260200190815260200160002060010160149054906101000a900460ff16155b15610ec0573373ffffffffffffffffffffffffffffffffffffffff166108fc600a600b6004600060038781548110610e4157fe5b90600052602060002090600891828204019190066004029054906101000a900463ffffffff1663ffffffff168152602001908152602001600020600001540281610e8757fe5b049081150290604051600060405180830381858888f19350505050158015610eb3573d6000803e3d6000fd5b5060019350505050611172565b5b8080600101915050610c9d565b5061116a565b610edc611365565b8015610f365750600260019054906101000a900473ffffffffffffffffffffffffffffffffffffffff1673ffffffffffffffffffffffffffffffffffffffff163373ffffffffffffffffffffffffffffffffffffffff1614155b156111695760008090505b600380549050811015611167576004600060038381548110610f5f57fe5b90600052602060002090600891828204019190066004029054906101000a900463ffffffff1663ffffffff16815260200190815260200160002060010160009054906101000a900473ffffffffffffffffffffffffffffffffffffffff1673ffffffffffffffffffffffffffffffffffffffff163373ffffffffffffffffffffffffffffffffffffffff16141561115a57600460006003838154811061100157fe5b90600052602060002090600891828204019190066004029054906101000a900463ffffffff1663ffffffff16815260200190815260200160002060010160159054906101000a900460ff1680156110b05750600460006003838154811061106457fe5b90600052602060002090600891828204019190066004029054906101000a900463ffffffff1663ffffffff16815260200190815260200160002060010160149054906101000a900460ff165b15611159573373ffffffffffffffffffffffffffffffffffffffff166108fc600260046000600386815481106110e257fe5b90600052602060002090600891828204019190066004029054906101000a900463ffffffff1663ffffffff16815260200190815260200160002060000154029081150290604051600060405180830381858888f1935050505015801561114c573d6000803e3d6000fd5b5060019350505050611172565b5b8080600101915050610f41565b505b5b5b6001925050505b90565b600062093a8060015401421161118e5760009050611214565b62093a8060015401421180156111ab5750620d2f00600154014211155b156111b95760019050611214565b620d2f0060015401421180156111d65750621fa400600154014211155b156111e45760029050611214565b621fa4006001540142118015611201575062278d00600154014211155b1561120f5760039050611214565b600490505b90565b6000621fa40060015401421161122c57600080fd5b62278d006001540142111561124057600080fd5b6004600084815260200190815260200160002060000154341461126257600080fd5b6004600084815260200190815260200160002060010160009054906101000a900473ffffffffffffffffffffffffffffffffffffffff1673ffffffffffffffffffffffffffffffffffffffff163373ffffffffffffffffffffffffffffffffffffffff16146112d057600080fd5b6004600084815260200190815260200160002060010160159054906101000a900460ff16156112fe57600080fd5b816004600085815260200190815260200160002060010160146101000a81548160ff02191690831515021790555060016004600085815260200190815260200160002060010160156101000a81548160ff0219169083151502179055506001905092915050565b600062278d0060015401421161137a57600080fd5b6000809050600080905060008090505b6003805490508110156115415760046000600383815481106113a857fe5b90600052602060002090600891828204019190066004029054906101000a900463ffffffff1663ffffffff16815260200190815260200160002060010160159054906101000a900460ff1680156114575750600460006003838154811061140b57fe5b90600052602060002090600891828204019190066004029054906101000a900463ffffffff1663ffffffff16815260200190815260200160002060010160149054906101000a900460ff165b156114655781806001019250505b600460006003838154811061147657fe5b90600052602060002090600891828204019190066004029054906101000a900463ffffffff1663ffffffff16815260200190815260200160002060010160159054906101000a900460ff168015611526575060046000600383815481106114d957fe5b90600052602060002090600891828204019190066004029054906101000a900463ffffffff1663ffffffff16815260200190815260200160002060010160149054906101000a900460ff16155b156115345782806001019350505b808060010191505061138a565b508181119250505090565b604051806102000160405280601090602082028038833980820191505090505090565b828054600181600116156101000203166002900490600052602060002090601f016020900481019282601f106115b057805160ff19168380011785556115de565b828001600101855582156115de579182015b828111156115dd5782518255916020019190600101906115c2565b5b5090506115eb9190611612565b5090565b604051806102000160405280601090602082028038833980820191505090505090565b61163491905b80821115611630576000816000905550600101611618565b5090565b9056fea265627a7a72315820691fc9b8bc450615e7b9cd1db70a0ae54ec88d5476ab83b2b233238fca5a79fc64736f6c63430005100032",
  "source": "pragma solidity >=0.4.22 <0.7.0;\n// pragma experimental ABIEncoderV2;\nimport \"./TreeCoin.sol\";\n\ncontract Auction {\n    TreeCoin treeCoin;\n    uint public auctionTime; //竞价开启时间\n    uint constant total = 16;\n    bool isFarmerGetMoney;\n    struct Bid {\n        uint256 highestPrice; //最高出价\n        address payable addr; //最高出价地址\n        bool isWithdraw;//是否退款\n        bool isJudge; //是否已经申诉\n        string host;\n    }\n    \n    address farmer;\n\tenum Process { free, addrConfirm, bidsConfirm, withdrawConfirm, end }\n    uint32[] public treeNumbers;\n    mapping(uint => Bid) bids; //出价情况\n    \n    event ProcessEvent(uint256 _value);\n    event BidEvent(uint256 _value, address _addr);\n\n    constructor(address tc) public {\n        treeCoin = TreeCoin(tc);\n        farmer = msg.sender;\n        uint256 price = treeCoin.getPrice();\n        treeNumbers = treeCoin.getInitTrcNumbers();\n        auctionTime = now;\n        //初始价格为树币的默认价格, 出价者为farmer\n        for(uint i = 0; i < treeNumbers.length; i++) {\n            // treeNumbers.push(treeCoin.initTrcs[i].number);\n            bids[treeNumbers[i]] = Bid(price, msg.sender, false, false, \"\");\n        }\n    }\n\n    //定义项目进展阶段\n    //自由竞拍期\n    modifier free() {\n        require(now <= auctionTime + 3600 * 24 * 7);\n        _;\n    }\n    //货物地址确认期\n    modifier addressConfirm() {\n        require(now > auctionTime + 3600 * 24 * 7);\n        require(now <= auctionTime + 3600 * 24 * 10);\n        _;\n    }\n    //货物交割期\n    modifier bidsConfirm() {\n        require(now > auctionTime + 3600 * 24 * 10);\n        require(now <= auctionTime + 3600 * 24 * 24);\n        _;\n    }\n    //确认申诉期\n    modifier withdrawConfirm() {\n        require(now > auctionTime + 3600 * 24 * 24);\n        require(now <= auctionTime + 3600 * 24 * 30);\n        _;\n    }\n    //提款结算期\n    modifier getMoney() {\n        require(now > auctionTime + 3600 * 24 * 30);\n        _;\n    }\n\n    //当前地址没有最高出价，允许再出价\n    modifier allowBid() {\n        bool isAllow = true;\n        for (uint i=0; i < total; i++) {\n            if (msg.sender == bids[treeNumbers[i]].addr) {\n                isAllow = false;\n                continue;\n            }\n        }\n        require(isAllow);\n        _;\n\n    }\n\n    //查询当前项目阶段\n    function getProcess() public returns (Process){\n        if (now <= auctionTime + 3600 * 24 * 7) return Process.free;\n        else if (now > auctionTime + 3600 * 24 * 7 && now <= auctionTime + 3600 * 24 * 10) return Process.addrConfirm;\n        else if (now > auctionTime + 3600 * 24 * 10 && now <= auctionTime + 3600 * 24 * 24) return Process.bidsConfirm;\n        else if (now > auctionTime + 3600 * 24 * 24 && now <= auctionTime + 3600 * 24 * 30) return Process.withdrawConfirm;\n        return Process.end;\n    }\n\n    //查询目前所有最高出价\n    function getBidsHighest() public view returns(uint256[total] memory highest){\n        for (uint i=0; i < treeNumbers.length; i++) {\n            highest[i] = bids[treeNumbers[i]].highestPrice;\n        }\n    }\n\n    //查询目前所有最高出价者的地址\n    function getBidsAddr() public view returns (address[total] memory a){\n        for (uint i=0; i < total; i++) {\n            a[i] = bids[treeNumbers[i]].addr;\n        }\n    }\n\n    //竞价某编号的树币\n    function bid(uint number) public free allowBid payable returns (bool){\n        require(msg.value > bids[number].highestPrice);\n        //退款\n        if (bids[number].addr != farmer) {\n            bids[number].addr.transfer(bids[number].highestPrice);\n        }\n        bids[number].highestPrice = msg.value;\n        bids[number].addr = msg.sender;\n        return true;\n    }\n\n    //填写货物地址\n    function addAddr(uint number, string memory host) public addressConfirm returns (bool){\n        require(msg.sender == bids[number].addr);\n        bids[number].host = host;\n        return true;\n    }\n\n    //farmer 查询所有树币得主地址\n    // function getAddrs() public bidsConfirm returns (string[] memory highest){\n    //     require(msg.sender == farmer);\n    //     for (uint i=0; i < treeNumbers.length; i++) {\n    //         highest[i] = bids[treeNumbers[i]].host;\n    //     }\n    // }\n    \n    //竞价者申诉期申诉 或者确认收货\n    function payForWithdraw(uint number, bool isWithdraw) withdrawConfirm public payable returns(bool) {\n        require(msg.value == bids[number].highestPrice);\n        require(msg.sender == bids[number].addr);\n        require(!bids[number].isJudge);\n        bids[number].isWithdraw = isWithdraw;\n        bids[number].isJudge = true;\n        return true;\n    }\n\n    function getAmount() getMoney public returns (bool) {\n        //farmer 提款前提 不退款反馈多于退款反馈 只能提取未申诉退款钱的90%, 剩下10%作为未申诉退款返利\n        //judge 成功 获取10%返利 未judge 不能获取返利\n        //每增加一人申诉退款，不仅不能提取该树币的钱，且减少提取等量的钱\n        uint256 amount;\n        uint256 decreaseAmount;\n        if (!_isWithdraw() && (msg.sender == farmer)) {\n            for (uint i=0; i < treeNumbers.length; i++) {\n                if (!bids[treeNumbers[i]].isJudge || !bids[treeNumbers[i]].isWithdraw) {\n                    amount += bids[treeNumbers[i]].highestPrice * 9 / 10;\n                } else {\n                    decreaseAmount += bids[treeNumbers[i]].highestPrice;\n                    }\n            }\n            if (amount > decreaseAmount) {\n                msg.sender.transfer(amount - decreaseAmount);\n            }\n        } else if (!_isWithdraw() && (msg.sender != farmer)) {\n            for (uint i=0; i < treeNumbers.length; i++) {\n                if(msg.sender == bids[treeNumbers[i]].addr) {\n                    if (bids[treeNumbers[i]].isJudge && !bids[treeNumbers[i]].isWithdraw) {\n                        msg.sender.transfer(bids[treeNumbers[i]].highestPrice*11 / 10);\n                        return true;\n                    }\n                }\n            }\n        } else if (_isWithdraw() && (msg.sender != farmer)) {\n            for (uint i=0; i < treeNumbers.length; i++) {\n                if(msg.sender == bids[treeNumbers[i]].addr) {\n                    if (bids[treeNumbers[i]].isJudge && bids[treeNumbers[i]].isWithdraw) {\n                        msg.sender.transfer(bids[treeNumbers[i]].highestPrice*2);\n                        return true;\n                    }\n                }\n            }\n        }\n                \n        return true;\n    }\n\n    //是否应该退款\n    function _isWithdraw() getMoney private view returns (bool) {\n        uint unWithdrawCount = 0;\n        uint withdrawCount = 0;\n        for (uint i=0; i < treeNumbers.length; i++) {\n            if (bids[treeNumbers[i]].isJudge && bids[treeNumbers[i]].isWithdraw) {\n                withdrawCount ++;\n            }\n            if (bids[treeNumbers[i]].isJudge && !bids[treeNumbers[i]].isWithdraw) {\n                unWithdrawCount ++;\n            }\n        }\n        return withdrawCount > unWithdrawCount;\n    }\n\n    //获取所有树币的编号\n    function getTreeCoins() public view returns (uint32[] memory) {\n        return treeNumbers; \n    }\n}\n",
  "sourcePath": "/home/f/codes/bcs/farmer/contracts/Auction.sol",
  "compiler": {
    "name": "solc",
    "version": "0.5.16+commit.9c3226ce.Emscripten.clang"
  },
  "schemaVersion": "3.3.1",
  "updatedAt": "2020-12-04T09:27:56.920Z",
  "networkType": "ethereum",
  "devdoc": {
    "methods": {}
  },
  "userdoc": {
    "methods": {}
  }
}