{
  "contractName": "Auction",
  "abi": [
    {
      "inputs": [
        {
          "internalType": "address",
          "name": "tc",
          "type": "address"
        }
      ],
      "payable": false,
      "stateMutability": "nonpayable",
      "type": "constructor"
    },
    {
      "anonymous": false,
      "inputs": [
        {
          "indexed": false,
          "internalType": "uint256",
          "name": "_value",
          "type": "uint256"
        },
        {
          "indexed": false,
          "internalType": "address",
          "name": "_addr",
          "type": "address"
        }
      ],
      "name": "BidEvent",
      "type": "event"
    },
    {
      "anonymous": false,
      "inputs": [
        {
          "indexed": false,
          "internalType": "string",
          "name": "_value",
          "type": "string"
        }
      ],
      "name": "LogString",
      "type": "event"
    },
    {
      "anonymous": false,
      "inputs": [
        {
          "indexed": false,
          "internalType": "uint256",
          "name": "_value",
          "type": "uint256"
        }
      ],
      "name": "ProcessEvent",
      "type": "event"
    },
    {
      "constant": true,
      "inputs": [],
      "name": "auctionTime",
      "outputs": [
        {
          "internalType": "uint256",
          "name": "",
          "type": "uint256"
        }
      ],
      "payable": false,
      "stateMutability": "view",
      "type": "function"
    },
    {
      "constant": true,
      "inputs": [
        {
          "internalType": "uint256",
          "name": "",
          "type": "uint256"
        }
      ],
      "name": "treeNumbers",
      "outputs": [
        {
          "internalType": "uint32",
          "name": "",
          "type": "uint32"
        }
      ],
      "payable": false,
      "stateMutability": "view",
      "type": "function"
    },
    {
      "constant": false,
      "inputs": [
        {
          "internalType": "uint256",
          "name": "time",
          "type": "uint256"
        }
      ],
      "name": "getProcess",
      "outputs": [
        {
          "internalType": "enum Auction.Process",
          "name": "",
          "type": "uint8"
        }
      ],
      "payable": false,
      "stateMutability": "nonpayable",
      "type": "function"
    },
    {
      "constant": true,
      "inputs": [],
      "name": "getBidsHighest",
      "outputs": [
        {
          "internalType": "uint256[16]",
          "name": "highest",
          "type": "uint256[16]"
        }
      ],
      "payable": false,
      "stateMutability": "view",
      "type": "function"
    },
    {
      "constant": true,
      "inputs": [],
      "name": "getBidsAddr",
      "outputs": [
        {
          "internalType": "address[16]",
          "name": "a",
          "type": "address[16]"
        }
      ],
      "payable": false,
      "stateMutability": "view",
      "type": "function"
    },
    {
      "constant": true,
      "inputs": [],
      "name": "getBidHighInfo",
      "outputs": [
        {
          "internalType": "uint256",
          "name": "",
          "type": "uint256"
        },
        {
          "internalType": "uint32",
          "name": "",
          "type": "uint32"
        },
        {
          "internalType": "string",
          "name": "",
          "type": "string"
        },
        {
          "internalType": "address",
          "name": "",
          "type": "address"
        }
      ],
      "payable": false,
      "stateMutability": "view",
      "type": "function"
    },
    {
      "constant": false,
      "inputs": [
        {
          "internalType": "uint256",
          "name": "number",
          "type": "uint256"
        }
      ],
      "name": "bid",
      "outputs": [
        {
          "internalType": "bool",
          "name": "",
          "type": "bool"
        }
      ],
      "payable": true,
      "stateMutability": "payable",
      "type": "function"
    },
    {
      "constant": false,
      "inputs": [
        {
          "internalType": "uint256",
          "name": "number",
          "type": "uint256"
        },
        {
          "internalType": "string",
          "name": "host",
          "type": "string"
        }
      ],
      "name": "addAddr",
      "outputs": [
        {
          "internalType": "bool",
          "name": "",
          "type": "bool"
        }
      ],
      "payable": false,
      "stateMutability": "nonpayable",
      "type": "function"
    },
    {
      "constant": false,
      "inputs": [
        {
          "internalType": "uint256",
          "name": "number",
          "type": "uint256"
        },
        {
          "internalType": "bool",
          "name": "isWithdraw",
          "type": "bool"
        }
      ],
      "name": "payForWithdraw",
      "outputs": [
        {
          "internalType": "bool",
          "name": "",
          "type": "bool"
        }
      ],
      "payable": true,
      "stateMutability": "payable",
      "type": "function"
    },
    {
      "constant": true,
      "inputs": [
        {
          "internalType": "uint256",
          "name": "number",
          "type": "uint256"
        }
      ],
      "name": "getPayInfo",
      "outputs": [
        {
          "internalType": "bool",
          "name": "",
          "type": "bool"
        }
      ],
      "payable": false,
      "stateMutability": "view",
      "type": "function"
    },
    {
      "constant": false,
      "inputs": [],
      "name": "getAmount",
      "outputs": [
        {
          "internalType": "bool",
          "name": "",
          "type": "bool"
        }
      ],
      "payable": false,
      "stateMutability": "nonpayable",
      "type": "function"
    },
    {
      "constant": true,
      "inputs": [],
      "name": "getTreeCoins",
      "outputs": [
        {
          "internalType": "uint32[]",
          "name": "",
          "type": "uint32[]"
        }
      ],
      "payable": false,
      "stateMutability": "view",
      "type": "function"
    }
  ],
  "bytecode": "0x60806040523480156200001157600080fd5b50604051620020ef380380620020ef833981810160405260208110156200003757600080fd5b8101908080519060200190929190505050806000806101000a81548173ffffffffffffffffffffffffffffffffffffffff021916908373ffffffffffffffffffffffffffffffffffffffff16021790555033600260016101000a81548173ffffffffffffffffffffffffffffffffffffffff021916908373ffffffffffffffffffffffffffffffffffffffff16021790555060008060009054906101000a900473ffffffffffffffffffffffffffffffffffffffff1673ffffffffffffffffffffffffffffffffffffffff166398d5fdca6040518163ffffffff1660e01b815260040160206040518083038186803b1580156200013357600080fd5b505afa15801562000148573d6000803e3d6000fd5b505050506040513d60208110156200015f57600080fd5b810190808051906020019092919050505090506000809054906101000a900473ffffffffffffffffffffffffffffffffffffffff1673ffffffffffffffffffffffffffffffffffffffff1663957292d16040518163ffffffff1660e01b81526004016102006040518083038186803b158015620001db57600080fd5b505afa158015620001f0573d6000803e3d6000fd5b505050506040513d601f19601f820116820180604052506102008110156200021757600080fd5b8101908091905050600390601062000231929190620003b5565b504260018190555060008090505b600380549050811015620003ac576040518060a001604052808381526020013373ffffffffffffffffffffffffffffffffffffffff168152602001600015158152602001600015158152602001604051806020016040528060008152508152506004600060038481548110620002b157fe5b90600052602060002090600891828204019190066004029054906101000a900463ffffffff1663ffffffff1681526020019081526020016000206000820151816000015560208201518160010160006101000a81548173ffffffffffffffffffffffffffffffffffffffff021916908373ffffffffffffffffffffffffffffffffffffffff16021790555060408201518160010160146101000a81548160ff02191690831515021790555060608201518160010160156101000a81548160ff02191690831515021790555060808201518160020190805190602001906200039a9291906200046c565b5090505080806001019150506200023f565b50505062000551565b82805482825590600052602060002090600701600890048101928215620004595791602002820160005b838211156200042557835183826101000a81548163ffffffff021916908363ffffffff1602179055509260200192600401602081600301049283019260010302620003df565b8015620004575782816101000a81549063ffffffff021916905560040160208160030104928301926001030262000425565b505b509050620004689190620004f3565b5090565b828054600181600116156101000203166002900490600052602060002090601f016020900481019282601f10620004af57805160ff1916838001178555620004e0565b82800160010185558215620004e0579182015b82811115620004df578251825591602001919060010190620004c2565b5b509050620004ef919062000529565b5090565b6200052691905b808211156200052257600081816101000a81549063ffffffff021916905550600101620004fa565b5090565b90565b6200054e91905b808211156200054a57600081600090555060010162000530565b5090565b90565b611b8e80620005616000396000f3fe6080604052600436106100a75760003560e01c80635c2e5530116100645780635c2e5530146102fb578063667e227e146103e557806385703f3314610438578063d0851a71146104a4578063d321fe2914610501578063ecc7455814610530576100a7565b8063155f586d146100ac578063369672de146100d7578063454a2ab3146101325780634c386a261461017857806354ab69fd146101cb5780635b1695ae1461021e575b600080fd5b3480156100b857600080fd5b506100c1610582565b6040518082815260200191505060405180910390f35b3480156100e357600080fd5b50610110600480360360208110156100fa57600080fd5b8101908080359060200190929190505050610588565b604051808263ffffffff1663ffffffff16815260200191505060405180910390f35b61015e6004803603602081101561014857600080fd5b81019080803590602001909291905050506105bf565b604051808215151515815260200191505060405180910390f35b34801561018457600080fd5b506101b16004803603602081101561019b57600080fd5b810190808035906020019092919050505061086a565b604051808215151515815260200191505060405180910390f35b3480156101d757600080fd5b506101e0610905565b6040518082601060200280838360005b8381101561020b5780820151818401526020810190506101f0565b5050505090500191505060405180910390f35b34801561022a57600080fd5b50610233610995565b604051808581526020018463ffffffff1663ffffffff168152602001806020018373ffffffffffffffffffffffffffffffffffffffff1673ffffffffffffffffffffffffffffffffffffffff168152602001828103825284818151815260200191508051906020019080838360005b838110156102bd5780820151818401526020810190506102a2565b50505050905090810190601f1680156102ea5780820380516001836020036101000a031916815260200191505b509550505050505060405180910390f35b34801561030757600080fd5b506103cb6004803603604081101561031e57600080fd5b81019080803590602001909291908035906020019064010000000081111561034557600080fd5b82018360208201111561035757600080fd5b8035906020019184600183028401116401000000008311171561037957600080fd5b91908080601f016020809104026020016040519081016040528093929190818152602001838380828437600081840152601f19601f820116905080830192505050505050509192919290505050610c06565b604051808215151515815260200191505060405180910390f35b3480156103f157600080fd5b506103fa610d70565b6040518082601060200280838360005b8381101561042557808201518184015260208101905061040a565b5050505090500191505060405180910390f35b34801561044457600080fd5b5061044d610e4a565b6040518080602001828103825283818151815260200191508051906020019060200280838360005b83811015610490578082015181840152602081019050610475565b505050509050019250505060405180910390f35b3480156104b057600080fd5b506104dd600480360360208110156104c757600080fd5b8101908080359060200190929190505050610ece565b604051808260048111156104ed57fe5b60ff16815260200191505060405180910390f35b34801561050d57600080fd5b50610516610f79565b604051808215151515815260200191505060405180910390f35b6105686004803603604081101561054657600080fd5b8101908080359060200190929190803515159060200190929190505050611736565b604051808215151515815260200191505060405180910390f35b60015481565b6003818154811061059557fe5b9060005260206000209060089182820401919006600402915054906101000a900463ffffffff1681565b60006007600302600154014211156105d657600080fd5b60006001905060008090505b60108110156106a45760046000600383815481106105fc57fe5b90600052602060002090600891828204019190066004029054906101000a900463ffffffff1663ffffffff16815260200190815260200160002060010160009054906101000a900473ffffffffffffffffffffffffffffffffffffffff1673ffffffffffffffffffffffffffffffffffffffff163373ffffffffffffffffffffffffffffffffffffffff1614156106965760009150610697565b5b80806001019150506105e2565b50806106af57600080fd5b600460008481526020019081526020016000206000015434116106d157600080fd5b600260019054906101000a900473ffffffffffffffffffffffffffffffffffffffff1673ffffffffffffffffffffffffffffffffffffffff166004600085815260200190815260200160002060010160009054906101000a900473ffffffffffffffffffffffffffffffffffffffff1673ffffffffffffffffffffffffffffffffffffffff16146107f0576004600084815260200190815260200160002060010160009054906101000a900473ffffffffffffffffffffffffffffffffffffffff1673ffffffffffffffffffffffffffffffffffffffff166108fc60046000868152602001908152602001600020600001549081150290604051600060405180830381858888f193505050501580156107ee573d6000803e3d6000fd5b505b346004600085815260200190815260200160002060000181905550336004600085815260200190815260200160002060010160006101000a81548173ffffffffffffffffffffffffffffffffffffffff021916908373ffffffffffffffffffffffffffffffffffffffff1602179055506001915050919050565b60006004600083815260200190815260200160002060010160009054906101000a900473ffffffffffffffffffffffffffffffffffffffff1673ffffffffffffffffffffffffffffffffffffffff163373ffffffffffffffffffffffffffffffffffffffff16146108da57600080fd5b6004600083815260200190815260200160002060010160159054906101000a900460ff169050919050565b61090d611a6e565b60008090505b60038054905081101561099157600460006003838154811061093157fe5b90600052602060002090600891828204019190066004029054906101000a900463ffffffff1663ffffffff1681526020019081526020016000206000015482826010811061097b57fe5b6020020181815250508080600101915050610913565b5090565b6000806060600080600090505b6010811015610bd85760046000600383815481106109bc57fe5b90600052602060002090600891828204019190066004029054906101000a900463ffffffff1663ffffffff16815260200190815260200160002060010160009054906101000a900473ffffffffffffffffffffffffffffffffffffffff1673ffffffffffffffffffffffffffffffffffffffff163373ffffffffffffffffffffffffffffffffffffffff161415610bcb576004600060038381548110610a5e57fe5b90600052602060002090600891828204019190066004029054906101000a900463ffffffff1663ffffffff1681526020019081526020016000206000015460038281548110610aa957fe5b90600052602060002090600891828204019190066004029054906101000a900463ffffffff166004600060038581548110610ae057fe5b90600052602060002090600891828204019190066004029054906101000a900463ffffffff1663ffffffff16815260200190815260200160002060020133818054600181600116156101000203166002900480601f016020809104026020016040519081016040528092919081815260200182805460018160011615610100020316600290048015610bb35780601f10610b8857610100808354040283529160200191610bb3565b820191906000526020600020905b815481529060010190602001808311610b9657829003601f168201915b50505050509150809050945094509450945050610c00565b80806001019150506109a2565b5060008033829250819150604051806020016040528060008152509080905093509350935093505b90919293565b60006007600302600154014211610c1c57600080fd5b600a60030260015401421115610c3157600080fd5b6004600084815260200190815260200160002060010160009054906101000a900473ffffffffffffffffffffffffffffffffffffffff1673ffffffffffffffffffffffffffffffffffffffff163373ffffffffffffffffffffffffffffffffffffffff1614610c9f57600080fd5b7fa95e6e2a182411e7a6f9ed114a85c3761d87f9b8f453d842c71235aa64fff99f826040518080602001828103825283818151815260200191508051906020019080838360005b83811015610d01578082015181840152602081019050610ce6565b50505050905090810190601f168015610d2e5780820380516001836020036101000a031916815260200191505b509250505060405180910390a181600460008581526020019081526020016000206002019080519060200190610d65929190611a91565b506001905092915050565b610d78611b11565b60008090505b6010811015610e46576004600060038381548110610d9857fe5b90600052602060002090600891828204019190066004029054906101000a900463ffffffff1663ffffffff16815260200190815260200160002060010160009054906101000a900473ffffffffffffffffffffffffffffffffffffffff16828260108110610e0257fe5b602002019073ffffffffffffffffffffffffffffffffffffffff16908173ffffffffffffffffffffffffffffffffffffffff16815250508080600101915050610d7e565b5090565b60606003805480602002602001604051908101604052809291908181526020018280548015610ec457602002820191906000526020600020906000905b82829054906101000a900463ffffffff1663ffffffff1681526020019060040190602082600301049283019260010382029150808411610e875790505b5050505050905090565b60006007600302600154018211610ee85760009050610f74565b60076003026001540182118015610f075750600a600302600154018211155b15610f155760019050610f74565b600a6003026001540182118015610f3457506018600302600154018211155b15610f425760029050610f74565b60186003026001540182118015610f615750601e600302600154018211155b15610f6f5760039050610f74565b600490505b919050565b6000601e600302600154014211610f8f57600080fd5b600080610f9a611886565b158015610ff45750600260019054906101000a900473ffffffffffffffffffffffffffffffffffffffff1673ffffffffffffffffffffffffffffffffffffffff163373ffffffffffffffffffffffffffffffffffffffff16145b156111f05760008090505b60038054905081101561119857600460006003838154811061101d57fe5b90600052602060002090600891828204019190066004029054906101000a900463ffffffff1663ffffffff16815260200190815260200160002060010160159054906101000a900460ff1615806110cd5750600460006003838154811061108057fe5b90600052602060002090600891828204019190066004029054906101000a900463ffffffff1663ffffffff16815260200190815260200160002060010160149054906101000a900460ff16155b1561113757600a600960046000600385815481106110e757fe5b90600052602060002090600891828204019190066004029054906101000a900463ffffffff1663ffffffff16815260200190815260200160002060000154028161112d57fe5b048301925061118b565b600460006003838154811061114857fe5b90600052602060002090600891828204019190066004029054906101000a900463ffffffff1663ffffffff16815260200190815260200160002060000154820191505b8080600101915050610fff565b50808211156111eb573373ffffffffffffffffffffffffffffffffffffffff166108fc8284039081150290604051600060405180830381858888f193505050501580156111e9573d6000803e3d6000fd5b505b61172c565b6111f8611886565b1580156112535750600260019054906101000a900473ffffffffffffffffffffffffffffffffffffffff1673ffffffffffffffffffffffffffffffffffffffff163373ffffffffffffffffffffffffffffffffffffffff1614155b156114955760008090505b60038054905081101561148f57600460006003838154811061127c57fe5b90600052602060002090600891828204019190066004029054906101000a900463ffffffff1663ffffffff16815260200190815260200160002060010160009054906101000a900473ffffffffffffffffffffffffffffffffffffffff1673ffffffffffffffffffffffffffffffffffffffff163373ffffffffffffffffffffffffffffffffffffffff16141561148257600460006003838154811061131e57fe5b90600052602060002090600891828204019190066004029054906101000a900463ffffffff1663ffffffff16815260200190815260200160002060010160159054906101000a900460ff1680156113ce5750600460006003838154811061138157fe5b90600052602060002090600891828204019190066004029054906101000a900463ffffffff1663ffffffff16815260200190815260200160002060010160149054906101000a900460ff16155b15611481573373ffffffffffffffffffffffffffffffffffffffff166108fc600a600b600460006003878154811061140257fe5b90600052602060002090600891828204019190066004029054906101000a900463ffffffff1663ffffffff16815260200190815260200160002060000154028161144857fe5b049081150290604051600060405180830381858888f19350505050158015611474573d6000803e3d6000fd5b5060019350505050611733565b5b808060010191505061125e565b5061172b565b61149d611886565b80156114f75750600260019054906101000a900473ffffffffffffffffffffffffffffffffffffffff1673ffffffffffffffffffffffffffffffffffffffff163373ffffffffffffffffffffffffffffffffffffffff1614155b1561172a5760008090505b60038054905081101561172857600460006003838154811061152057fe5b90600052602060002090600891828204019190066004029054906101000a900463ffffffff1663ffffffff16815260200190815260200160002060010160009054906101000a900473ffffffffffffffffffffffffffffffffffffffff1673ffffffffffffffffffffffffffffffffffffffff163373ffffffffffffffffffffffffffffffffffffffff16141561171b5760046000600383815481106115c257fe5b90600052602060002090600891828204019190066004029054906101000a900463ffffffff1663ffffffff16815260200190815260200160002060010160159054906101000a900460ff1680156116715750600460006003838154811061162557fe5b90600052602060002090600891828204019190066004029054906101000a900463ffffffff1663ffffffff16815260200190815260200160002060010160149054906101000a900460ff165b1561171a573373ffffffffffffffffffffffffffffffffffffffff166108fc600260046000600386815481106116a357fe5b90600052602060002090600891828204019190066004029054906101000a900463ffffffff1663ffffffff16815260200190815260200160002060000154029081150290604051600060405180830381858888f1935050505015801561170d573d6000803e3d6000fd5b5060019350505050611733565b5b8080600101915050611502565b505b5b5b6001925050505b90565b6000601860030260015401421161174c57600080fd5b601e6003026001540142111561176157600080fd5b6004600084815260200190815260200160002060000154341461178357600080fd5b6004600084815260200190815260200160002060010160009054906101000a900473ffffffffffffffffffffffffffffffffffffffff1673ffffffffffffffffffffffffffffffffffffffff163373ffffffffffffffffffffffffffffffffffffffff16146117f157600080fd5b6004600084815260200190815260200160002060010160159054906101000a900460ff161561181f57600080fd5b816004600085815260200190815260200160002060010160146101000a81548160ff02191690831515021790555060016004600085815260200190815260200160002060010160156101000a81548160ff0219169083151502179055506001905092915050565b6000601e60030260015401421161189c57600080fd5b6000809050600080905060008090505b600380549050811015611a635760046000600383815481106118ca57fe5b90600052602060002090600891828204019190066004029054906101000a900463ffffffff1663ffffffff16815260200190815260200160002060010160159054906101000a900460ff1680156119795750600460006003838154811061192d57fe5b90600052602060002090600891828204019190066004029054906101000a900463ffffffff1663ffffffff16815260200190815260200160002060010160149054906101000a900460ff165b156119875781806001019250505b600460006003838154811061199857fe5b90600052602060002090600891828204019190066004029054906101000a900463ffffffff1663ffffffff16815260200190815260200160002060010160159054906101000a900460ff168015611a48575060046000600383815481106119fb57fe5b90600052602060002090600891828204019190066004029054906101000a900463ffffffff1663ffffffff16815260200190815260200160002060010160149054906101000a900460ff16155b15611a565782806001019350505b80806001019150506118ac565b508181119250505090565b604051806102000160405280601090602082028038833980820191505090505090565b828054600181600116156101000203166002900490600052602060002090601f016020900481019282601f10611ad257805160ff1916838001178555611b00565b82800160010185558215611b00579182015b82811115611aff578251825591602001919060010190611ae4565b5b509050611b0d9190611b34565b5090565b604051806102000160405280601090602082028038833980820191505090505090565b611b5691905b80821115611b52576000816000905550600101611b3a565b5090565b9056fea265627a7a72315820095dc91c6da7a7e3d4f1bc0731036dc5c2aaedf806e467bc22f0b047e9fa37c864736f6c63430005100032",
  "source": "pragma solidity >=0.4.22 <0.7.0;\n// pragma experimental ABIEncoderV2;\nimport \"./TreeCoin.sol\";\n\ncontract Auction {\n    TreeCoin treeCoin;\n    uint public auctionTime; //\n    uint constant total = 16;\n    // uint constant day = 3600 * 24;\n    uint constant day = 3;\n    bool isFarmerGetMoney;\n    struct Bid {\n        uint256 highestPrice; //\n        address payable addr; //\n        bool isWithdraw;//\n        bool isJudge; //\n        string host;\n    }\n    \n    address farmer;\n\tenum Process { free, addrConfirm, bidsConfirm, withdrawConfirm, end }\n    uint32[] public treeNumbers;\n    mapping(uint => Bid) bids; //\n    \n    event ProcessEvent(uint256 _value);\n    event LogString(string _value);\n    event BidEvent(uint256 _value, address _addr);\n\n    constructor(address tc) public {\n        treeCoin = TreeCoin(tc);\n        farmer = msg.sender;\n        uint256 price = treeCoin.getPrice();\n        treeNumbers = treeCoin.getInitTrcNumbers();\n        auctionTime = now;\n        //, farmer\n        for(uint i = 0; i < treeNumbers.length; i++) {\n            // treeNumbers.push(treeCoin.initTrcs[i].number);\n            bids[treeNumbers[i]] = Bid(price, msg.sender, false, false, \"\");\n        }\n    }\n\n    //\n    //\n    modifier free() {\n        require(now <= auctionTime + day * 7);\n        _;\n    }\n    //\n    modifier addressConfirm() {\n        require(now > auctionTime + day * 7);\n        require(now <= auctionTime + day * 10);\n        _;\n    }\n    //\n    modifier bidsConfirm() {\n        require(now > auctionTime + day * 10);\n        require(now <= auctionTime + day * 24);\n        _;\n    }\n    //\n    modifier withdrawConfirm() {\n        require(now > auctionTime + day * 24);\n        require(now <= auctionTime + day * 30);\n        _;\n    }\n    //\n    modifier getMoney() {\n        require(now > auctionTime + day * 30);\n        _;\n    }\n\n    //\n    modifier allowBid() {\n        bool isAllow = true;\n        for (uint i=0; i < total; i++) {\n            if (msg.sender == bids[treeNumbers[i]].addr) {\n                isAllow = false;\n                continue;\n            }\n        }\n        require(isAllow);\n        _;\n\n    }\n\n    //\n    function getProcess(uint256 time) public returns (Process){\n        if (time <= auctionTime + day * 7) return Process.free;\n        else if (time > auctionTime + day * 7 && time <= auctionTime + day * 10) return Process.addrConfirm;\n        else if (time > auctionTime + day * 10 && time <= auctionTime + day * 24) return Process.bidsConfirm;\n        else if (time > auctionTime + day * 24 && time <= auctionTime + day * 30) return Process.withdrawConfirm;\n        return Process.end;\n    }\n\n    //\n    function getBidsHighest() public view returns(uint256[total] memory highest){\n        for (uint i=0; i < treeNumbers.length; i++) {\n            highest[i] = bids[treeNumbers[i]].highestPrice;\n        }\n    }\n\n    //\n    function getBidsAddr() public view returns (address[total] memory a){\n        for (uint i=0; i < total; i++) {\n            a[i] = bids[treeNumbers[i]].addr;\n        }\n    }\n\n    //\n    function getBidHighInfo() public view returns(uint256, uint32, string memory, address) {\n        for (uint i=0; i < total; i++) {\n            if (msg.sender == bids[treeNumbers[i]].addr) {\n                return (bids[treeNumbers[i]].highestPrice, treeNumbers[i], bids[treeNumbers[i]].host, msg.sender);\n            }\n        }\n        return (0,0,\"\", msg.sender);\n    }\n\n    //\n    function bid(uint number) public free allowBid payable returns (bool){\n        require(msg.value > bids[number].highestPrice);\n        //\n        if (bids[number].addr != farmer) {\n            bids[number].addr.transfer(bids[number].highestPrice);\n        }\n        bids[number].highestPrice = msg.value;\n        bids[number].addr = msg.sender;\n        return true;\n    }\n\n    //\n    function addAddr(uint number, string memory host) public addressConfirm returns (bool){\n        require(msg.sender == bids[number].addr);\n        emit LogString(host);\n        bids[number].host = host;\n        return true;\n    }\n\n    //farmer \n    // function getAddrs() public bidsConfirm returns (string[] memory highest){\n    //     require(msg.sender == farmer);\n    //     for (uint i=0; i < treeNumbers.length; i++) {\n    //         highest[i] = bids[treeNumbers[i]].host;\n    //     }\n    // }\n    \n    // \n    function payForWithdraw(uint number, bool isWithdraw) withdrawConfirm public payable returns(bool) {\n        require(msg.value == bids[number].highestPrice);\n        require(msg.sender == bids[number].addr);\n        require(!bids[number].isJudge);\n        bids[number].isWithdraw = isWithdraw;\n        bids[number].isJudge = true;\n        return true;\n    }\n\n    //\n    function getPayInfo(uint number) public view returns(bool) {\n        require(msg.sender == bids[number].addr);\n        return bids[number].isJudge;\n    }\n\n    function getAmount() getMoney public returns (bool) {\n        //farmer   90%, 10%\n        //judge  10% judge \n        //\n        uint256 amount;\n        uint256 decreaseAmount;\n        if (!_isWithdraw() && (msg.sender == farmer)) {\n            for (uint i=0; i < treeNumbers.length; i++) {\n                if (!bids[treeNumbers[i]].isJudge || !bids[treeNumbers[i]].isWithdraw) {\n                    amount += bids[treeNumbers[i]].highestPrice * 9 / 10;\n                } else {\n                    decreaseAmount += bids[treeNumbers[i]].highestPrice;\n                    }\n            }\n            if (amount > decreaseAmount) {\n                msg.sender.transfer(amount - decreaseAmount);\n            }\n        } else if (!_isWithdraw() && (msg.sender != farmer)) {\n            for (uint i=0; i < treeNumbers.length; i++) {\n                if(msg.sender == bids[treeNumbers[i]].addr) {\n                    if (bids[treeNumbers[i]].isJudge && !bids[treeNumbers[i]].isWithdraw) {\n                        msg.sender.transfer(bids[treeNumbers[i]].highestPrice*11 / 10);\n                        return true;\n                    }\n                }\n            }\n        } else if (_isWithdraw() && (msg.sender != farmer)) {\n            for (uint i=0; i < treeNumbers.length; i++) {\n                if(msg.sender == bids[treeNumbers[i]].addr) {\n                    if (bids[treeNumbers[i]].isJudge && bids[treeNumbers[i]].isWithdraw) {\n                        msg.sender.transfer(bids[treeNumbers[i]].highestPrice*2);\n                        return true;\n                    }\n                }\n            }\n        }\n                \n        return true;\n    }\n\n    //\n    function _isWithdraw() getMoney private view returns (bool) {\n        uint unWithdrawCount = 0;\n        uint withdrawCount = 0;\n        for (uint i=0; i < treeNumbers.length; i++) {\n            if (bids[treeNumbers[i]].isJudge && bids[treeNumbers[i]].isWithdraw) {\n                withdrawCount ++;\n            }\n            if (bids[treeNumbers[i]].isJudge && !bids[treeNumbers[i]].isWithdraw) {\n                unWithdrawCount ++;\n            }\n        }\n        return withdrawCount > unWithdrawCount;\n    }\n\n    //\n    function getTreeCoins() public view returns (uint32[] memory) {\n        return treeNumbers; \n    }\n}\n",
  "sourcePath": "/home/f/codes/bcs/farmer/contracts/Auction.sol",
  "compiler": {
    "name": "solc",
    "version": "0.5.16+commit.9c3226ce.Emscripten.clang"
  },
  "schemaVersion": "3.3.1",
  "updatedAt": "2020-12-09T08:49:11.706Z",
  "networkType": "ethereum",
  "devdoc": {
    "methods": {}
  },
  "userdoc": {
    "methods": {}
  }
}