{
  "contractName": "Auction",
  "abi": [
    {
      "inputs": [
        {
          "internalType": "address",
          "name": "tc",
          "type": "address"
        }
      ],
      "payable": false,
      "stateMutability": "nonpayable",
      "type": "constructor"
    },
    {
      "anonymous": false,
      "inputs": [
        {
          "indexed": false,
          "internalType": "uint256",
          "name": "_value",
          "type": "uint256"
        },
        {
          "indexed": false,
          "internalType": "address",
          "name": "_addr",
          "type": "address"
        }
      ],
      "name": "BidEvent",
      "type": "event"
    },
    {
      "anonymous": false,
      "inputs": [
        {
          "indexed": false,
          "internalType": "string",
          "name": "_value",
          "type": "string"
        }
      ],
      "name": "LogString",
      "type": "event"
    },
    {
      "anonymous": false,
      "inputs": [
        {
          "indexed": false,
          "internalType": "uint256",
          "name": "_value",
          "type": "uint256"
        }
      ],
      "name": "ProcessEvent",
      "type": "event"
    },
    {
      "constant": true,
      "inputs": [],
      "name": "auctionTime",
      "outputs": [
        {
          "internalType": "uint256",
          "name": "",
          "type": "uint256"
        }
      ],
      "payable": false,
      "stateMutability": "view",
      "type": "function"
    },
    {
      "constant": true,
      "inputs": [
        {
          "internalType": "uint256",
          "name": "",
          "type": "uint256"
        }
      ],
      "name": "treeNumbers",
      "outputs": [
        {
          "internalType": "uint32",
          "name": "",
          "type": "uint32"
        }
      ],
      "payable": false,
      "stateMutability": "view",
      "type": "function"
    },
    {
      "constant": true,
      "inputs": [
        {
          "internalType": "uint256",
          "name": "time",
          "type": "uint256"
        }
      ],
      "name": "getProcess",
      "outputs": [
        {
          "internalType": "enum Auction.Process",
          "name": "",
          "type": "uint8"
        }
      ],
      "payable": false,
      "stateMutability": "view",
      "type": "function"
    },
    {
      "constant": true,
      "inputs": [],
      "name": "getBidsHighest",
      "outputs": [
        {
          "internalType": "uint256[16]",
          "name": "highest",
          "type": "uint256[16]"
        }
      ],
      "payable": false,
      "stateMutability": "view",
      "type": "function"
    },
    {
      "constant": true,
      "inputs": [],
      "name": "getBidsAddr",
      "outputs": [
        {
          "internalType": "address[16]",
          "name": "a",
          "type": "address[16]"
        }
      ],
      "payable": false,
      "stateMutability": "view",
      "type": "function"
    },
    {
      "constant": true,
      "inputs": [],
      "name": "getBidHighInfo",
      "outputs": [
        {
          "internalType": "uint256",
          "name": "",
          "type": "uint256"
        },
        {
          "internalType": "uint32",
          "name": "",
          "type": "uint32"
        },
        {
          "internalType": "string",
          "name": "",
          "type": "string"
        },
        {
          "internalType": "address",
          "name": "",
          "type": "address"
        }
      ],
      "payable": false,
      "stateMutability": "view",
      "type": "function"
    },
    {
      "constant": false,
      "inputs": [
        {
          "internalType": "uint256",
          "name": "number",
          "type": "uint256"
        }
      ],
      "name": "bid",
      "outputs": [
        {
          "internalType": "bool",
          "name": "",
          "type": "bool"
        }
      ],
      "payable": true,
      "stateMutability": "payable",
      "type": "function"
    },
    {
      "constant": false,
      "inputs": [
        {
          "internalType": "uint256",
          "name": "number",
          "type": "uint256"
        },
        {
          "internalType": "string",
          "name": "host",
          "type": "string"
        }
      ],
      "name": "addAddr",
      "outputs": [
        {
          "internalType": "bool",
          "name": "",
          "type": "bool"
        }
      ],
      "payable": false,
      "stateMutability": "nonpayable",
      "type": "function"
    },
    {
      "constant": true,
      "inputs": [
        {
          "internalType": "uint256",
          "name": "number",
          "type": "uint256"
        }
      ],
      "name": "getAddrs",
      "outputs": [
        {
          "internalType": "string",
          "name": "highest",
          "type": "string"
        },
        {
          "internalType": "address",
          "name": "highAddr",
          "type": "address"
        }
      ],
      "payable": false,
      "stateMutability": "view",
      "type": "function"
    },
    {
      "constant": false,
      "inputs": [
        {
          "internalType": "uint256",
          "name": "number",
          "type": "uint256"
        },
        {
          "internalType": "bool",
          "name": "isWithdraw",
          "type": "bool"
        }
      ],
      "name": "payForWithdraw",
      "outputs": [
        {
          "internalType": "bool",
          "name": "",
          "type": "bool"
        }
      ],
      "payable": true,
      "stateMutability": "payable",
      "type": "function"
    },
    {
      "constant": true,
      "inputs": [
        {
          "internalType": "uint256",
          "name": "number",
          "type": "uint256"
        }
      ],
      "name": "getPayInfo",
      "outputs": [
        {
          "internalType": "bool",
          "name": "",
          "type": "bool"
        }
      ],
      "payable": false,
      "stateMutability": "view",
      "type": "function"
    },
    {
      "constant": true,
      "inputs": [],
      "name": "isGetMoney",
      "outputs": [
        {
          "internalType": "bool",
          "name": "",
          "type": "bool"
        }
      ],
      "payable": false,
      "stateMutability": "view",
      "type": "function"
    },
    {
      "constant": false,
      "inputs": [],
      "name": "getAmount",
      "outputs": [
        {
          "internalType": "bool",
          "name": "",
          "type": "bool"
        }
      ],
      "payable": false,
      "stateMutability": "nonpayable",
      "type": "function"
    },
    {
      "constant": true,
      "inputs": [],
      "name": "getTreeCoins",
      "outputs": [
        {
          "internalType": "uint32[]",
          "name": "",
          "type": "uint32[]"
        }
      ],
      "payable": false,
      "stateMutability": "view",
      "type": "function"
    },
    {
      "constant": false,
      "inputs": [],
      "name": "queryAmount",
      "outputs": [
        {
          "internalType": "uint256",
          "name": "",
          "type": "uint256"
        }
      ],
      "payable": false,
      "stateMutability": "nonpayable",
      "type": "function"
    }
  ],
  "bytecode": "0x60806040523480156200001157600080fd5b506040516200286738038062002867833981810160405260208110156200003757600080fd5b8101908080519060200190929190505050806000806101000a81548173ffffffffffffffffffffffffffffffffffffffff021916908373ffffffffffffffffffffffffffffffffffffffff16021790555033600260016101000a81548173ffffffffffffffffffffffffffffffffffffffff021916908373ffffffffffffffffffffffffffffffffffffffff16021790555060008060009054906101000a900473ffffffffffffffffffffffffffffffffffffffff1673ffffffffffffffffffffffffffffffffffffffff166398d5fdca6040518163ffffffff1660e01b815260040160206040518083038186803b1580156200013357600080fd5b505afa15801562000148573d6000803e3d6000fd5b505050506040513d60208110156200015f57600080fd5b810190808051906020019092919050505090506000809054906101000a900473ffffffffffffffffffffffffffffffffffffffff1673ffffffffffffffffffffffffffffffffffffffff1663957292d16040518163ffffffff1660e01b81526004016102006040518083038186803b158015620001db57600080fd5b505afa158015620001f0573d6000803e3d6000fd5b505050506040513d601f19601f820116820180604052506102008110156200021757600080fd5b8101908091905050600390601062000231929190620003de565b504260018190555060008090505b600380549050811015620003d5576040518060c001604052808381526020013373ffffffffffffffffffffffffffffffffffffffff168152602001600015158152602001600015158152602001600015158152602001604051806020016040528060008152508152506004600060038481548110620002ba57fe5b90600052602060002090600891828204019190066004029054906101000a900463ffffffff1663ffffffff1681526020019081526020016000206000820151816000015560208201518160010160006101000a81548173ffffffffffffffffffffffffffffffffffffffff021916908373ffffffffffffffffffffffffffffffffffffffff16021790555060408201518160010160146101000a81548160ff02191690831515021790555060608201518160010160156101000a81548160ff02191690831515021790555060808201518160010160166101000a81548160ff02191690831515021790555060a0820151816002019080519060200190620003c392919062000495565b5090505080806001019150506200023f565b5050506200057a565b82805482825590600052602060002090600701600890048101928215620004825791602002820160005b838211156200044e57835183826101000a81548163ffffffff021916908363ffffffff160217905550926020019260040160208160030104928301926001030262000408565b8015620004805782816101000a81549063ffffffff02191690556004016020816003010492830192600103026200044e565b505b5090506200049191906200051c565b5090565b828054600181600116156101000203166002900490600052602060002090601f016020900481019282601f10620004d857805160ff191683800117855562000509565b8280016001018555821562000509579182015b8281111562000508578251825591602001919060010190620004eb565b5b50905062000518919062000552565b5090565b6200054f91905b808211156200054b57600081816101000a81549063ffffffff02191690555060010162000523565b5090565b90565b6200057791905b808211156200057357600081600090555060010162000559565b5090565b90565b6122dd806200058a6000396000f3fe6080604052600436106100e85760003560e01c8063667e227e1161008a578063ca86a67e11610059578063ca86a67e146105fb578063d0851a7114610626578063d321fe2914610683578063ecc74558146106b2576100e8565b8063667e227e1461042657806385703f33146104795780639c57c187146104e5578063bf11d31a146105cc576100e8565b80634c386a26116100c65780634c386a26146101b957806354ab69fd1461020c5780635b1695ae1461025f5780635c2e55301461033c576100e8565b8063155f586d146100ed578063369672de14610118578063454a2ab314610173575b600080fd5b3480156100f957600080fd5b50610102610704565b6040518082815260200191505060405180910390f35b34801561012457600080fd5b506101516004803603602081101561013b57600080fd5b810190808035906020019092919050505061070a565b604051808263ffffffff1663ffffffff16815260200191505060405180910390f35b61019f6004803603602081101561018957600080fd5b8101908080359060200190929190505050610741565b604051808215151515815260200191505060405180910390f35b3480156101c557600080fd5b506101f2600480360360208110156101dc57600080fd5b81019080803590602001909291905050506109ec565b604051808215151515815260200191505060405180910390f35b34801561021857600080fd5b50610221610a87565b6040518082601060200280838360005b8381101561024c578082015181840152602081019050610231565b5050505090500191505060405180910390f35b34801561026b57600080fd5b50610274610b17565b604051808581526020018463ffffffff1663ffffffff168152602001806020018373ffffffffffffffffffffffffffffffffffffffff1673ffffffffffffffffffffffffffffffffffffffff168152602001828103825284818151815260200191508051906020019080838360005b838110156102fe5780820151818401526020810190506102e3565b50505050905090810190601f16801561032b5780820380516001836020036101000a031916815260200191505b509550505050505060405180910390f35b34801561034857600080fd5b5061040c6004803603604081101561035f57600080fd5b81019080803590602001909291908035906020019064010000000081111561038657600080fd5b82018360208201111561039857600080fd5b803590602001918460018302840111640100000000831117156103ba57600080fd5b91908080601f016020809104026020016040519081016040528093929190818152602001838380828437600081840152601f19601f820116905080830192505050505050509192919290505050610d88565b604051808215151515815260200191505060405180910390f35b34801561043257600080fd5b5061043b610ef2565b6040518082601060200280838360005b8381101561046657808201518184015260208101905061044b565b5050505090500191505060405180910390f35b34801561048557600080fd5b5061048e610fcc565b6040518080602001828103825283818151815260200191508051906020019060200280838360005b838110156104d15780820151818401526020810190506104b6565b505050509050019250505060405180910390f35b3480156104f157600080fd5b5061051e6004803603602081101561050857600080fd5b8101908080359060200190929190505050611050565b60405180806020018373ffffffffffffffffffffffffffffffffffffffff1673ffffffffffffffffffffffffffffffffffffffff168152602001828103825284818151815260200191508051906020019080838360005b83811015610590578082015181840152602081019050610575565b50505050905090810190601f1680156105bd5780820380516001836020036101000a031916815260200191505b50935050505060405180910390f35b3480156105d857600080fd5b506105e161119d565b604051808215151515815260200191505060405180910390f35b34801561060757600080fd5b5061061061133b565b6040518082815260200191505060405180910390f35b34801561063257600080fd5b5061065f6004803603602081101561064957600080fd5b8101908080359060200190929190505050611af5565b6040518082600481111561066f57fe5b60ff16815260200191505060405180910390f35b34801561068f57600080fd5b50610698611ba0565b604051808215151515815260200191505060405180910390f35b6106ea600480360360408110156106c857600080fd5b8101908080359060200190929190803515159060200190929190505050611e99565b604051808215151515815260200191505060405180910390f35b60015481565b6003818154811061071757fe5b9060005260206000209060089182820401919006600402915054906101000a900463ffffffff1681565b600060076002026001540142111561075857600080fd5b60006001905060008090505b601081101561082657600460006003838154811061077e57fe5b90600052602060002090600891828204019190066004029054906101000a900463ffffffff1663ffffffff16815260200190815260200160002060010160009054906101000a900473ffffffffffffffffffffffffffffffffffffffff1673ffffffffffffffffffffffffffffffffffffffff163373ffffffffffffffffffffffffffffffffffffffff1614156108185760009150610819565b5b8080600101915050610764565b508061083157600080fd5b6004600084815260200190815260200160002060000154341161085357600080fd5b600260019054906101000a900473ffffffffffffffffffffffffffffffffffffffff1673ffffffffffffffffffffffffffffffffffffffff166004600085815260200190815260200160002060010160009054906101000a900473ffffffffffffffffffffffffffffffffffffffff1673ffffffffffffffffffffffffffffffffffffffff1614610972576004600084815260200190815260200160002060010160009054906101000a900473ffffffffffffffffffffffffffffffffffffffff1673ffffffffffffffffffffffffffffffffffffffff166108fc60046000868152602001908152602001600020600001549081150290604051600060405180830381858888f19350505050158015610970573d6000803e3d6000fd5b505b346004600085815260200190815260200160002060000181905550336004600085815260200190815260200160002060010160006101000a81548173ffffffffffffffffffffffffffffffffffffffff021916908373ffffffffffffffffffffffffffffffffffffffff1602179055506001915050919050565b60006004600083815260200190815260200160002060010160009054906101000a900473ffffffffffffffffffffffffffffffffffffffff1673ffffffffffffffffffffffffffffffffffffffff163373ffffffffffffffffffffffffffffffffffffffff1614610a5c57600080fd5b6004600083815260200190815260200160002060010160159054906101000a900460ff169050919050565b610a8f6121bd565b60008090505b600380549050811015610b13576004600060038381548110610ab357fe5b90600052602060002090600891828204019190066004029054906101000a900463ffffffff1663ffffffff16815260200190815260200160002060000154828260108110610afd57fe5b6020020181815250508080600101915050610a95565b5090565b6000806060600080600090505b6010811015610d5a576004600060038381548110610b3e57fe5b90600052602060002090600891828204019190066004029054906101000a900463ffffffff1663ffffffff16815260200190815260200160002060010160009054906101000a900473ffffffffffffffffffffffffffffffffffffffff1673ffffffffffffffffffffffffffffffffffffffff163373ffffffffffffffffffffffffffffffffffffffff161415610d4d576004600060038381548110610be057fe5b90600052602060002090600891828204019190066004029054906101000a900463ffffffff1663ffffffff1681526020019081526020016000206000015460038281548110610c2b57fe5b90600052602060002090600891828204019190066004029054906101000a900463ffffffff166004600060038581548110610c6257fe5b90600052602060002090600891828204019190066004029054906101000a900463ffffffff1663ffffffff16815260200190815260200160002060020133818054600181600116156101000203166002900480601f016020809104026020016040519081016040528092919081815260200182805460018160011615610100020316600290048015610d355780601f10610d0a57610100808354040283529160200191610d35565b820191906000526020600020905b815481529060010190602001808311610d1857829003601f168201915b50505050509150809050945094509450945050610d82565b8080600101915050610b24565b5060008033829250819150604051806020016040528060008152509080905093509350935093505b90919293565b60006007600202600154014211610d9e57600080fd5b600a60020260015401421115610db357600080fd5b6004600084815260200190815260200160002060010160009054906101000a900473ffffffffffffffffffffffffffffffffffffffff1673ffffffffffffffffffffffffffffffffffffffff163373ffffffffffffffffffffffffffffffffffffffff1614610e2157600080fd5b7fa95e6e2a182411e7a6f9ed114a85c3761d87f9b8f453d842c71235aa64fff99f826040518080602001828103825283818151815260200191508051906020019080838360005b83811015610e83578082015181840152602081019050610e68565b50505050905090810190601f168015610eb05780820380516001836020036101000a031916815260200191505b509250505060405180910390a181600460008581526020019081526020016000206002019080519060200190610ee79291906121e0565b506001905092915050565b610efa612260565b60008090505b6010811015610fc8576004600060038381548110610f1a57fe5b90600052602060002090600891828204019190066004029054906101000a900463ffffffff1663ffffffff16815260200190815260200160002060010160009054906101000a900473ffffffffffffffffffffffffffffffffffffffff16828260108110610f8457fe5b602002019073ffffffffffffffffffffffffffffffffffffffff16908173ffffffffffffffffffffffffffffffffffffffff16815250508080600101915050610f00565b5090565b6060600380548060200260200160405190810160405280929190818152602001828054801561104657602002820191906000526020600020906000905b82829054906101000a900463ffffffff1663ffffffff16815260200190600401906020826003010492830192600103820291508084116110095790505b5050505050905090565b60606000600260019054906101000a900473ffffffffffffffffffffffffffffffffffffffff1673ffffffffffffffffffffffffffffffffffffffff163373ffffffffffffffffffffffffffffffffffffffff16146110ae57600080fd5b600460008481526020019081526020016000206002018054600181600116156101000203166002900480601f0160208091040260200160405190810160405280929190818152602001828054600181600116156101000203166002900480156111585780601f1061112d57610100808354040283529160200191611158565b820191906000526020600020905b81548152906001019060200180831161113b57829003601f168201915b505050505091506004600084815260200190815260200160002060010160009054906101000a900473ffffffffffffffffffffffffffffffffffffffff169050915091565b6000600260019054906101000a900473ffffffffffffffffffffffffffffffffffffffff1673ffffffffffffffffffffffffffffffffffffffff163373ffffffffffffffffffffffffffffffffffffffff16141561120c57600260009054906101000a900460ff169050611338565b60008090505b60038054905081101561133257600460006003838154811061123057fe5b90600052602060002090600891828204019190066004029054906101000a900463ffffffff1663ffffffff16815260200190815260200160002060010160009054906101000a900473ffffffffffffffffffffffffffffffffffffffff1673ffffffffffffffffffffffffffffffffffffffff163373ffffffffffffffffffffffffffffffffffffffff1614156113255760046000600383815481106112d257fe5b90600052602060002090600891828204019190066004029054906101000a900463ffffffff1663ffffffff16815260200190815260200160002060010160169054906101000a900460ff16915050611338565b8080600101915050611212565b50600090505b90565b6000806000611348611fe9565b1580156113a25750600260019054906101000a900473ffffffffffffffffffffffffffffffffffffffff1673ffffffffffffffffffffffffffffffffffffffff163373ffffffffffffffffffffffffffffffffffffffff16145b1561163f5760008090505b600380549050811015611625573373ffffffffffffffffffffffffffffffffffffffff1660046000600384815481106113e257fe5b90600052602060002090600891828204019190066004029054906101000a900463ffffffff1663ffffffff16815260200190815260200160002060010160009054906101000a900473ffffffffffffffffffffffffffffffffffffffff1673ffffffffffffffffffffffffffffffffffffffff16141561146157611618565b600460006003838154811061147257fe5b90600052602060002090600891828204019190066004029054906101000a900463ffffffff1663ffffffff16815260200190815260200160002060010160159054906101000a900460ff161580611522575060046000600383815481106114d557fe5b90600052602060002090600891828204019190066004029054906101000a900463ffffffff1663ffffffff16815260200190815260200160002060010160149054906101000a900460ff16155b156115c357600a6009600460006003858154811061153c57fe5b90600052602060002090600891828204019190066004029054906101000a900463ffffffff1663ffffffff16815260200190815260200160002060000154028161158257fe5b04830192507f60276b85cb0e3a9ed388e2d12097d0dcd60def0b82a74ba8f1b4b65a022c2da7836040518082815260200191505060405180910390a1611617565b60046000600383815481106115d457fe5b90600052602060002090600891828204019190066004029054906101000a900463ffffffff1663ffffffff16815260200190815260200160002060000154820191505b5b80806001019150506113ad565b508082111561163a5780820392505050611af2565b611aeb565b611647611fe9565b1580156116a25750600260019054906101000a900473ffffffffffffffffffffffffffffffffffffffff1673ffffffffffffffffffffffffffffffffffffffff163373ffffffffffffffffffffffffffffffffffffffff1614155b1561189c5760008090505b6003805490508110156118965760046000600383815481106116cb57fe5b90600052602060002090600891828204019190066004029054906101000a900463ffffffff1663ffffffff16815260200190815260200160002060010160009054906101000a900473ffffffffffffffffffffffffffffffffffffffff1673ffffffffffffffffffffffffffffffffffffffff163373ffffffffffffffffffffffffffffffffffffffff16141561188957600460006003838154811061176d57fe5b90600052602060002090600891828204019190066004029054906101000a900463ffffffff1663ffffffff16815260200190815260200160002060010160159054906101000a900460ff16801561181d575060046000600383815481106117d057fe5b90600052602060002090600891828204019190066004029054906101000a900463ffffffff1663ffffffff16815260200190815260200160002060010160149054906101000a900460ff16155b1561188857600a600b600460006003858154811061183757fe5b90600052602060002090600891828204019190066004029054906101000a900463ffffffff1663ffffffff16815260200190815260200160002060000154028161187d57fe5b049350505050611af2565b5b80806001019150506116ad565b50611aea565b6118a4611fe9565b80156118fe5750600260019054906101000a900473ffffffffffffffffffffffffffffffffffffffff1673ffffffffffffffffffffffffffffffffffffffff163373ffffffffffffffffffffffffffffffffffffffff1614155b15611ae95760008090505b600380549050811015611ae757600460006003838154811061192757fe5b90600052602060002090600891828204019190066004029054906101000a900463ffffffff1663ffffffff16815260200190815260200160002060010160009054906101000a900473ffffffffffffffffffffffffffffffffffffffff1673ffffffffffffffffffffffffffffffffffffffff163373ffffffffffffffffffffffffffffffffffffffff161415611ada5760046000600383815481106119c957fe5b90600052602060002090600891828204019190066004029054906101000a900463ffffffff1663ffffffff16815260200190815260200160002060010160159054906101000a900460ff168015611a7857506004600060038381548110611a2c57fe5b90600052602060002090600891828204019190066004029054906101000a900463ffffffff1663ffffffff16815260200190815260200160002060010160149054906101000a900460ff165b15611ad95760026004600060038481548110611a9057fe5b90600052602060002090600891828204019190066004029054906101000a900463ffffffff1663ffffffff16815260200190815260200160002060000154029350505050611af2565b5b8080600101915050611909565b505b5b5b6000925050505b90565b60006007600202600154018211611b0f5760009050611b9b565b60076002026001540182118015611b2e5750600a600202600154018211155b15611b3c5760019050611b9b565b600a6002026001540182118015611b5b57506018600202600154018211155b15611b695760029050611b9b565b60186002026001540182118015611b885750601e600202600154018211155b15611b965760039050611b9b565b600490505b919050565b6000601e600202600154014211611bb657600080fd5b6000611bc061133b565b9050600081118015611c1f5750600260019054906101000a900473ffffffffffffffffffffffffffffffffffffffff1673ffffffffffffffffffffffffffffffffffffffff163373ffffffffffffffffffffffffffffffffffffffff16145b8015611c385750600260009054906101000a900460ff16155b15611ca9576001600260006101000a81548160ff0219169083151502179055503373ffffffffffffffffffffffffffffffffffffffff166108fc829081150290604051600060405180830381858888f19350505050158015611c9e573d6000803e3d6000fd5b506001915050611e96565b6000811115611e945760008090505b600380549050811015611e92576004600060038381548110611cd657fe5b90600052602060002090600891828204019190066004029054906101000a900463ffffffff1663ffffffff16815260200190815260200160002060010160009054906101000a900473ffffffffffffffffffffffffffffffffffffffff1673ffffffffffffffffffffffffffffffffffffffff163373ffffffffffffffffffffffffffffffffffffffff16148015611dc757506004600060038381548110611d7a57fe5b90600052602060002090600891828204019190066004029054906101000a900463ffffffff1663ffffffff16815260200190815260200160002060010160169054906101000a900460ff16155b15611e855760016004600060038481548110611ddf57fe5b90600052602060002090600891828204019190066004029054906101000a900463ffffffff1663ffffffff16815260200190815260200160002060010160166101000a81548160ff0219169083151502179055503373ffffffffffffffffffffffffffffffffffffffff166108fc839081150290604051600060405180830381858888f19350505050158015611e79573d6000803e3d6000fd5b50600192505050611e96565b8080600101915050611cb8565b505b505b90565b60006018600202600154014211611eaf57600080fd5b601e60020260015401421115611ec457600080fd5b60046000848152602001908152602001600020600001543414611ee657600080fd5b6004600084815260200190815260200160002060010160009054906101000a900473ffffffffffffffffffffffffffffffffffffffff1673ffffffffffffffffffffffffffffffffffffffff163373ffffffffffffffffffffffffffffffffffffffff1614611f5457600080fd5b6004600084815260200190815260200160002060010160159054906101000a900460ff1615611f8257600080fd5b816004600085815260200190815260200160002060010160146101000a81548160ff02191690831515021790555060016004600085815260200190815260200160002060010160156101000a81548160ff0219169083151502179055506001905092915050565b60008060009050600080905060008090505b6003805490508110156121b257600460006003838154811061201957fe5b90600052602060002090600891828204019190066004029054906101000a900463ffffffff1663ffffffff16815260200190815260200160002060010160159054906101000a900460ff1680156120c85750600460006003838154811061207c57fe5b90600052602060002090600891828204019190066004029054906101000a900463ffffffff1663ffffffff16815260200190815260200160002060010160149054906101000a900460ff165b156120d65781806001019250505b60046000600383815481106120e757fe5b90600052602060002090600891828204019190066004029054906101000a900463ffffffff1663ffffffff16815260200190815260200160002060010160159054906101000a900460ff1680156121975750600460006003838154811061214a57fe5b90600052602060002090600891828204019190066004029054906101000a900463ffffffff1663ffffffff16815260200190815260200160002060010160149054906101000a900460ff16155b156121a55782806001019350505b8080600101915050611ffb565b508181119250505090565b604051806102000160405280601090602082028038833980820191505090505090565b828054600181600116156101000203166002900490600052602060002090601f016020900481019282601f1061222157805160ff191683800117855561224f565b8280016001018555821561224f579182015b8281111561224e578251825591602001919060010190612233565b5b50905061225c9190612283565b5090565b604051806102000160405280601090602082028038833980820191505090505090565b6122a591905b808211156122a1576000816000905550600101612289565b5090565b9056fea265627a7a72315820680f2ca59cafa9a3ab130f31a7c81d3abfe8f82c30826b60bfa9abd45bdf81f264736f6c63430005100032",
  "source": "pragma solidity >=0.4.22 <0.7.0;\n// pragma experimental ABIEncoderV2;\nimport \"./TreeCoin.sol\";\n\ncontract Auction {\n    TreeCoin treeCoin;\n    uint public auctionTime; //\n    uint constant total = 16;\n    // uint constant day = 3600 * 24;\n    uint constant day = 2;\n    bool isFarmerGetMoney;\n    struct Bid {\n        uint256 highestPrice; //\n        address payable addr; //\n        bool isWithdraw;//\n        bool isJudge; //\n        bool isGetMoney; //\n        string host;\n\n    }\n    \n    address farmer;\n\tenum Process { free, addrConfirm, bidsConfirm, withdrawConfirm, end }\n    uint32[] public treeNumbers;\n    mapping(uint => Bid) bids; //\n    \n    event ProcessEvent(uint256 _value);\n    event LogString(string _value);\n    event BidEvent(uint256 _value, address _addr);\n\n    constructor(address tc) public {\n        treeCoin = TreeCoin(tc);\n        farmer = msg.sender;\n        uint256 price = treeCoin.getPrice();\n        treeNumbers = treeCoin.getInitTrcNumbers();\n        auctionTime = now;\n        //, farmer\n        for(uint i = 0; i < treeNumbers.length; i++) {\n            // treeNumbers.push(treeCoin.initTrcs[i].number);\n            bids[treeNumbers[i]] = Bid(price, msg.sender, false, false, false, \"\");\n        }\n    }\n\n    //\n    //\n    modifier free() {\n        require(now <= auctionTime + day * 7);\n        _;\n    }\n    //\n    modifier addressConfirm() {\n        require(now > auctionTime + day * 7);\n        require(now <= auctionTime + day * 10);\n        _;\n    }\n    //\n    modifier bidsConfirm() {\n        require(now > auctionTime + day * 10);\n        require(now <= auctionTime + day * 24);\n        _;\n    }\n    //\n    modifier withdrawConfirm() {\n        require(now > auctionTime + day * 24);\n        require(now <= auctionTime + day * 30);\n        _;\n    }\n    //\n    modifier getMoney() {\n        require(now > auctionTime + day * 30);\n        _;\n    }\n\n    //\n    modifier allowBid() {\n        bool isAllow = true;\n        for (uint i=0; i < total; i++) {\n            if (msg.sender == bids[treeNumbers[i]].addr) {\n                isAllow = false;\n                continue;\n            }\n        }\n        require(isAllow);\n        _;\n\n    }\n\n    //\n    function getProcess(uint256 time) public view returns (Process){\n        if (time <= auctionTime + day * 7) return Process.free;\n        else if (time > auctionTime + day * 7 && time <= auctionTime + day * 10) return Process.addrConfirm;\n        else if (time > auctionTime + day * 10 && time <= auctionTime + day * 24) return Process.bidsConfirm;\n        else if (time > auctionTime + day * 24 && time <= auctionTime + day * 30) return Process.withdrawConfirm;\n        return Process.end;\n    }\n\n    //\n    function getBidsHighest() public view returns(uint256[total] memory highest){\n        for (uint i=0; i < treeNumbers.length; i++) {\n            highest[i] = bids[treeNumbers[i]].highestPrice;\n        }\n    }\n\n    //\n    function getBidsAddr() public view returns (address[total] memory a){\n        for (uint i=0; i < total; i++) {\n            a[i] = bids[treeNumbers[i]].addr;\n        }\n    }\n\n    //\n    function getBidHighInfo() public view returns(uint256, uint32, string memory, address) {\n        for (uint i=0; i < total; i++) {\n            if (msg.sender == bids[treeNumbers[i]].addr) {\n                return (bids[treeNumbers[i]].highestPrice, treeNumbers[i], bids[treeNumbers[i]].host, msg.sender);\n            }\n        }\n        return (0,0,\"\", msg.sender);\n    }\n\n    //\n    function bid(uint number) public free allowBid payable returns (bool){\n        require(msg.value > bids[number].highestPrice);\n        //\n        if (bids[number].addr != farmer) {\n            bids[number].addr.transfer(bids[number].highestPrice);\n        }\n        bids[number].highestPrice = msg.value;\n        bids[number].addr = msg.sender;\n        return true;\n    }\n\n    //\n    function addAddr(uint number, string memory host) public addressConfirm returns (bool){\n        require(msg.sender == bids[number].addr);\n        emit LogString(host);\n        bids[number].host = host;\n        return true;\n    }\n\n    //farmer   \n    function getAddrs(uint number) public view returns (string memory highest, address highAddr){\n        require(msg.sender == farmer);\n        highest = bids[number].host;\n        highAddr = bids[number].addr;\n    }\n    \n    // \n    function payForWithdraw(uint number, bool isWithdraw) withdrawConfirm public payable returns(bool) {\n        require(msg.value == bids[number].highestPrice);\n        require(msg.sender == bids[number].addr);\n        require(!bids[number].isJudge);\n        bids[number].isWithdraw = isWithdraw;\n        bids[number].isJudge = true;\n        return true;\n    }\n\n    //\n    function getPayInfo(uint number) public view returns(bool) {\n        require(msg.sender == bids[number].addr);\n        return bids[number].isJudge;\n    }\n\n    //\n    function isGetMoney() public view returns (bool) {\n        if (msg.sender == farmer) return isFarmerGetMoney;\n        else {\n            for (uint i=0; i < treeNumbers.length; i++) {\n                if (msg.sender == bids[treeNumbers[i]].addr) {\n                    return bids[treeNumbers[i]].isGetMoney;\n                }\n            }\n            return false;\n        }\n    }\n    //\n    function getAmount() getMoney public returns (bool) {\n        uint256 amount = queryAmount();\n        if (amount > 0 && msg.sender == farmer && !isFarmerGetMoney) {\n            isFarmerGetMoney = true;\n            msg.sender.transfer(amount);\n            return true;\n        }\n        if (amount > 0) {\n            for (uint i=0; i < treeNumbers.length; i++) {\n                if (msg.sender == bids[treeNumbers[i]].addr && !bids[treeNumbers[i]].isGetMoney) {\n                    bids[treeNumbers[i]].isGetMoney = true;\n                    msg.sender.transfer(amount);\n                    return true;\n                }\n            }\n        }\n\n    }\n\n    //\n    function _isWithdraw() private view returns (bool) {\n        uint unWithdrawCount = 0;\n        uint withdrawCount = 0;\n        for (uint i=0; i < treeNumbers.length; i++) {\n            if (bids[treeNumbers[i]].isJudge && bids[treeNumbers[i]].isWithdraw) {\n                withdrawCount ++;\n            }\n            if (bids[treeNumbers[i]].isJudge && !bids[treeNumbers[i]].isWithdraw) {\n                unWithdrawCount ++;\n            }\n        }\n        return withdrawCount > unWithdrawCount;\n    }\n\n    //\n    function getTreeCoins() public view returns (uint32[] memory) {\n        return treeNumbers; \n    }\n\n    //\n    function queryAmount() public returns (uint256) {\n        //farmer   90%, 10%\n        //judge  10% judge \n        //\n        uint256 amount;\n        uint256 decreaseAmount;\n        if (!_isWithdraw() && (msg.sender == farmer)) {\n            for (uint i=0; i < treeNumbers.length; i++) {\n                if (bids[treeNumbers[i]].addr == msg.sender) {\n                    continue;    \n                } else if ((!bids[treeNumbers[i]].isJudge || !bids[treeNumbers[i]].isWithdraw)) {\n                    amount += bids[treeNumbers[i]].highestPrice * 9 / 10;\n                    emit ProcessEvent(amount);\n                } else {\n                    decreaseAmount += bids[treeNumbers[i]].highestPrice;\n                }\n            }\n            if (amount > decreaseAmount) {\n                return (amount - decreaseAmount);\n            }\n        } else if (!_isWithdraw() && (msg.sender != farmer)) {\n            for (uint i=0; i < treeNumbers.length; i++) {\n                if(msg.sender == bids[treeNumbers[i]].addr) {\n                    if (bids[treeNumbers[i]].isJudge && !bids[treeNumbers[i]].isWithdraw) {\n                        return (bids[treeNumbers[i]].highestPrice*11 / 10);\n                    }\n                }\n            }\n        } else if (_isWithdraw() && (msg.sender != farmer)) {\n            for (uint i=0; i < treeNumbers.length; i++) {\n                if(msg.sender == bids[treeNumbers[i]].addr) {\n                    if (bids[treeNumbers[i]].isJudge && bids[treeNumbers[i]].isWithdraw) {\n                        return (bids[treeNumbers[i]].highestPrice*2);\n                    }\n                }\n            }\n        }\n        return 0;\n    }\n}\n",
  "sourcePath": "/home/f/codes/bcs/farmer/contracts/Auction.sol",
  "compiler": {
    "name": "solc",
    "version": "0.5.16+commit.9c3226ce.Emscripten.clang"
  },
  "schemaVersion": "3.3.1",
  "updatedAt": "2020-12-10T10:07:04.342Z",
  "networkType": "ethereum",
  "devdoc": {
    "methods": {}
  },
  "userdoc": {
    "methods": {}
  }
}