{
  "contractName": "Auction",
  "abi": [
    {
      "inputs": [
        {
          "internalType": "address",
          "name": "tc",
          "type": "address"
        }
      ],
      "payable": false,
      "stateMutability": "nonpayable",
      "type": "constructor"
    },
    {
      "constant": true,
      "inputs": [],
      "name": "auctionTime",
      "outputs": [
        {
          "internalType": "uint256",
          "name": "",
          "type": "uint256"
        }
      ],
      "payable": false,
      "stateMutability": "view",
      "type": "function"
    },
    {
      "constant": true,
      "inputs": [
        {
          "internalType": "uint256",
          "name": "",
          "type": "uint256"
        }
      ],
      "name": "treeNumbers",
      "outputs": [
        {
          "internalType": "uint32",
          "name": "",
          "type": "uint32"
        }
      ],
      "payable": false,
      "stateMutability": "view",
      "type": "function"
    },
    {
      "constant": true,
      "inputs": [],
      "name": "getProcess",
      "outputs": [
        {
          "internalType": "enum Auction.Process",
          "name": "",
          "type": "uint8"
        }
      ],
      "payable": false,
      "stateMutability": "view",
      "type": "function"
    },
    {
      "constant": true,
      "inputs": [],
      "name": "getBidsHighest",
      "outputs": [
        {
          "internalType": "uint256[16]",
          "name": "highest",
          "type": "uint256[16]"
        }
      ],
      "payable": false,
      "stateMutability": "view",
      "type": "function"
    },
    {
      "constant": true,
      "inputs": [],
      "name": "getBidsAddr",
      "outputs": [
        {
          "internalType": "address[16]",
          "name": "a",
          "type": "address[16]"
        }
      ],
      "payable": false,
      "stateMutability": "view",
      "type": "function"
    },
    {
      "constant": false,
      "inputs": [
        {
          "internalType": "uint256",
          "name": "number",
          "type": "uint256"
        }
      ],
      "name": "bid",
      "outputs": [
        {
          "internalType": "bool",
          "name": "",
          "type": "bool"
        }
      ],
      "payable": true,
      "stateMutability": "payable",
      "type": "function"
    },
    {
      "constant": false,
      "inputs": [
        {
          "internalType": "uint256",
          "name": "number",
          "type": "uint256"
        },
        {
          "internalType": "string",
          "name": "host",
          "type": "string"
        }
      ],
      "name": "addAddr",
      "outputs": [
        {
          "internalType": "bool",
          "name": "",
          "type": "bool"
        }
      ],
      "payable": false,
      "stateMutability": "nonpayable",
      "type": "function"
    },
    {
      "constant": false,
      "inputs": [
        {
          "internalType": "uint256",
          "name": "number",
          "type": "uint256"
        },
        {
          "internalType": "bool",
          "name": "isWithdraw",
          "type": "bool"
        }
      ],
      "name": "payForWithdraw",
      "outputs": [
        {
          "internalType": "bool",
          "name": "",
          "type": "bool"
        }
      ],
      "payable": true,
      "stateMutability": "payable",
      "type": "function"
    },
    {
      "constant": false,
      "inputs": [],
      "name": "getAmount",
      "outputs": [
        {
          "internalType": "bool",
          "name": "",
          "type": "bool"
        }
      ],
      "payable": false,
      "stateMutability": "nonpayable",
      "type": "function"
    },
    {
      "constant": true,
      "inputs": [],
      "name": "getTreeCoins",
      "outputs": [
        {
          "internalType": "uint32[]",
          "name": "",
          "type": "uint32[]"
        }
      ],
      "payable": false,
      "stateMutability": "view",
      "type": "function"
    }
  ],
  "bytecode": "0x60806040523480156200001157600080fd5b5060405162001bca38038062001bca833981810160405260208110156200003757600080fd5b8101908080519060200190929190505050806000806101000a81548173ffffffffffffffffffffffffffffffffffffffff021916908373ffffffffffffffffffffffffffffffffffffffff16021790555033600260016101000a81548173ffffffffffffffffffffffffffffffffffffffff021916908373ffffffffffffffffffffffffffffffffffffffff16021790555060008060009054906101000a900473ffffffffffffffffffffffffffffffffffffffff1673ffffffffffffffffffffffffffffffffffffffff166398d5fdca6040518163ffffffff1660e01b815260040160206040518083038186803b1580156200013357600080fd5b505afa15801562000148573d6000803e3d6000fd5b505050506040513d60208110156200015f57600080fd5b810190808051906020019092919050505090506000809054906101000a900473ffffffffffffffffffffffffffffffffffffffff1673ffffffffffffffffffffffffffffffffffffffff1663957292d16040518163ffffffff1660e01b81526004016102006040518083038186803b158015620001db57600080fd5b505afa158015620001f0573d6000803e3d6000fd5b505050506040513d601f19601f820116820180604052506102008110156200021757600080fd5b8101908091905050600390601062000231929190620003ae565b5060008090505b600380549050811015620003a5576040518060a001604052808381526020013373ffffffffffffffffffffffffffffffffffffffff168152602001600015158152602001600015158152602001604051806020016040528060008152508152506004600060038481548110620002aa57fe5b90600052602060002090600891828204019190066004029054906101000a900463ffffffff1663ffffffff1681526020019081526020016000206000820151816000015560208201518160010160006101000a81548173ffffffffffffffffffffffffffffffffffffffff021916908373ffffffffffffffffffffffffffffffffffffffff16021790555060408201518160010160146101000a81548160ff02191690831515021790555060608201518160010160156101000a81548160ff02191690831515021790555060808201518160020190805190602001906200039392919062000465565b50905050808060010191505062000238565b5050506200054a565b82805482825590600052602060002090600701600890048101928215620004525791602002820160005b838211156200041e57835183826101000a81548163ffffffff021916908363ffffffff1602179055509260200192600401602081600301049283019260010302620003d8565b8015620004505782816101000a81549063ffffffff02191690556004016020816003010492830192600103026200041e565b505b509050620004619190620004ec565b5090565b828054600181600116156101000203166002900490600052602060002090601f016020900481019282601f10620004a857805160ff1916838001178555620004d9565b82800160010185558215620004d9579182015b82811115620004d8578251825591602001919060010190620004bb565b5b509050620004e8919062000522565b5090565b6200051f91905b808211156200051b57600081816101000a81549063ffffffff021916905550600101620004f3565b5090565b90565b6200054791905b808211156200054357600081600090555060010162000529565b5090565b90565b611670806200055a6000396000f3fe6080604052600436106100915760003560e01c8063667e227e11610059578063667e227e1461029f57806385703f33146102f2578063d321fe291461035e578063dc2d9af01461038d578063ecc74558146103c657610091565b8063155f586d14610096578063369672de146100c1578063454a2ab31461011c57806354ab69fd146101625780635c2e5530146101b5575b600080fd5b3480156100a257600080fd5b506100ab610418565b6040518082815260200191505060405180910390f35b3480156100cd57600080fd5b506100fa600480360360208110156100e457600080fd5b810190808035906020019092919050505061041e565b604051808263ffffffff1663ffffffff16815260200191505060405180910390f35b6101486004803603602081101561013257600080fd5b8101908080359060200190929190505050610455565b604051808215151515815260200191505060405180910390f35b34801561016e57600080fd5b50610177610703565b6040518082601060200280838360005b838110156101a2578082015181840152602081019050610187565b5050505090500191505060405180910390f35b3480156101c157600080fd5b50610285600480360360408110156101d857600080fd5b8101908080359060200190929190803590602001906401000000008111156101ff57600080fd5b82018360208201111561021157600080fd5b8035906020019184600183028401116401000000008311171561023357600080fd5b91908080601f016020809104026020016040519081016040528093929190818152602001838380828437600081840152601f19601f820116905080830192505050505050509192919290505050610793565b604051808215151515815260200191505060405180910390f35b3480156102ab57600080fd5b506102b461085f565b6040518082601060200280838360005b838110156102df5780820151818401526020810190506102c4565b5050505090500191505060405180910390f35b3480156102fe57600080fd5b50610307610939565b6040518080602001828103825283818151815260200191508051906020019060200280838360005b8381101561034a57808201518184015260208101905061032f565b505050509050019250505060405180910390f35b34801561036a57600080fd5b506103736109bd565b604051808215151515815260200191505060405180910390f35b34801561039957600080fd5b506103a2611179565b604051808260048111156103b257fe5b60ff16815260200191505060405180910390f35b6103fe600480360360408110156103dc57600080fd5b810190808035906020019092919080351515906020019092919050505061121b565b604051808215151515815260200191505060405180910390f35b60015481565b6003818154811061042b57fe5b9060005260206000209060089182820401919006600402915054906101000a900463ffffffff1681565b600062093a806001540142111561046b57600080fd5b60006001905060008090505b60038054905081101561053d57600460006003838154811061049557fe5b90600052602060002090600891828204019190066004029054906101000a900463ffffffff1663ffffffff16815260200190815260200160002060010160009054906101000a900473ffffffffffffffffffffffffffffffffffffffff1673ffffffffffffffffffffffffffffffffffffffff163373ffffffffffffffffffffffffffffffffffffffff16141561052f5760009150610530565b5b8080600101915050610477565b508061054857600080fd5b6004600084815260200190815260200160002060000154341161056a57600080fd5b600260019054906101000a900473ffffffffffffffffffffffffffffffffffffffff1673ffffffffffffffffffffffffffffffffffffffff166004600085815260200190815260200160002060010160009054906101000a900473ffffffffffffffffffffffffffffffffffffffff1673ffffffffffffffffffffffffffffffffffffffff1614610689576004600084815260200190815260200160002060010160009054906101000a900473ffffffffffffffffffffffffffffffffffffffff1673ffffffffffffffffffffffffffffffffffffffff166108fc60046000868152602001908152602001600020600001549081150290604051600060405180830381858888f19350505050158015610687573d6000803e3d6000fd5b505b346004600085815260200190815260200160002060000181905550336004600085815260200190815260200160002060010160006101000a81548173ffffffffffffffffffffffffffffffffffffffff021916908373ffffffffffffffffffffffffffffffffffffffff1602179055506001915050919050565b61070b611550565b60008090505b60038054905081101561078f57600460006003838154811061072f57fe5b90600052602060002090600891828204019190066004029054906101000a900463ffffffff1663ffffffff1681526020019081526020016000206000015482826010811061077957fe5b6020020181815250508080600101915050610711565b5090565b600062093a806001540142116107a857600080fd5b620d2f00600154014211156107bc57600080fd5b6004600084815260200190815260200160002060010160009054906101000a900473ffffffffffffffffffffffffffffffffffffffff1673ffffffffffffffffffffffffffffffffffffffff163373ffffffffffffffffffffffffffffffffffffffff161461082a57600080fd5b81600460008581526020019081526020016000206002019080519060200190610854929190611573565b506001905092915050565b6108676115f3565b60008090505b601081101561093557600460006003838154811061088757fe5b90600052602060002090600891828204019190066004029054906101000a900463ffffffff1663ffffffff16815260200190815260200160002060010160009054906101000a900473ffffffffffffffffffffffffffffffffffffffff168282601081106108f157fe5b602002019073ffffffffffffffffffffffffffffffffffffffff16908173ffffffffffffffffffffffffffffffffffffffff1681525050808060010191505061086d565b5090565b606060038054806020026020016040519081016040528092919081815260200182805480156109b357602002820191906000526020600020906000905b82829054906101000a900463ffffffff1663ffffffff16815260200190600401906020826003010492830192600103820291508084116109765790505b5050505050905090565b600062278d006001540142116109d257600080fd5b6000806109dd611369565b158015610a375750600260019054906101000a900473ffffffffffffffffffffffffffffffffffffffff1673ffffffffffffffffffffffffffffffffffffffff163373ffffffffffffffffffffffffffffffffffffffff16145b15610c335760008090505b600380549050811015610bdb576004600060038381548110610a6057fe5b90600052602060002090600891828204019190066004029054906101000a900463ffffffff1663ffffffff16815260200190815260200160002060010160159054906101000a900460ff161580610b1057506004600060038381548110610ac357fe5b90600052602060002090600891828204019190066004029054906101000a900463ffffffff1663ffffffff16815260200190815260200160002060010160149054906101000a900460ff16155b15610b7a57600a60096004600060038581548110610b2a57fe5b90600052602060002090600891828204019190066004029054906101000a900463ffffffff1663ffffffff168152602001908152602001600020600001540281610b7057fe5b0483019250610bce565b6004600060038381548110610b8b57fe5b90600052602060002090600891828204019190066004029054906101000a900463ffffffff1663ffffffff16815260200190815260200160002060000154820191505b8080600101915050610a42565b5080821115610c2e573373ffffffffffffffffffffffffffffffffffffffff166108fc8284039081150290604051600060405180830381858888f19350505050158015610c2c573d6000803e3d6000fd5b505b61116f565b610c3b611369565b158015610c965750600260019054906101000a900473ffffffffffffffffffffffffffffffffffffffff1673ffffffffffffffffffffffffffffffffffffffff163373ffffffffffffffffffffffffffffffffffffffff1614155b15610ed85760008090505b600380549050811015610ed2576004600060038381548110610cbf57fe5b90600052602060002090600891828204019190066004029054906101000a900463ffffffff1663ffffffff16815260200190815260200160002060010160009054906101000a900473ffffffffffffffffffffffffffffffffffffffff1673ffffffffffffffffffffffffffffffffffffffff163373ffffffffffffffffffffffffffffffffffffffff161415610ec5576004600060038381548110610d6157fe5b90600052602060002090600891828204019190066004029054906101000a900463ffffffff1663ffffffff16815260200190815260200160002060010160159054906101000a900460ff168015610e1157506004600060038381548110610dc457fe5b90600052602060002090600891828204019190066004029054906101000a900463ffffffff1663ffffffff16815260200190815260200160002060010160149054906101000a900460ff16155b15610ec4573373ffffffffffffffffffffffffffffffffffffffff166108fc600a600b6004600060038781548110610e4557fe5b90600052602060002090600891828204019190066004029054906101000a900463ffffffff1663ffffffff168152602001908152602001600020600001540281610e8b57fe5b049081150290604051600060405180830381858888f19350505050158015610eb7573d6000803e3d6000fd5b5060019350505050611176565b5b8080600101915050610ca1565b5061116e565b610ee0611369565b8015610f3a5750600260019054906101000a900473ffffffffffffffffffffffffffffffffffffffff1673ffffffffffffffffffffffffffffffffffffffff163373ffffffffffffffffffffffffffffffffffffffff1614155b1561116d5760008090505b60038054905081101561116b576004600060038381548110610f6357fe5b90600052602060002090600891828204019190066004029054906101000a900463ffffffff1663ffffffff16815260200190815260200160002060010160009054906101000a900473ffffffffffffffffffffffffffffffffffffffff1673ffffffffffffffffffffffffffffffffffffffff163373ffffffffffffffffffffffffffffffffffffffff16141561115e57600460006003838154811061100557fe5b90600052602060002090600891828204019190066004029054906101000a900463ffffffff1663ffffffff16815260200190815260200160002060010160159054906101000a900460ff1680156110b45750600460006003838154811061106857fe5b90600052602060002090600891828204019190066004029054906101000a900463ffffffff1663ffffffff16815260200190815260200160002060010160149054906101000a900460ff165b1561115d573373ffffffffffffffffffffffffffffffffffffffff166108fc600260046000600386815481106110e657fe5b90600052602060002090600891828204019190066004029054906101000a900463ffffffff1663ffffffff16815260200190815260200160002060000154029081150290604051600060405180830381858888f19350505050158015611150573d6000803e3d6000fd5b5060019350505050611176565b5b8080600101915050610f45565b505b5b5b6001925050505b90565b600062093a806001540142116111925760009050611218565b62093a8060015401421180156111af5750620d2f00600154014211155b156111bd5760019050611218565b620d2f0060015401421180156111da5750621fa400600154014211155b156111e85760029050611218565b621fa4006001540142118015611205575062278d00600154014211155b156112135760039050611218565b600490505b90565b6000621fa40060015401421161123057600080fd5b62278d006001540142111561124457600080fd5b6004600084815260200190815260200160002060000154341461126657600080fd5b6004600084815260200190815260200160002060010160009054906101000a900473ffffffffffffffffffffffffffffffffffffffff1673ffffffffffffffffffffffffffffffffffffffff163373ffffffffffffffffffffffffffffffffffffffff16146112d457600080fd5b6004600084815260200190815260200160002060010160159054906101000a900460ff161561130257600080fd5b816004600085815260200190815260200160002060010160146101000a81548160ff02191690831515021790555060016004600085815260200190815260200160002060010160156101000a81548160ff0219169083151502179055506001905092915050565b600062278d0060015401421161137e57600080fd5b6000809050600080905060008090505b6003805490508110156115455760046000600383815481106113ac57fe5b90600052602060002090600891828204019190066004029054906101000a900463ffffffff1663ffffffff16815260200190815260200160002060010160159054906101000a900460ff16801561145b5750600460006003838154811061140f57fe5b90600052602060002090600891828204019190066004029054906101000a900463ffffffff1663ffffffff16815260200190815260200160002060010160149054906101000a900460ff165b156114695781806001019250505b600460006003838154811061147a57fe5b90600052602060002090600891828204019190066004029054906101000a900463ffffffff1663ffffffff16815260200190815260200160002060010160159054906101000a900460ff16801561152a575060046000600383815481106114dd57fe5b90600052602060002090600891828204019190066004029054906101000a900463ffffffff1663ffffffff16815260200190815260200160002060010160149054906101000a900460ff16155b156115385782806001019350505b808060010191505061138e565b508181119250505090565b604051806102000160405280601090602082028038833980820191505090505090565b828054600181600116156101000203166002900490600052602060002090601f016020900481019282601f106115b457805160ff19168380011785556115e2565b828001600101855582156115e2579182015b828111156115e15782518255916020019190600101906115c6565b5b5090506115ef9190611616565b5090565b604051806102000160405280601090602082028038833980820191505090505090565b61163891905b8082111561163457600081600090555060010161161c565b5090565b9056fea265627a7a72315820404029fe21aac326db85e8c440ad11c4410b472999dc1fa8972980116947ffe664736f6c63430005100032",
  "source": "pragma solidity >=0.4.22 <0.7.0;\n// pragma experimental ABIEncoderV2;\nimport \"./TreeCoin.sol\";\n\ncontract Auction {\n    TreeCoin treeCoin;\n    uint public auctionTime; //竞价开启时间\n    uint constant total = 16;\n    bool isFarmerGetMoney;\n    struct Bid {\n        uint256 highestPrice; //最高出价\n        address payable addr; //最高出价地址\n        bool isWithdraw;//是否退款\n        bool isJudge; //是否已经申诉\n        string host;\n    }\n    \n    address farmer;\n\tenum Process { free, addrConfirm, bidsConfirm, withdrawConfirm, end }\n    uint32[] public treeNumbers;\n    mapping(uint => Bid) bids; //出价情况\n    \n    constructor(address tc) public {\n        treeCoin = TreeCoin(tc);\n        farmer = msg.sender;\n        uint256 price = treeCoin.getPrice();\n        treeNumbers = treeCoin.getInitTrcNumbers();\n        //初始价格为树币的默认价格, 出价者为farmer\n        for(uint i = 0; i < treeNumbers.length; i++) {\n            // treeNumbers.push(treeCoin.initTrcs[i].number);\n            bids[treeNumbers[i]] = Bid(price, msg.sender, false, false, \"\");\n        }\n    }\n\n    //定义项目进展阶段\n    //自由竞拍期\n    modifier free() {\n        require(now <= auctionTime + 3600 * 24 * 7);\n        _;\n    }\n    //货物地址确认期\n    modifier addressConfirm() {\n        require(now > auctionTime + 3600 * 24 * 7);\n        require(now <= auctionTime + 3600 * 24 * 10);\n        _;\n    }\n    //货物交割期\n    modifier bidsConfirm() {\n        require(now > auctionTime + 3600 * 24 * 10);\n        require(now <= auctionTime + 3600 * 24 * 24);\n        _;\n    }\n    //确认申诉期\n    modifier withdrawConfirm() {\n        require(now > auctionTime + 3600 * 24 * 24);\n        require(now <= auctionTime + 3600 * 24 * 30);\n        _;\n    }\n    //提款结算期\n    modifier getMoney() {\n        require(now > auctionTime + 3600 * 24 * 30);\n        _;\n    }\n\n    //当前地址没有最高出价，允许再出价\n    modifier allowBid() {\n        bool isAllow = true;\n        for (uint i=0; i < treeNumbers.length; i++) {\n            if (msg.sender == bids[treeNumbers[i]].addr) {\n                isAllow = false;\n                continue;\n            }\n        }\n        require(isAllow);\n        _;\n\n    }\n\n    //查询当前项目阶段\n    function getProcess() public view returns (Process){\n        if (now <= auctionTime + 3600 * 24 * 7) return Process.free;\n        else if (now > auctionTime + 3600 * 24 * 7 && now <= auctionTime + 3600 * 24 * 10) return Process.addrConfirm;\n        else if (now > auctionTime + 3600 * 24 * 10 && now <= auctionTime + 3600 * 24 * 24) return Process.bidsConfirm;\n        else if (now > auctionTime + 3600 * 24 * 24 && now <= auctionTime + 3600 * 24 * 30) return Process.withdrawConfirm;\n        return Process.end;\n    }\n\n    //查询目前所有最高出价\n    function getBidsHighest() public view returns(uint256[total] memory highest){\n        for (uint i=0; i < treeNumbers.length; i++) {\n            highest[i] = bids[treeNumbers[i]].highestPrice;\n        }\n    }\n\n    //查询目前所有最高出价者的地址\n    function getBidsAddr() public view returns (address[total] memory a){\n        for (uint i=0; i < total; i++) {\n            a[i] = bids[treeNumbers[i]].addr;\n        }\n    }\n\n    //竞价某编号的树币\n    function bid(uint number) public free allowBid payable returns (bool){\n        require(msg.value > bids[number].highestPrice);\n        //退款\n        if (bids[number].addr != farmer) {\n            bids[number].addr.transfer(bids[number].highestPrice);\n        }\n        bids[number].highestPrice = msg.value;\n        bids[number].addr = msg.sender;\n        return true;\n    }\n\n    //填写货物地址\n    function addAddr(uint number, string memory host) public addressConfirm returns (bool){\n        require(msg.sender == bids[number].addr);\n        bids[number].host = host;\n        return true;\n    }\n\n    //farmer 查询所有树币得主地址\n    // function getAddrs() public bidsConfirm returns (string[] memory highest){\n    //     require(msg.sender == farmer);\n    //     for (uint i=0; i < treeNumbers.length; i++) {\n    //         highest[i] = bids[treeNumbers[i]].host;\n    //     }\n    // }\n    \n    //竞价者申诉期申诉 或者确认收货\n    function payForWithdraw(uint number, bool isWithdraw) withdrawConfirm public payable returns(bool) {\n        require(msg.value == bids[number].highestPrice);\n        require(msg.sender == bids[number].addr);\n        require(!bids[number].isJudge);\n        bids[number].isWithdraw = isWithdraw;\n        bids[number].isJudge = true;\n        return true;\n    }\n\n    function getAmount() getMoney public returns (bool) {\n        //farmer 提款前提 不退款反馈多于退款反馈 只能提取未申诉退款钱的90%, 剩下10%作为未申诉退款返利\n        //judge 成功 获取10%返利 未judge 不能获取返利\n        //每增加一人申诉退款，不仅不能提取该树币的钱，且减少提取等量的钱\n        uint256 amount;\n        uint256 decreaseAmount;\n        if (!_isWithdraw() && (msg.sender == farmer)) {\n            for (uint i=0; i < treeNumbers.length; i++) {\n                if (!bids[treeNumbers[i]].isJudge || !bids[treeNumbers[i]].isWithdraw) {\n                    amount += bids[treeNumbers[i]].highestPrice * 9 / 10;\n                } else {\n                    decreaseAmount += bids[treeNumbers[i]].highestPrice;\n                    }\n            }\n            if (amount > decreaseAmount) {\n                msg.sender.transfer(amount - decreaseAmount);\n            }\n        } else if (!_isWithdraw() && (msg.sender != farmer)) {\n            for (uint i=0; i < treeNumbers.length; i++) {\n                if(msg.sender == bids[treeNumbers[i]].addr) {\n                    if (bids[treeNumbers[i]].isJudge && !bids[treeNumbers[i]].isWithdraw) {\n                        msg.sender.transfer(bids[treeNumbers[i]].highestPrice*11 / 10);\n                        return true;\n                    }\n                }\n            }\n        } else if (_isWithdraw() && (msg.sender != farmer)) {\n            for (uint i=0; i < treeNumbers.length; i++) {\n                if(msg.sender == bids[treeNumbers[i]].addr) {\n                    if (bids[treeNumbers[i]].isJudge && bids[treeNumbers[i]].isWithdraw) {\n                        msg.sender.transfer(bids[treeNumbers[i]].highestPrice*2);\n                        return true;\n                    }\n                }\n            }\n        }\n                \n        return true;\n    }\n\n    //是否应该退款\n    function _isWithdraw() getMoney private view returns (bool) {\n        uint unWithdrawCount = 0;\n        uint withdrawCount = 0;\n        for (uint i=0; i < treeNumbers.length; i++) {\n            if (bids[treeNumbers[i]].isJudge && bids[treeNumbers[i]].isWithdraw) {\n                withdrawCount ++;\n            }\n            if (bids[treeNumbers[i]].isJudge && !bids[treeNumbers[i]].isWithdraw) {\n                unWithdrawCount ++;\n            }\n        }\n        return withdrawCount > unWithdrawCount;\n    }\n\n    //获取所有树币的编号\n    function getTreeCoins() public view returns (uint32[] memory) {\n        return treeNumbers; \n    }\n}\n",
  "sourcePath": "/home/f/codes/bcs/farmer/contracts/Auction.sol",
  "compiler": {
    "name": "solc",
    "version": "0.5.16+commit.9c3226ce.Emscripten.clang"
  },
  "schemaVersion": "3.3.1",
  "updatedAt": "2020-12-04T01:38:26.714Z",
  "networkType": "ethereum",
  "devdoc": {
    "methods": {}
  },
  "userdoc": {
    "methods": {}
  }
}