{
  "contractName": "Auction",
  "abi": [
    {
      "inputs": [
        {
          "internalType": "address",
          "name": "tc",
          "type": "address"
        }
      ],
      "payable": false,
      "stateMutability": "nonpayable",
      "type": "constructor"
    },
    {
      "anonymous": false,
      "inputs": [
        {
          "indexed": false,
          "internalType": "uint256",
          "name": "_value",
          "type": "uint256"
        },
        {
          "indexed": false,
          "internalType": "address",
          "name": "_addr",
          "type": "address"
        }
      ],
      "name": "BidEvent",
      "type": "event"
    },
    {
      "anonymous": false,
      "inputs": [
        {
          "indexed": false,
          "internalType": "string",
          "name": "_value",
          "type": "string"
        }
      ],
      "name": "LogString",
      "type": "event"
    },
    {
      "anonymous": false,
      "inputs": [
        {
          "indexed": false,
          "internalType": "uint256",
          "name": "_value",
          "type": "uint256"
        }
      ],
      "name": "ProcessEvent",
      "type": "event"
    },
    {
      "constant": true,
      "inputs": [],
      "name": "auctionTime",
      "outputs": [
        {
          "internalType": "uint256",
          "name": "",
          "type": "uint256"
        }
      ],
      "payable": false,
      "stateMutability": "view",
      "type": "function"
    },
    {
      "constant": true,
      "inputs": [
        {
          "internalType": "uint256",
          "name": "",
          "type": "uint256"
        }
      ],
      "name": "treeNumbers",
      "outputs": [
        {
          "internalType": "uint32",
          "name": "",
          "type": "uint32"
        }
      ],
      "payable": false,
      "stateMutability": "view",
      "type": "function"
    },
    {
      "constant": false,
      "inputs": [],
      "name": "getProcess",
      "outputs": [
        {
          "internalType": "enum Auction.Process",
          "name": "",
          "type": "uint8"
        }
      ],
      "payable": false,
      "stateMutability": "nonpayable",
      "type": "function"
    },
    {
      "constant": true,
      "inputs": [],
      "name": "getBidsHighest",
      "outputs": [
        {
          "internalType": "uint256[16]",
          "name": "highest",
          "type": "uint256[16]"
        }
      ],
      "payable": false,
      "stateMutability": "view",
      "type": "function"
    },
    {
      "constant": true,
      "inputs": [],
      "name": "getBidsAddr",
      "outputs": [
        {
          "internalType": "address[16]",
          "name": "a",
          "type": "address[16]"
        }
      ],
      "payable": false,
      "stateMutability": "view",
      "type": "function"
    },
    {
      "constant": true,
      "inputs": [],
      "name": "getBidHighInfo",
      "outputs": [
        {
          "internalType": "uint256",
          "name": "",
          "type": "uint256"
        },
        {
          "internalType": "uint32",
          "name": "",
          "type": "uint32"
        },
        {
          "internalType": "string",
          "name": "",
          "type": "string"
        },
        {
          "internalType": "address",
          "name": "",
          "type": "address"
        }
      ],
      "payable": false,
      "stateMutability": "view",
      "type": "function"
    },
    {
      "constant": false,
      "inputs": [
        {
          "internalType": "uint256",
          "name": "number",
          "type": "uint256"
        }
      ],
      "name": "bid",
      "outputs": [
        {
          "internalType": "bool",
          "name": "",
          "type": "bool"
        }
      ],
      "payable": true,
      "stateMutability": "payable",
      "type": "function"
    },
    {
      "constant": false,
      "inputs": [
        {
          "internalType": "uint256",
          "name": "number",
          "type": "uint256"
        },
        {
          "internalType": "string",
          "name": "host",
          "type": "string"
        }
      ],
      "name": "addAddr",
      "outputs": [
        {
          "internalType": "bool",
          "name": "",
          "type": "bool"
        }
      ],
      "payable": false,
      "stateMutability": "nonpayable",
      "type": "function"
    },
    {
      "constant": false,
      "inputs": [
        {
          "internalType": "uint256",
          "name": "number",
          "type": "uint256"
        },
        {
          "internalType": "bool",
          "name": "isWithdraw",
          "type": "bool"
        }
      ],
      "name": "payForWithdraw",
      "outputs": [
        {
          "internalType": "bool",
          "name": "",
          "type": "bool"
        }
      ],
      "payable": true,
      "stateMutability": "payable",
      "type": "function"
    },
    {
      "constant": false,
      "inputs": [],
      "name": "getAmount",
      "outputs": [
        {
          "internalType": "bool",
          "name": "",
          "type": "bool"
        }
      ],
      "payable": false,
      "stateMutability": "nonpayable",
      "type": "function"
    },
    {
      "constant": true,
      "inputs": [],
      "name": "getTreeCoins",
      "outputs": [
        {
          "internalType": "uint32[]",
          "name": "",
          "type": "uint32[]"
        }
      ],
      "payable": false,
      "stateMutability": "view",
      "type": "function"
    }
  ],
  "bytecode": "0x60806040523480156200001157600080fd5b5060405162001f2d38038062001f2d833981810160405260208110156200003757600080fd5b8101908080519060200190929190505050806000806101000a81548173ffffffffffffffffffffffffffffffffffffffff021916908373ffffffffffffffffffffffffffffffffffffffff16021790555033600260016101000a81548173ffffffffffffffffffffffffffffffffffffffff021916908373ffffffffffffffffffffffffffffffffffffffff16021790555060008060009054906101000a900473ffffffffffffffffffffffffffffffffffffffff1673ffffffffffffffffffffffffffffffffffffffff166398d5fdca6040518163ffffffff1660e01b815260040160206040518083038186803b1580156200013357600080fd5b505afa15801562000148573d6000803e3d6000fd5b505050506040513d60208110156200015f57600080fd5b810190808051906020019092919050505090506000809054906101000a900473ffffffffffffffffffffffffffffffffffffffff1673ffffffffffffffffffffffffffffffffffffffff1663957292d16040518163ffffffff1660e01b81526004016102006040518083038186803b158015620001db57600080fd5b505afa158015620001f0573d6000803e3d6000fd5b505050506040513d601f19601f820116820180604052506102008110156200021757600080fd5b8101908091905050600390601062000231929190620003b5565b504260018190555060008090505b600380549050811015620003ac576040518060a001604052808381526020013373ffffffffffffffffffffffffffffffffffffffff168152602001600015158152602001600015158152602001604051806020016040528060008152508152506004600060038481548110620002b157fe5b90600052602060002090600891828204019190066004029054906101000a900463ffffffff1663ffffffff1681526020019081526020016000206000820151816000015560208201518160010160006101000a81548173ffffffffffffffffffffffffffffffffffffffff021916908373ffffffffffffffffffffffffffffffffffffffff16021790555060408201518160010160146101000a81548160ff02191690831515021790555060608201518160010160156101000a81548160ff02191690831515021790555060808201518160020190805190602001906200039a9291906200046c565b5090505080806001019150506200023f565b50505062000551565b82805482825590600052602060002090600701600890048101928215620004595791602002820160005b838211156200042557835183826101000a81548163ffffffff021916908363ffffffff1602179055509260200192600401602081600301049283019260010302620003df565b8015620004575782816101000a81549063ffffffff021916905560040160208160030104928301926001030262000425565b505b509050620004689190620004f3565b5090565b828054600181600116156101000203166002900490600052602060002090601f016020900481019282601f10620004af57805160ff1916838001178555620004e0565b82800160010185558215620004e0579182015b82811115620004df578251825591602001919060010190620004c2565b5b509050620004ef919062000529565b5090565b6200052691905b808211156200052257600081816101000a81549063ffffffff021916905550600101620004fa565b5090565b90565b6200054e91905b808211156200054a57600081600090555060010162000530565b5090565b90565b6119cc80620005616000396000f3fe60806040526004361061009c5760003560e01c80635c2e5530116100645780635c2e55301461029d578063667e227e1461038757806385703f33146103da578063d321fe2914610446578063dc2d9af014610475578063ecc74558146104ae5761009c565b8063155f586d146100a1578063369672de146100cc578063454a2ab31461012757806354ab69fd1461016d5780635b1695ae146101c0575b600080fd5b3480156100ad57600080fd5b506100b6610500565b6040518082815260200191505060405180910390f35b3480156100d857600080fd5b50610105600480360360208110156100ef57600080fd5b8101908080359060200190929190505050610506565b604051808263ffffffff1663ffffffff16815260200191505060405180910390f35b6101536004803603602081101561013d57600080fd5b810190808035906020019092919050505061053d565b604051808215151515815260200191505060405180910390f35b34801561017957600080fd5b506101826107e7565b6040518082601060200280838360005b838110156101ad578082015181840152602081019050610192565b5050505090500191505060405180910390f35b3480156101cc57600080fd5b506101d5610877565b604051808581526020018463ffffffff1663ffffffff168152602001806020018373ffffffffffffffffffffffffffffffffffffffff1673ffffffffffffffffffffffffffffffffffffffff168152602001828103825284818151815260200191508051906020019080838360005b8381101561025f578082015181840152602081019050610244565b50505050905090810190601f16801561028c5780820380516001836020036101000a031916815260200191505b509550505050505060405180910390f35b3480156102a957600080fd5b5061036d600480360360408110156102c057600080fd5b8101908080359060200190929190803590602001906401000000008111156102e757600080fd5b8201836020820111156102f957600080fd5b8035906020019184600183028401116401000000008311171561031b57600080fd5b91908080601f016020809104026020016040519081016040528093929190818152602001838380828437600081840152601f19601f820116905080830192505050505050509192919290505050610ae8565b604051808215151515815260200191505060405180910390f35b34801561039357600080fd5b5061039c610bbb565b6040518082601060200280838360005b838110156103c75780820151818401526020810190506103ac565b5050505090500191505060405180910390f35b3480156103e657600080fd5b506103ef610c95565b6040518080602001828103825283818151815260200191508051906020019060200280838360005b83811015610432578082015181840152602081019050610417565b505050509050019250505060405180910390f35b34801561045257600080fd5b5061045b610d19565b604051808215151515815260200191505060405180910390f35b34801561048157600080fd5b5061048a6114d5565b6040518082600481111561049a57fe5b60ff16815260200191505060405180910390f35b6104e6600480360360408110156104c457600080fd5b8101908080359060200190929190803515159060200190929190505050611577565b604051808215151515815260200191505060405180910390f35b60015481565b6003818154811061051357fe5b9060005260206000209060089182820401919006600402915054906101000a900463ffffffff1681565b600062093a806001540142111561055357600080fd5b60006001905060008090505b601081101561062157600460006003838154811061057957fe5b90600052602060002090600891828204019190066004029054906101000a900463ffffffff1663ffffffff16815260200190815260200160002060010160009054906101000a900473ffffffffffffffffffffffffffffffffffffffff1673ffffffffffffffffffffffffffffffffffffffff163373ffffffffffffffffffffffffffffffffffffffff1614156106135760009150610614565b5b808060010191505061055f565b508061062c57600080fd5b6004600084815260200190815260200160002060000154341161064e57600080fd5b600260019054906101000a900473ffffffffffffffffffffffffffffffffffffffff1673ffffffffffffffffffffffffffffffffffffffff166004600085815260200190815260200160002060010160009054906101000a900473ffffffffffffffffffffffffffffffffffffffff1673ffffffffffffffffffffffffffffffffffffffff161461076d576004600084815260200190815260200160002060010160009054906101000a900473ffffffffffffffffffffffffffffffffffffffff1673ffffffffffffffffffffffffffffffffffffffff166108fc60046000868152602001908152602001600020600001549081150290604051600060405180830381858888f1935050505015801561076b573d6000803e3d6000fd5b505b346004600085815260200190815260200160002060000181905550336004600085815260200190815260200160002060010160006101000a81548173ffffffffffffffffffffffffffffffffffffffff021916908373ffffffffffffffffffffffffffffffffffffffff1602179055506001915050919050565b6107ef6118ac565b60008090505b60038054905081101561087357600460006003838154811061081357fe5b90600052602060002090600891828204019190066004029054906101000a900463ffffffff1663ffffffff1681526020019081526020016000206000015482826010811061085d57fe5b60200201818152505080806001019150506107f5565b5090565b6000806060600080600090505b6010811015610aba57600460006003838154811061089e57fe5b90600052602060002090600891828204019190066004029054906101000a900463ffffffff1663ffffffff16815260200190815260200160002060010160009054906101000a900473ffffffffffffffffffffffffffffffffffffffff1673ffffffffffffffffffffffffffffffffffffffff163373ffffffffffffffffffffffffffffffffffffffff161415610aad57600460006003838154811061094057fe5b90600052602060002090600891828204019190066004029054906101000a900463ffffffff1663ffffffff168152602001908152602001600020600001546003828154811061098b57fe5b90600052602060002090600891828204019190066004029054906101000a900463ffffffff1660046000600385815481106109c257fe5b90600052602060002090600891828204019190066004029054906101000a900463ffffffff1663ffffffff16815260200190815260200160002060020133818054600181600116156101000203166002900480601f016020809104026020016040519081016040528092919081815260200182805460018160011615610100020316600290048015610a955780601f10610a6a57610100808354040283529160200191610a95565b820191906000526020600020905b815481529060010190602001808311610a7857829003601f168201915b50505050509150809050945094509450945050610ae2565b8080600101915050610884565b5060008033829250819150604051806020016040528060008152509080905093509350935093505b90919293565b60007fa95e6e2a182411e7a6f9ed114a85c3761d87f9b8f453d842c71235aa64fff99f826040518080602001828103825283818151815260200191508051906020019080838360005b83811015610b4c578082015181840152602081019050610b31565b50505050905090810190601f168015610b795780820380516001836020036101000a031916815260200191505b509250505060405180910390a181600460008581526020019081526020016000206002019080519060200190610bb09291906118cf565b506001905092915050565b610bc361194f565b60008090505b6010811015610c91576004600060038381548110610be357fe5b90600052602060002090600891828204019190066004029054906101000a900463ffffffff1663ffffffff16815260200190815260200160002060010160009054906101000a900473ffffffffffffffffffffffffffffffffffffffff16828260108110610c4d57fe5b602002019073ffffffffffffffffffffffffffffffffffffffff16908173ffffffffffffffffffffffffffffffffffffffff16815250508080600101915050610bc9565b5090565b60606003805480602002602001604051908101604052809291908181526020018280548015610d0f57602002820191906000526020600020906000905b82829054906101000a900463ffffffff1663ffffffff1681526020019060040190602082600301049283019260010382029150808411610cd25790505b5050505050905090565b600062278d00600154014211610d2e57600080fd5b600080610d396116c5565b158015610d935750600260019054906101000a900473ffffffffffffffffffffffffffffffffffffffff1673ffffffffffffffffffffffffffffffffffffffff163373ffffffffffffffffffffffffffffffffffffffff16145b15610f8f5760008090505b600380549050811015610f37576004600060038381548110610dbc57fe5b90600052602060002090600891828204019190066004029054906101000a900463ffffffff1663ffffffff16815260200190815260200160002060010160159054906101000a900460ff161580610e6c57506004600060038381548110610e1f57fe5b90600052602060002090600891828204019190066004029054906101000a900463ffffffff1663ffffffff16815260200190815260200160002060010160149054906101000a900460ff16155b15610ed657600a60096004600060038581548110610e8657fe5b90600052602060002090600891828204019190066004029054906101000a900463ffffffff1663ffffffff168152602001908152602001600020600001540281610ecc57fe5b0483019250610f2a565b6004600060038381548110610ee757fe5b90600052602060002090600891828204019190066004029054906101000a900463ffffffff1663ffffffff16815260200190815260200160002060000154820191505b8080600101915050610d9e565b5080821115610f8a573373ffffffffffffffffffffffffffffffffffffffff166108fc8284039081150290604051600060405180830381858888f19350505050158015610f88573d6000803e3d6000fd5b505b6114cb565b610f976116c5565b158015610ff25750600260019054906101000a900473ffffffffffffffffffffffffffffffffffffffff1673ffffffffffffffffffffffffffffffffffffffff163373ffffffffffffffffffffffffffffffffffffffff1614155b156112345760008090505b60038054905081101561122e57600460006003838154811061101b57fe5b90600052602060002090600891828204019190066004029054906101000a900463ffffffff1663ffffffff16815260200190815260200160002060010160009054906101000a900473ffffffffffffffffffffffffffffffffffffffff1673ffffffffffffffffffffffffffffffffffffffff163373ffffffffffffffffffffffffffffffffffffffff1614156112215760046000600383815481106110bd57fe5b90600052602060002090600891828204019190066004029054906101000a900463ffffffff1663ffffffff16815260200190815260200160002060010160159054906101000a900460ff16801561116d5750600460006003838154811061112057fe5b90600052602060002090600891828204019190066004029054906101000a900463ffffffff1663ffffffff16815260200190815260200160002060010160149054906101000a900460ff16155b15611220573373ffffffffffffffffffffffffffffffffffffffff166108fc600a600b60046000600387815481106111a157fe5b90600052602060002090600891828204019190066004029054906101000a900463ffffffff1663ffffffff1681526020019081526020016000206000015402816111e757fe5b049081150290604051600060405180830381858888f19350505050158015611213573d6000803e3d6000fd5b50600193505050506114d2565b5b8080600101915050610ffd565b506114ca565b61123c6116c5565b80156112965750600260019054906101000a900473ffffffffffffffffffffffffffffffffffffffff1673ffffffffffffffffffffffffffffffffffffffff163373ffffffffffffffffffffffffffffffffffffffff1614155b156114c95760008090505b6003805490508110156114c75760046000600383815481106112bf57fe5b90600052602060002090600891828204019190066004029054906101000a900463ffffffff1663ffffffff16815260200190815260200160002060010160009054906101000a900473ffffffffffffffffffffffffffffffffffffffff1673ffffffffffffffffffffffffffffffffffffffff163373ffffffffffffffffffffffffffffffffffffffff1614156114ba57600460006003838154811061136157fe5b90600052602060002090600891828204019190066004029054906101000a900463ffffffff1663ffffffff16815260200190815260200160002060010160159054906101000a900460ff168015611410575060046000600383815481106113c457fe5b90600052602060002090600891828204019190066004029054906101000a900463ffffffff1663ffffffff16815260200190815260200160002060010160149054906101000a900460ff165b156114b9573373ffffffffffffffffffffffffffffffffffffffff166108fc6002600460006003868154811061144257fe5b90600052602060002090600891828204019190066004029054906101000a900463ffffffff1663ffffffff16815260200190815260200160002060000154029081150290604051600060405180830381858888f193505050501580156114ac573d6000803e3d6000fd5b50600193505050506114d2565b5b80806001019150506112a1565b505b5b5b6001925050505b90565b600062093a806001540142116114ee5760009050611574565b62093a80600154014211801561150b5750620d2f00600154014211155b156115195760019050611574565b620d2f0060015401421180156115365750621fa400600154014211155b156115445760029050611574565b621fa4006001540142118015611561575062278d00600154014211155b1561156f5760039050611574565b600490505b90565b6000621fa40060015401421161158c57600080fd5b62278d00600154014211156115a057600080fd5b600460008481526020019081526020016000206000015434146115c257600080fd5b6004600084815260200190815260200160002060010160009054906101000a900473ffffffffffffffffffffffffffffffffffffffff1673ffffffffffffffffffffffffffffffffffffffff163373ffffffffffffffffffffffffffffffffffffffff161461163057600080fd5b6004600084815260200190815260200160002060010160159054906101000a900460ff161561165e57600080fd5b816004600085815260200190815260200160002060010160146101000a81548160ff02191690831515021790555060016004600085815260200190815260200160002060010160156101000a81548160ff0219169083151502179055506001905092915050565b600062278d006001540142116116da57600080fd5b6000809050600080905060008090505b6003805490508110156118a157600460006003838154811061170857fe5b90600052602060002090600891828204019190066004029054906101000a900463ffffffff1663ffffffff16815260200190815260200160002060010160159054906101000a900460ff1680156117b75750600460006003838154811061176b57fe5b90600052602060002090600891828204019190066004029054906101000a900463ffffffff1663ffffffff16815260200190815260200160002060010160149054906101000a900460ff165b156117c55781806001019250505b60046000600383815481106117d657fe5b90600052602060002090600891828204019190066004029054906101000a900463ffffffff1663ffffffff16815260200190815260200160002060010160159054906101000a900460ff1680156118865750600460006003838154811061183957fe5b90600052602060002090600891828204019190066004029054906101000a900463ffffffff1663ffffffff16815260200190815260200160002060010160149054906101000a900460ff16155b156118945782806001019350505b80806001019150506116ea565b508181119250505090565b604051806102000160405280601090602082028038833980820191505090505090565b828054600181600116156101000203166002900490600052602060002090601f016020900481019282601f1061191057805160ff191683800117855561193e565b8280016001018555821561193e579182015b8281111561193d578251825591602001919060010190611922565b5b50905061194b9190611972565b5090565b604051806102000160405280601090602082028038833980820191505090505090565b61199491905b80821115611990576000816000905550600101611978565b5090565b9056fea265627a7a72315820b707eb36b6c19702c908d9ec319c7fdc746aa99753f613567b7fc3bcafb522ac64736f6c63430005100032",
  "source": "pragma solidity >=0.4.22 <0.7.0;\n// pragma experimental ABIEncoderV2;\nimport \"./TreeCoin.sol\";\n\ncontract Auction {\n    TreeCoin treeCoin;\n    uint public auctionTime; //\n    uint constant total = 16;\n    bool isFarmerGetMoney;\n    struct Bid {\n        uint256 highestPrice; //\n        address payable addr; //\n        bool isWithdraw;//\n        bool isJudge; //\n        string host;\n    }\n    \n    address farmer;\n\tenum Process { free, addrConfirm, bidsConfirm, withdrawConfirm, end }\n    uint32[] public treeNumbers;\n    mapping(uint => Bid) bids; //\n    \n    event ProcessEvent(uint256 _value);\n    event LogString(string _value);\n    event BidEvent(uint256 _value, address _addr);\n\n    constructor(address tc) public {\n        treeCoin = TreeCoin(tc);\n        farmer = msg.sender;\n        uint256 price = treeCoin.getPrice();\n        treeNumbers = treeCoin.getInitTrcNumbers();\n        auctionTime = now;\n        //, farmer\n        for(uint i = 0; i < treeNumbers.length; i++) {\n            // treeNumbers.push(treeCoin.initTrcs[i].number);\n            bids[treeNumbers[i]] = Bid(price, msg.sender, false, false, \"\");\n        }\n    }\n\n    //\n    //\n    modifier free() {\n        require(now <= auctionTime + 3600 * 24 * 7);\n        _;\n    }\n    //\n    modifier addressConfirm() {\n        // require(now > auctionTime + 3600 * 24 * 7);\n        // require(now <= auctionTime + 3600 * 24 * 10);\n        _;\n    }\n    //\n    modifier bidsConfirm() {\n        require(now > auctionTime + 3600 * 24 * 10);\n        require(now <= auctionTime + 3600 * 24 * 24);\n        _;\n    }\n    //\n    modifier withdrawConfirm() {\n        require(now > auctionTime + 3600 * 24 * 24);\n        require(now <= auctionTime + 3600 * 24 * 30);\n        _;\n    }\n    //\n    modifier getMoney() {\n        require(now > auctionTime + 3600 * 24 * 30);\n        _;\n    }\n\n    //\n    modifier allowBid() {\n        bool isAllow = true;\n        for (uint i=0; i < total; i++) {\n            if (msg.sender == bids[treeNumbers[i]].addr) {\n                isAllow = false;\n                continue;\n            }\n        }\n        require(isAllow);\n        _;\n\n    }\n\n    //\n    function getProcess() public returns (Process){\n        if (now <= auctionTime + 3600 * 24 * 7) return Process.free;\n        else if (now > auctionTime + 3600 * 24 * 7 && now <= auctionTime + 3600 * 24 * 10) return Process.addrConfirm;\n        else if (now > auctionTime + 3600 * 24 * 10 && now <= auctionTime + 3600 * 24 * 24) return Process.bidsConfirm;\n        else if (now > auctionTime + 3600 * 24 * 24 && now <= auctionTime + 3600 * 24 * 30) return Process.withdrawConfirm;\n        return Process.end;\n    }\n\n    //\n    function getBidsHighest() public view returns(uint256[total] memory highest){\n        for (uint i=0; i < treeNumbers.length; i++) {\n            highest[i] = bids[treeNumbers[i]].highestPrice;\n        }\n    }\n\n    //\n    function getBidsAddr() public view returns (address[total] memory a){\n        for (uint i=0; i < total; i++) {\n            a[i] = bids[treeNumbers[i]].addr;\n        }\n    }\n\n    //\n    function getBidHighInfo() public view returns(uint256, uint32, string memory, address) {\n        for (uint i=0; i < total; i++) {\n            if (msg.sender == bids[treeNumbers[i]].addr) {\n                return (bids[treeNumbers[i]].highestPrice, treeNumbers[i], bids[treeNumbers[i]].host, msg.sender);\n            }\n        }\n        return (0,0,\"\", msg.sender);\n    }\n\n    //\n    function bid(uint number) public free allowBid payable returns (bool){\n        require(msg.value > bids[number].highestPrice);\n        //\n        if (bids[number].addr != farmer) {\n            bids[number].addr.transfer(bids[number].highestPrice);\n        }\n        bids[number].highestPrice = msg.value;\n        bids[number].addr = msg.sender;\n        return true;\n    }\n\n    //\n    function addAddr(uint number, string memory host) public addressConfirm returns (bool){\n        // require(msg.sender == bids[number].addr);\n        emit LogString(host);\n        bids[number].host = host;\n        return true;\n    }\n\n    //farmer \n    // function getAddrs() public bidsConfirm returns (string[] memory highest){\n    //     require(msg.sender == farmer);\n    //     for (uint i=0; i < treeNumbers.length; i++) {\n    //         highest[i] = bids[treeNumbers[i]].host;\n    //     }\n    // }\n    \n    // \n    function payForWithdraw(uint number, bool isWithdraw) withdrawConfirm public payable returns(bool) {\n        require(msg.value == bids[number].highestPrice);\n        require(msg.sender == bids[number].addr);\n        require(!bids[number].isJudge);\n        bids[number].isWithdraw = isWithdraw;\n        bids[number].isJudge = true;\n        return true;\n    }\n\n    function getAmount() getMoney public returns (bool) {\n        //farmer   90%, 10%\n        //judge  10% judge \n        //\n        uint256 amount;\n        uint256 decreaseAmount;\n        if (!_isWithdraw() && (msg.sender == farmer)) {\n            for (uint i=0; i < treeNumbers.length; i++) {\n                if (!bids[treeNumbers[i]].isJudge || !bids[treeNumbers[i]].isWithdraw) {\n                    amount += bids[treeNumbers[i]].highestPrice * 9 / 10;\n                } else {\n                    decreaseAmount += bids[treeNumbers[i]].highestPrice;\n                    }\n            }\n            if (amount > decreaseAmount) {\n                msg.sender.transfer(amount - decreaseAmount);\n            }\n        } else if (!_isWithdraw() && (msg.sender != farmer)) {\n            for (uint i=0; i < treeNumbers.length; i++) {\n                if(msg.sender == bids[treeNumbers[i]].addr) {\n                    if (bids[treeNumbers[i]].isJudge && !bids[treeNumbers[i]].isWithdraw) {\n                        msg.sender.transfer(bids[treeNumbers[i]].highestPrice*11 / 10);\n                        return true;\n                    }\n                }\n            }\n        } else if (_isWithdraw() && (msg.sender != farmer)) {\n            for (uint i=0; i < treeNumbers.length; i++) {\n                if(msg.sender == bids[treeNumbers[i]].addr) {\n                    if (bids[treeNumbers[i]].isJudge && bids[treeNumbers[i]].isWithdraw) {\n                        msg.sender.transfer(bids[treeNumbers[i]].highestPrice*2);\n                        return true;\n                    }\n                }\n            }\n        }\n                \n        return true;\n    }\n\n    //\n    function _isWithdraw() getMoney private view returns (bool) {\n        uint unWithdrawCount = 0;\n        uint withdrawCount = 0;\n        for (uint i=0; i < treeNumbers.length; i++) {\n            if (bids[treeNumbers[i]].isJudge && bids[treeNumbers[i]].isWithdraw) {\n                withdrawCount ++;\n            }\n            if (bids[treeNumbers[i]].isJudge && !bids[treeNumbers[i]].isWithdraw) {\n                unWithdrawCount ++;\n            }\n        }\n        return withdrawCount > unWithdrawCount;\n    }\n\n    //\n    function getTreeCoins() public view returns (uint32[] memory) {\n        return treeNumbers; \n    }\n}\n",
  "sourcePath": "/home/f/codes/bcs/farmer/contracts/Auction.sol",
  "compiler": {
    "name": "solc",
    "version": "0.5.16+commit.9c3226ce.Emscripten.clang"
  },
  "schemaVersion": "3.3.1",
  "updatedAt": "2020-12-08T09:42:24.501Z",
  "networkType": "ethereum",
  "devdoc": {
    "methods": {}
  },
  "userdoc": {
    "methods": {}
  }
}