{
  "contractName": "Auction",
  "abi": [
    {
      "inputs": [
        {
          "internalType": "address",
          "name": "tc",
          "type": "address"
        }
      ],
      "payable": false,
      "stateMutability": "nonpayable",
      "type": "constructor"
    },
    {
      "anonymous": false,
      "inputs": [
        {
          "indexed": false,
          "internalType": "uint256",
          "name": "_value",
          "type": "uint256"
        },
        {
          "indexed": false,
          "internalType": "address",
          "name": "_addr",
          "type": "address"
        }
      ],
      "name": "BidEvent",
      "type": "event"
    },
    {
      "anonymous": false,
      "inputs": [
        {
          "indexed": false,
          "internalType": "string",
          "name": "_value",
          "type": "string"
        }
      ],
      "name": "LogString",
      "type": "event"
    },
    {
      "anonymous": false,
      "inputs": [
        {
          "indexed": false,
          "internalType": "uint256",
          "name": "_value",
          "type": "uint256"
        }
      ],
      "name": "ProcessEvent",
      "type": "event"
    },
    {
      "constant": true,
      "inputs": [],
      "name": "auctionTime",
      "outputs": [
        {
          "internalType": "uint256",
          "name": "",
          "type": "uint256"
        }
      ],
      "payable": false,
      "stateMutability": "view",
      "type": "function"
    },
    {
      "constant": true,
      "inputs": [
        {
          "internalType": "uint256",
          "name": "",
          "type": "uint256"
        }
      ],
      "name": "treeNumbers",
      "outputs": [
        {
          "internalType": "uint32",
          "name": "",
          "type": "uint32"
        }
      ],
      "payable": false,
      "stateMutability": "view",
      "type": "function"
    },
    {
      "constant": true,
      "inputs": [
        {
          "internalType": "uint256",
          "name": "time",
          "type": "uint256"
        }
      ],
      "name": "getProcess",
      "outputs": [
        {
          "internalType": "enum Auction.Process",
          "name": "",
          "type": "uint8"
        }
      ],
      "payable": false,
      "stateMutability": "view",
      "type": "function"
    },
    {
      "constant": true,
      "inputs": [],
      "name": "getBidsHighest",
      "outputs": [
        {
          "internalType": "uint256[16]",
          "name": "highest",
          "type": "uint256[16]"
        }
      ],
      "payable": false,
      "stateMutability": "view",
      "type": "function"
    },
    {
      "constant": true,
      "inputs": [],
      "name": "getBidsAddr",
      "outputs": [
        {
          "internalType": "address[16]",
          "name": "a",
          "type": "address[16]"
        }
      ],
      "payable": false,
      "stateMutability": "view",
      "type": "function"
    },
    {
      "constant": true,
      "inputs": [],
      "name": "getBidHighInfo",
      "outputs": [
        {
          "internalType": "uint256",
          "name": "",
          "type": "uint256"
        },
        {
          "internalType": "uint32",
          "name": "",
          "type": "uint32"
        },
        {
          "internalType": "string",
          "name": "",
          "type": "string"
        },
        {
          "internalType": "address",
          "name": "",
          "type": "address"
        }
      ],
      "payable": false,
      "stateMutability": "view",
      "type": "function"
    },
    {
      "constant": false,
      "inputs": [
        {
          "internalType": "uint256",
          "name": "number",
          "type": "uint256"
        }
      ],
      "name": "bid",
      "outputs": [
        {
          "internalType": "bool",
          "name": "",
          "type": "bool"
        }
      ],
      "payable": true,
      "stateMutability": "payable",
      "type": "function"
    },
    {
      "constant": false,
      "inputs": [
        {
          "internalType": "uint256",
          "name": "number",
          "type": "uint256"
        },
        {
          "internalType": "string",
          "name": "host",
          "type": "string"
        }
      ],
      "name": "addAddr",
      "outputs": [
        {
          "internalType": "bool",
          "name": "",
          "type": "bool"
        }
      ],
      "payable": false,
      "stateMutability": "nonpayable",
      "type": "function"
    },
    {
      "constant": true,
      "inputs": [
        {
          "internalType": "uint256",
          "name": "number",
          "type": "uint256"
        }
      ],
      "name": "getAddrs",
      "outputs": [
        {
          "internalType": "string",
          "name": "highest",
          "type": "string"
        }
      ],
      "payable": false,
      "stateMutability": "view",
      "type": "function"
    },
    {
      "constant": false,
      "inputs": [
        {
          "internalType": "uint256",
          "name": "number",
          "type": "uint256"
        },
        {
          "internalType": "bool",
          "name": "isWithdraw",
          "type": "bool"
        }
      ],
      "name": "payForWithdraw",
      "outputs": [
        {
          "internalType": "bool",
          "name": "",
          "type": "bool"
        }
      ],
      "payable": true,
      "stateMutability": "payable",
      "type": "function"
    },
    {
      "constant": true,
      "inputs": [
        {
          "internalType": "uint256",
          "name": "number",
          "type": "uint256"
        }
      ],
      "name": "getPayInfo",
      "outputs": [
        {
          "internalType": "bool",
          "name": "",
          "type": "bool"
        }
      ],
      "payable": false,
      "stateMutability": "view",
      "type": "function"
    },
    {
      "constant": false,
      "inputs": [],
      "name": "getAmount",
      "outputs": [
        {
          "internalType": "bool",
          "name": "",
          "type": "bool"
        }
      ],
      "payable": false,
      "stateMutability": "nonpayable",
      "type": "function"
    },
    {
      "constant": true,
      "inputs": [],
      "name": "getTreeCoins",
      "outputs": [
        {
          "internalType": "uint32[]",
          "name": "",
          "type": "uint32[]"
        }
      ],
      "payable": false,
      "stateMutability": "view",
      "type": "function"
    },
    {
      "constant": true,
      "inputs": [],
      "name": "queryAmount",
      "outputs": [
        {
          "internalType": "uint256",
          "name": "",
          "type": "uint256"
        }
      ],
      "payable": false,
      "stateMutability": "view",
      "type": "function"
    }
  ],
  "bytecode": "0x60806040523480156200001157600080fd5b506040516200230e3803806200230e833981810160405260208110156200003757600080fd5b8101908080519060200190929190505050806000806101000a81548173ffffffffffffffffffffffffffffffffffffffff021916908373ffffffffffffffffffffffffffffffffffffffff16021790555033600260016101000a81548173ffffffffffffffffffffffffffffffffffffffff021916908373ffffffffffffffffffffffffffffffffffffffff16021790555060008060009054906101000a900473ffffffffffffffffffffffffffffffffffffffff1673ffffffffffffffffffffffffffffffffffffffff166398d5fdca6040518163ffffffff1660e01b815260040160206040518083038186803b1580156200013357600080fd5b505afa15801562000148573d6000803e3d6000fd5b505050506040513d60208110156200015f57600080fd5b810190808051906020019092919050505090506000809054906101000a900473ffffffffffffffffffffffffffffffffffffffff1673ffffffffffffffffffffffffffffffffffffffff1663957292d16040518163ffffffff1660e01b81526004016102006040518083038186803b158015620001db57600080fd5b505afa158015620001f0573d6000803e3d6000fd5b505050506040513d601f19601f820116820180604052506102008110156200021757600080fd5b8101908091905050600390601062000231929190620003b5565b504260018190555060008090505b600380549050811015620003ac576040518060a001604052808381526020013373ffffffffffffffffffffffffffffffffffffffff168152602001600015158152602001600015158152602001604051806020016040528060008152508152506004600060038481548110620002b157fe5b90600052602060002090600891828204019190066004029054906101000a900463ffffffff1663ffffffff1681526020019081526020016000206000820151816000015560208201518160010160006101000a81548173ffffffffffffffffffffffffffffffffffffffff021916908373ffffffffffffffffffffffffffffffffffffffff16021790555060408201518160010160146101000a81548160ff02191690831515021790555060608201518160010160156101000a81548160ff02191690831515021790555060808201518160020190805190602001906200039a9291906200046c565b5090505080806001019150506200023f565b50505062000551565b82805482825590600052602060002090600701600890048101928215620004595791602002820160005b838211156200042557835183826101000a81548163ffffffff021916908363ffffffff1602179055509260200192600401602081600301049283019260010302620003df565b8015620004575782816101000a81549063ffffffff021916905560040160208160030104928301926001030262000425565b505b509050620004689190620004f3565b5090565b828054600181600116156101000203166002900490600052602060002090601f016020900481019282601f10620004af57805160ff1916838001178555620004e0565b82800160010185558215620004e0579182015b82811115620004df578251825591602001919060010190620004c2565b5b509050620004ef919062000529565b5090565b6200052691905b808211156200052257600081816101000a81549063ffffffff021916905550600101620004fa565b5090565b90565b6200054e91905b808211156200054a57600081600090555060010162000530565b5090565b90565b611dad80620005616000396000f3fe6080604052600436106100dd5760003560e01c8063667e227e1161007f578063ca86a67e11610059578063ca86a67e1461058e578063d0851a71146105b9578063d321fe2914610616578063ecc7455814610645576100dd565b8063667e227e1461041b57806385703f331461046e5780639c57c187146104da576100dd565b80634c386a26116100bb5780634c386a26146101ae57806354ab69fd146102015780635b1695ae146102545780635c2e553014610331576100dd565b8063155f586d146100e2578063369672de1461010d578063454a2ab314610168575b600080fd5b3480156100ee57600080fd5b506100f7610697565b6040518082815260200191505060405180910390f35b34801561011957600080fd5b506101466004803603602081101561013057600080fd5b810190808035906020019092919050505061069d565b604051808263ffffffff1663ffffffff16815260200191505060405180910390f35b6101946004803603602081101561017e57600080fd5b81019080803590602001909291905050506106d4565b604051808215151515815260200191505060405180910390f35b3480156101ba57600080fd5b506101e7600480360360208110156101d157600080fd5b8101908080359060200190929190505050610981565b604051808215151515815260200191505060405180910390f35b34801561020d57600080fd5b50610216610a1c565b6040518082601060200280838360005b83811015610241578082015181840152602081019050610226565b5050505090500191505060405180910390f35b34801561026057600080fd5b50610269610aac565b604051808581526020018463ffffffff1663ffffffff168152602001806020018373ffffffffffffffffffffffffffffffffffffffff1673ffffffffffffffffffffffffffffffffffffffff168152602001828103825284818151815260200191508051906020019080838360005b838110156102f35780820151818401526020810190506102d8565b50505050905090810190601f1680156103205780820380516001836020036101000a031916815260200191505b509550505050505060405180910390f35b34801561033d57600080fd5b506104016004803603604081101561035457600080fd5b81019080803590602001909291908035906020019064010000000081111561037b57600080fd5b82018360208201111561038d57600080fd5b803590602001918460018302840111640100000000831117156103af57600080fd5b91908080601f016020809104026020016040519081016040528093929190818152602001838380828437600081840152601f19601f820116905080830192505050505050509192919290505050610d1d565b604051808215151515815260200191505060405180910390f35b34801561042757600080fd5b50610430610e8b565b6040518082601060200280838360005b8381101561045b578082015181840152602081019050610440565b5050505090500191505060405180910390f35b34801561047a57600080fd5b50610483610f65565b6040518080602001828103825283818151815260200191508051906020019060200280838360005b838110156104c65780820151818401526020810190506104ab565b505050509050019250505060405180910390f35b3480156104e657600080fd5b50610513600480360360208110156104fd57600080fd5b8101908080359060200190929190505050610fe9565b6040518080602001828103825283818151815260200191508051906020019080838360005b83811015610553578082015181840152602081019050610538565b50505050905090810190601f1680156105805780820380516001836020036101000a031916815260200191505b509250505060405180910390f35b34801561059a57600080fd5b506105a3611128565b6040518082815260200191505060405180910390f35b3480156105c557600080fd5b506105f2600480360360208110156105dc57600080fd5b8101908080359060200190929190505050611819565b6040518082600481111561060257fe5b60ff16815260200191505060405180910390f35b34801561062257600080fd5b5061062b6118d2565b604051808215151515815260200191505060405180910390f35b61067d6004803603604081101561065b57600080fd5b810190808035906020019092919080351515906020019092919050505061194f565b604051808215151515815260200191505060405180910390f35b60015481565b600381815481106106aa57fe5b9060005260206000209060089182820401919006600402915054906101000a900463ffffffff1681565b600060076201518002600154014211156106ed57600080fd5b60006001905060008090505b60108110156107bb57600460006003838154811061071357fe5b90600052602060002090600891828204019190066004029054906101000a900463ffffffff1663ffffffff16815260200190815260200160002060010160009054906101000a900473ffffffffffffffffffffffffffffffffffffffff1673ffffffffffffffffffffffffffffffffffffffff163373ffffffffffffffffffffffffffffffffffffffff1614156107ad57600091506107ae565b5b80806001019150506106f9565b50806107c657600080fd5b600460008481526020019081526020016000206000015434116107e857600080fd5b600260019054906101000a900473ffffffffffffffffffffffffffffffffffffffff1673ffffffffffffffffffffffffffffffffffffffff166004600085815260200190815260200160002060010160009054906101000a900473ffffffffffffffffffffffffffffffffffffffff1673ffffffffffffffffffffffffffffffffffffffff1614610907576004600084815260200190815260200160002060010160009054906101000a900473ffffffffffffffffffffffffffffffffffffffff1673ffffffffffffffffffffffffffffffffffffffff166108fc60046000868152602001908152602001600020600001549081150290604051600060405180830381858888f19350505050158015610905573d6000803e3d6000fd5b505b346004600085815260200190815260200160002060000181905550336004600085815260200190815260200160002060010160006101000a81548173ffffffffffffffffffffffffffffffffffffffff021916908373ffffffffffffffffffffffffffffffffffffffff1602179055506001915050919050565b60006004600083815260200190815260200160002060010160009054906101000a900473ffffffffffffffffffffffffffffffffffffffff1673ffffffffffffffffffffffffffffffffffffffff163373ffffffffffffffffffffffffffffffffffffffff16146109f157600080fd5b6004600083815260200190815260200160002060010160159054906101000a900460ff169050919050565b610a24611c8d565b60008090505b600380549050811015610aa8576004600060038381548110610a4857fe5b90600052602060002090600891828204019190066004029054906101000a900463ffffffff1663ffffffff16815260200190815260200160002060000154828260108110610a9257fe5b6020020181815250508080600101915050610a2a565b5090565b6000806060600080600090505b6010811015610cef576004600060038381548110610ad357fe5b90600052602060002090600891828204019190066004029054906101000a900463ffffffff1663ffffffff16815260200190815260200160002060010160009054906101000a900473ffffffffffffffffffffffffffffffffffffffff1673ffffffffffffffffffffffffffffffffffffffff163373ffffffffffffffffffffffffffffffffffffffff161415610ce2576004600060038381548110610b7557fe5b90600052602060002090600891828204019190066004029054906101000a900463ffffffff1663ffffffff1681526020019081526020016000206000015460038281548110610bc057fe5b90600052602060002090600891828204019190066004029054906101000a900463ffffffff166004600060038581548110610bf757fe5b90600052602060002090600891828204019190066004029054906101000a900463ffffffff1663ffffffff16815260200190815260200160002060020133818054600181600116156101000203166002900480601f016020809104026020016040519081016040528092919081815260200182805460018160011615610100020316600290048015610cca5780601f10610c9f57610100808354040283529160200191610cca565b820191906000526020600020905b815481529060010190602001808311610cad57829003601f168201915b50505050509150809050945094509450945050610d17565b8080600101915050610ab9565b5060008033829250819150604051806020016040528060008152509080905093509350935093505b90919293565b600060076201518002600154014211610d3557600080fd5b600a620151800260015401421115610d4c57600080fd5b6004600084815260200190815260200160002060010160009054906101000a900473ffffffffffffffffffffffffffffffffffffffff1673ffffffffffffffffffffffffffffffffffffffff163373ffffffffffffffffffffffffffffffffffffffff1614610dba57600080fd5b7fa95e6e2a182411e7a6f9ed114a85c3761d87f9b8f453d842c71235aa64fff99f826040518080602001828103825283818151815260200191508051906020019080838360005b83811015610e1c578082015181840152602081019050610e01565b50505050905090810190601f168015610e495780820380516001836020036101000a031916815260200191505b509250505060405180910390a181600460008581526020019081526020016000206002019080519060200190610e80929190611cb0565b506001905092915050565b610e93611d30565b60008090505b6010811015610f61576004600060038381548110610eb357fe5b90600052602060002090600891828204019190066004029054906101000a900463ffffffff1663ffffffff16815260200190815260200160002060010160009054906101000a900473ffffffffffffffffffffffffffffffffffffffff16828260108110610f1d57fe5b602002019073ffffffffffffffffffffffffffffffffffffffff16908173ffffffffffffffffffffffffffffffffffffffff16815250508080600101915050610e99565b5090565b60606003805480602002602001604051908101604052809291908181526020018280548015610fdf57602002820191906000526020600020906000905b82829054906101000a900463ffffffff1663ffffffff1681526020019060040190602082600301049283019260010382029150808411610fa25790505b5050505050905090565b6060600a620151800260015401421161100157600080fd5b601862015180026001540142111561101857600080fd5b600260019054906101000a900473ffffffffffffffffffffffffffffffffffffffff1673ffffffffffffffffffffffffffffffffffffffff163373ffffffffffffffffffffffffffffffffffffffff161461107257600080fd5b600460008381526020019081526020016000206002018054600181600116156101000203166002900480601f01602080910402602001604051908101604052809291908181526020018280546001816001161561010002031660029004801561111c5780601f106110f15761010080835404028352916020019161111c565b820191906000526020600020905b8154815290600101906020018083116110ff57829003601f168201915b50505050509050919050565b6000601e620151800260015401421161114057600080fd5b60008061114b611aa3565b1580156111a55750600260019054906101000a900473ffffffffffffffffffffffffffffffffffffffff1673ffffffffffffffffffffffffffffffffffffffff163373ffffffffffffffffffffffffffffffffffffffff16145b156113635760008090505b6003805490508110156113495760046000600383815481106111ce57fe5b90600052602060002090600891828204019190066004029054906101000a900463ffffffff1663ffffffff16815260200190815260200160002060010160159054906101000a900460ff16158061127e5750600460006003838154811061123157fe5b90600052602060002090600891828204019190066004029054906101000a900463ffffffff1663ffffffff16815260200190815260200160002060010160149054906101000a900460ff16155b156112e857600a6009600460006003858154811061129857fe5b90600052602060002090600891828204019190066004029054906101000a900463ffffffff1663ffffffff1681526020019081526020016000206000015402816112de57fe5b048301925061133c565b60046000600383815481106112f957fe5b90600052602060002090600891828204019190066004029054906101000a900463ffffffff1663ffffffff16815260200190815260200160002060000154820191505b80806001019150506111b0565b508082111561135e5780820392505050611816565b61180f565b61136b611aa3565b1580156113c65750600260019054906101000a900473ffffffffffffffffffffffffffffffffffffffff1673ffffffffffffffffffffffffffffffffffffffff163373ffffffffffffffffffffffffffffffffffffffff1614155b156115c05760008090505b6003805490508110156115ba5760046000600383815481106113ef57fe5b90600052602060002090600891828204019190066004029054906101000a900463ffffffff1663ffffffff16815260200190815260200160002060010160009054906101000a900473ffffffffffffffffffffffffffffffffffffffff1673ffffffffffffffffffffffffffffffffffffffff163373ffffffffffffffffffffffffffffffffffffffff1614156115ad57600460006003838154811061149157fe5b90600052602060002090600891828204019190066004029054906101000a900463ffffffff1663ffffffff16815260200190815260200160002060010160159054906101000a900460ff168015611541575060046000600383815481106114f457fe5b90600052602060002090600891828204019190066004029054906101000a900463ffffffff1663ffffffff16815260200190815260200160002060010160149054906101000a900460ff16155b156115ac57600a600b600460006003858154811061155b57fe5b90600052602060002090600891828204019190066004029054906101000a900463ffffffff1663ffffffff1681526020019081526020016000206000015402816115a157fe5b049350505050611816565b5b80806001019150506113d1565b5061180e565b6115c8611aa3565b80156116225750600260019054906101000a900473ffffffffffffffffffffffffffffffffffffffff1673ffffffffffffffffffffffffffffffffffffffff163373ffffffffffffffffffffffffffffffffffffffff1614155b1561180d5760008090505b60038054905081101561180b57600460006003838154811061164b57fe5b90600052602060002090600891828204019190066004029054906101000a900463ffffffff1663ffffffff16815260200190815260200160002060010160009054906101000a900473ffffffffffffffffffffffffffffffffffffffff1673ffffffffffffffffffffffffffffffffffffffff163373ffffffffffffffffffffffffffffffffffffffff1614156117fe5760046000600383815481106116ed57fe5b90600052602060002090600891828204019190066004029054906101000a900463ffffffff1663ffffffff16815260200190815260200160002060010160159054906101000a900460ff16801561179c5750600460006003838154811061175057fe5b90600052602060002090600891828204019190066004029054906101000a900463ffffffff1663ffffffff16815260200190815260200160002060010160149054906101000a900460ff165b156117fd57600260046000600384815481106117b457fe5b90600052602060002090600891828204019190066004029054906101000a900463ffffffff1663ffffffff16815260200190815260200160002060000154029350505050611816565b5b808060010191505061162d565b505b5b5b6000925050505b90565b60006007620151800260015401821161183557600090506118cd565b6007620151800260015401821180156118585750600a6201518002600154018211155b1561186657600190506118cd565b600a62015180026001540182118015611889575060186201518002600154018211155b1561189757600290506118cd565b6018620151800260015401821180156118ba5750601e6201518002600154018211155b156118c857600390506118cd565b600490505b919050565b6000601e62015180026001540142116118ea57600080fd5b60006118f4611128565b90506000811115611947573373ffffffffffffffffffffffffffffffffffffffff166108fc829081150290604051600060405180830381858888f19350505050158015611945573d6000803e3d6000fd5b505b600191505090565b60006018620151800260015401421161196757600080fd5b601e62015180026001540142111561197e57600080fd5b600460008481526020019081526020016000206000015434146119a057600080fd5b6004600084815260200190815260200160002060010160009054906101000a900473ffffffffffffffffffffffffffffffffffffffff1673ffffffffffffffffffffffffffffffffffffffff163373ffffffffffffffffffffffffffffffffffffffff1614611a0e57600080fd5b6004600084815260200190815260200160002060010160159054906101000a900460ff1615611a3c57600080fd5b816004600085815260200190815260200160002060010160146101000a81548160ff02191690831515021790555060016004600085815260200190815260200160002060010160156101000a81548160ff0219169083151502179055506001905092915050565b6000601e6201518002600154014211611abb57600080fd5b6000809050600080905060008090505b600380549050811015611c82576004600060038381548110611ae957fe5b90600052602060002090600891828204019190066004029054906101000a900463ffffffff1663ffffffff16815260200190815260200160002060010160159054906101000a900460ff168015611b9857506004600060038381548110611b4c57fe5b90600052602060002090600891828204019190066004029054906101000a900463ffffffff1663ffffffff16815260200190815260200160002060010160149054906101000a900460ff165b15611ba65781806001019250505b6004600060038381548110611bb757fe5b90600052602060002090600891828204019190066004029054906101000a900463ffffffff1663ffffffff16815260200190815260200160002060010160159054906101000a900460ff168015611c6757506004600060038381548110611c1a57fe5b90600052602060002090600891828204019190066004029054906101000a900463ffffffff1663ffffffff16815260200190815260200160002060010160149054906101000a900460ff16155b15611c755782806001019350505b8080600101915050611acb565b508181119250505090565b604051806102000160405280601090602082028038833980820191505090505090565b828054600181600116156101000203166002900490600052602060002090601f016020900481019282601f10611cf157805160ff1916838001178555611d1f565b82800160010185558215611d1f579182015b82811115611d1e578251825591602001919060010190611d03565b5b509050611d2c9190611d53565b5090565b604051806102000160405280601090602082028038833980820191505090505090565b611d7591905b80821115611d71576000816000905550600101611d59565b5090565b9056fea265627a7a72315820fea8331760faf13d0d86bfb567054885ae637145bd7c15bed168dd4913a5b46964736f6c63430005100032",
  "source": "pragma solidity >=0.4.22 <0.7.0;\n// pragma experimental ABIEncoderV2;\nimport \"./TreeCoin.sol\";\n\ncontract Auction {\n    TreeCoin treeCoin;\n    uint public auctionTime; //\n    uint constant total = 16;\n    uint constant day = 3600 * 24;\n    // uint constant day = 3;\n    bool isFarmerGetMoney;\n    struct Bid {\n        uint256 highestPrice; //\n        address payable addr; //\n        bool isWithdraw;//\n        bool isJudge; //\n        string host;\n    }\n    \n    address farmer;\n\tenum Process { free, addrConfirm, bidsConfirm, withdrawConfirm, end }\n    uint32[] public treeNumbers;\n    mapping(uint => Bid) bids; //\n    \n    event ProcessEvent(uint256 _value);\n    event LogString(string _value);\n    event BidEvent(uint256 _value, address _addr);\n\n    constructor(address tc) public {\n        treeCoin = TreeCoin(tc);\n        farmer = msg.sender;\n        uint256 price = treeCoin.getPrice();\n        treeNumbers = treeCoin.getInitTrcNumbers();\n        auctionTime = now;\n        //, farmer\n        for(uint i = 0; i < treeNumbers.length; i++) {\n            // treeNumbers.push(treeCoin.initTrcs[i].number);\n            bids[treeNumbers[i]] = Bid(price, msg.sender, false, false, \"\");\n        }\n    }\n\n    //\n    //\n    modifier free() {\n        require(now <= auctionTime + day * 7);\n        _;\n    }\n    //\n    modifier addressConfirm() {\n        require(now > auctionTime + day * 7);\n        require(now <= auctionTime + day * 10);\n        _;\n    }\n    //\n    modifier bidsConfirm() {\n        require(now > auctionTime + day * 10);\n        require(now <= auctionTime + day * 24);\n        _;\n    }\n    //\n    modifier withdrawConfirm() {\n        require(now > auctionTime + day * 24);\n        require(now <= auctionTime + day * 30);\n        _;\n    }\n    //\n    modifier getMoney() {\n        require(now > auctionTime + day * 30);\n        _;\n    }\n\n    //\n    modifier allowBid() {\n        bool isAllow = true;\n        for (uint i=0; i < total; i++) {\n            if (msg.sender == bids[treeNumbers[i]].addr) {\n                isAllow = false;\n                continue;\n            }\n        }\n        require(isAllow);\n        _;\n\n    }\n\n    //\n    function getProcess(uint256 time) public view returns (Process){\n        if (time <= auctionTime + day * 7) return Process.free;\n        else if (time > auctionTime + day * 7 && time <= auctionTime + day * 10) return Process.addrConfirm;\n        else if (time > auctionTime + day * 10 && time <= auctionTime + day * 24) return Process.bidsConfirm;\n        else if (time > auctionTime + day * 24 && time <= auctionTime + day * 30) return Process.withdrawConfirm;\n        return Process.end;\n    }\n\n    //\n    function getBidsHighest() public view returns(uint256[total] memory highest){\n        for (uint i=0; i < treeNumbers.length; i++) {\n            highest[i] = bids[treeNumbers[i]].highestPrice;\n        }\n    }\n\n    //\n    function getBidsAddr() public view returns (address[total] memory a){\n        for (uint i=0; i < total; i++) {\n            a[i] = bids[treeNumbers[i]].addr;\n        }\n    }\n\n    //\n    function getBidHighInfo() public view returns(uint256, uint32, string memory, address) {\n        for (uint i=0; i < total; i++) {\n            if (msg.sender == bids[treeNumbers[i]].addr) {\n                return (bids[treeNumbers[i]].highestPrice, treeNumbers[i], bids[treeNumbers[i]].host, msg.sender);\n            }\n        }\n        return (0,0,\"\", msg.sender);\n    }\n\n    //\n    function bid(uint number) public free allowBid payable returns (bool){\n        require(msg.value > bids[number].highestPrice);\n        //\n        if (bids[number].addr != farmer) {\n            bids[number].addr.transfer(bids[number].highestPrice);\n        }\n        bids[number].highestPrice = msg.value;\n        bids[number].addr = msg.sender;\n        return true;\n    }\n\n    //\n    function addAddr(uint number, string memory host) public addressConfirm returns (bool){\n        require(msg.sender == bids[number].addr);\n        emit LogString(host);\n        bids[number].host = host;\n        return true;\n    }\n\n    //farmer \n    function getAddrs(uint number) public bidsConfirm view returns (string memory highest){\n        require(msg.sender == farmer);\n        highest = bids[number].host;\n    }\n    \n    // \n    function payForWithdraw(uint number, bool isWithdraw) withdrawConfirm public payable returns(bool) {\n        require(msg.value == bids[number].highestPrice);\n        require(msg.sender == bids[number].addr);\n        require(!bids[number].isJudge);\n        bids[number].isWithdraw = isWithdraw;\n        bids[number].isJudge = true;\n        return true;\n    }\n\n    //\n    function getPayInfo(uint number) public view returns(bool) {\n        require(msg.sender == bids[number].addr);\n        return bids[number].isJudge;\n    }\n\n    function getAmount() getMoney public returns (bool) {\n        uint256 amount = queryAmount();\n        if (amount > 0) {\n            msg.sender.transfer(amount);\n        }\n        return true;\n    }\n\n    //\n    function _isWithdraw() getMoney private view returns (bool) {\n        uint unWithdrawCount = 0;\n        uint withdrawCount = 0;\n        for (uint i=0; i < treeNumbers.length; i++) {\n            if (bids[treeNumbers[i]].isJudge && bids[treeNumbers[i]].isWithdraw) {\n                withdrawCount ++;\n            }\n            if (bids[treeNumbers[i]].isJudge && !bids[treeNumbers[i]].isWithdraw) {\n                unWithdrawCount ++;\n            }\n        }\n        return withdrawCount > unWithdrawCount;\n    }\n\n    //\n    function getTreeCoins() public view returns (uint32[] memory) {\n        return treeNumbers; \n    }\n\n    //\n    function queryAmount() public getMoney view returns (uint256) {\n        //farmer   90%, 10%\n        //judge  10% judge \n        //\n        uint256 amount;\n        uint256 decreaseAmount;\n        if (!_isWithdraw() && (msg.sender == farmer)) {\n            for (uint i=0; i < treeNumbers.length; i++) {\n                if (!bids[treeNumbers[i]].isJudge || !bids[treeNumbers[i]].isWithdraw) {\n                    amount += bids[treeNumbers[i]].highestPrice * 9 / 10;\n                } else {\n                    decreaseAmount += bids[treeNumbers[i]].highestPrice;\n                    }\n            }\n            if (amount > decreaseAmount) {\n                return (amount - decreaseAmount);\n                // msg.sender.transfer(amount - decreaseAmount);\n            }\n        } else if (!_isWithdraw() && (msg.sender != farmer)) {\n            for (uint i=0; i < treeNumbers.length; i++) {\n                if(msg.sender == bids[treeNumbers[i]].addr) {\n                    if (bids[treeNumbers[i]].isJudge && !bids[treeNumbers[i]].isWithdraw) {\n                        return (bids[treeNumbers[i]].highestPrice*11 / 10);\n                        // msg.sender.transfer(bids[treeNumbers[i]].highestPrice*11 / 10);\n                        // return true;\n                    }\n                }\n            }\n        } else if (_isWithdraw() && (msg.sender != farmer)) {\n            for (uint i=0; i < treeNumbers.length; i++) {\n                if(msg.sender == bids[treeNumbers[i]].addr) {\n                    if (bids[treeNumbers[i]].isJudge && bids[treeNumbers[i]].isWithdraw) {\n                        return (bids[treeNumbers[i]].highestPrice*2);\n                        // msg.sender.transfer(bids[treeNumbers[i]].highestPrice*2);\n                        // return true;\n                    }\n                }\n            }\n        } \n        return 0;\n    }\n}\n",
  "sourcePath": "/home/f/codes/bcs/farmer/contracts/Auction.sol",
  "compiler": {
    "name": "solc",
    "version": "0.5.16+commit.9c3226ce.Emscripten.clang"
  },
  "schemaVersion": "3.3.1",
  "updatedAt": "2020-12-09T09:50:31.423Z",
  "networkType": "ethereum",
  "devdoc": {
    "methods": {}
  },
  "userdoc": {
    "methods": {}
  }
}