{
  "contractName": "MetaCoin",
  "abi": [
    {
      "inputs": [],
      "payable": false,
      "stateMutability": "nonpayable",
      "type": "constructor"
    },
    {
      "anonymous": false,
      "inputs": [
        {
          "indexed": true,
          "internalType": "address",
          "name": "_from",
          "type": "address"
        },
        {
          "indexed": true,
          "internalType": "address",
          "name": "_to",
          "type": "address"
        },
        {
          "indexed": false,
          "internalType": "uint256",
          "name": "_value",
          "type": "uint256"
        }
      ],
      "name": "Approval",
      "type": "event"
    },
    {
      "anonymous": false,
      "inputs": [
        {
          "indexed": true,
          "internalType": "address",
          "name": "_from",
          "type": "address"
        },
        {
          "indexed": true,
          "internalType": "address",
          "name": "_to",
          "type": "address"
        },
        {
          "indexed": false,
          "internalType": "uint256",
          "name": "_value",
          "type": "uint256"
        }
      ],
      "name": "Transfer",
      "type": "event"
    },
    {
      "constant": true,
      "inputs": [
        {
          "internalType": "address",
          "name": "",
          "type": "address"
        },
        {
          "internalType": "address",
          "name": "",
          "type": "address"
        },
        {
          "internalType": "uint256",
          "name": "",
          "type": "uint256"
        }
      ],
      "name": "allowed",
      "outputs": [
        {
          "internalType": "uint256",
          "name": "number",
          "type": "uint256"
        }
      ],
      "payable": false,
      "stateMutability": "view",
      "type": "function"
    },
    {
      "constant": true,
      "inputs": [],
      "name": "name",
      "outputs": [
        {
          "internalType": "string",
          "name": "",
          "type": "string"
        }
      ],
      "payable": false,
      "stateMutability": "view",
      "type": "function"
    },
    {
      "constant": true,
      "inputs": [],
      "name": "symbol",
      "outputs": [
        {
          "internalType": "string",
          "name": "",
          "type": "string"
        }
      ],
      "payable": false,
      "stateMutability": "view",
      "type": "function"
    },
    {
      "constant": true,
      "inputs": [
        {
          "internalType": "address",
          "name": "_owner",
          "type": "address"
        }
      ],
      "name": "balanceOf",
      "outputs": [
        {
          "internalType": "uint256",
          "name": "balance",
          "type": "uint256"
        }
      ],
      "payable": false,
      "stateMutability": "view",
      "type": "function"
    },
    {
      "constant": false,
      "inputs": [
        {
          "internalType": "address",
          "name": "_to",
          "type": "address"
        },
        {
          "internalType": "uint256",
          "name": "_value",
          "type": "uint256"
        }
      ],
      "name": "transfer",
      "outputs": [
        {
          "internalType": "bool",
          "name": "success",
          "type": "bool"
        }
      ],
      "payable": false,
      "stateMutability": "nonpayable",
      "type": "function"
    },
    {
      "constant": false,
      "inputs": [
        {
          "internalType": "address",
          "name": "_from",
          "type": "address"
        },
        {
          "internalType": "address",
          "name": "_to",
          "type": "address"
        },
        {
          "internalType": "uint256",
          "name": "_value",
          "type": "uint256"
        }
      ],
      "name": "transferFrom",
      "outputs": [
        {
          "internalType": "bool",
          "name": "success",
          "type": "bool"
        }
      ],
      "payable": false,
      "stateMutability": "nonpayable",
      "type": "function"
    },
    {
      "constant": false,
      "inputs": [
        {
          "internalType": "address",
          "name": "_spender",
          "type": "address"
        },
        {
          "internalType": "uint256",
          "name": "_value",
          "type": "uint256"
        }
      ],
      "name": "approve",
      "outputs": [
        {
          "internalType": "bool",
          "name": "success",
          "type": "bool"
        }
      ],
      "payable": false,
      "stateMutability": "nonpayable",
      "type": "function"
    },
    {
      "constant": true,
      "inputs": [
        {
          "internalType": "address",
          "name": "_owner",
          "type": "address"
        },
        {
          "internalType": "address",
          "name": "_spender",
          "type": "address"
        }
      ],
      "name": "allowance",
      "outputs": [
        {
          "internalType": "uint256",
          "name": "remaining",
          "type": "uint256"
        }
      ],
      "payable": false,
      "stateMutability": "view",
      "type": "function"
    },
    {
      "constant": true,
      "inputs": [
        {
          "internalType": "address",
          "name": "addr",
          "type": "address"
        },
        {
          "internalType": "uint256",
          "name": "number",
          "type": "uint256"
        }
      ],
      "name": "checkOwn",
      "outputs": [
        {
          "internalType": "bool",
          "name": "",
          "type": "bool"
        }
      ],
      "payable": false,
      "stateMutability": "view",
      "type": "function"
    },
    {
      "constant": false,
      "inputs": [
        {
          "internalType": "uint256",
          "name": "number",
          "type": "uint256"
        }
      ],
      "name": "buyTrc",
      "outputs": [
        {
          "internalType": "bool",
          "name": "success",
          "type": "bool"
        }
      ],
      "payable": true,
      "stateMutability": "payable",
      "type": "function"
    },
    {
      "constant": true,
      "inputs": [
        {
          "internalType": "address",
          "name": "addr",
          "type": "address"
        }
      ],
      "name": "getBalance",
      "outputs": [
        {
          "internalType": "uint256[16]",
          "name": "bs",
          "type": "uint256[16]"
        }
      ],
      "payable": false,
      "stateMutability": "view",
      "type": "function"
    },
    {
      "constant": true,
      "inputs": [],
      "name": "getProcess",
      "outputs": [
        {
          "internalType": "enum MetaCoin.Process",
          "name": "",
          "type": "uint8"
        }
      ],
      "payable": false,
      "stateMutability": "view",
      "type": "function"
    },
    {
      "constant": true,
      "inputs": [],
      "name": "getStatus",
      "outputs": [
        {
          "internalType": "uint256[16]",
          "name": "bs",
          "type": "uint256[16]"
        }
      ],
      "payable": false,
      "stateMutability": "view",
      "type": "function"
    }
  ],
  "bytecode": "0x60806040526040518060400160405280600881526020017f54726565436f696e0000000000000000000000000000000000000000000000008152506000908051906020019062000051929190620001d2565b506040518060400160405280600381526020017f5452430000000000000000000000000000000000000000000000000000000000815250600190805190602001906200009f929190620001d2565b506014600255348015620000b257600080fd5b506000600190505b6010811162000116576004604051806020016040528083815250908060018154018082558091505090600182039060005260206000200160009091929091909150600082015181600001555050508080600101915050620000ba565b5032600360006101000a81548173ffffffffffffffffffffffffffffffffffffffff021916908373ffffffffffffffffffffffffffffffffffffffff160217905550600460066000600360009054906101000a900473ffffffffffffffffffffffffffffffffffffffff1673ffffffffffffffffffffffffffffffffffffffff1673ffffffffffffffffffffffffffffffffffffffff168152602001908152602001600020908054620001cb92919062000259565b506200030c565b828054600181600116156101000203166002900490600052602060002090601f016020900481019282601f106200021557805160ff191683800117855562000246565b8280016001018555821562000246579182015b828111156200024557825182559160200191906001019062000228565b5b509050620002559190620002ba565b5090565b828054828255906000526020600020908101928215620002a75760005260206000209182015b82811115620002a6578282600082015481600001555050916001019190600101906200027f565b5b509050620002b69190620002e2565b5090565b620002df91905b80821115620002db576000816000905550600101620002c1565b5090565b90565b6200030991905b80821115620003055760008082016000905550600101620002e9565b5090565b90565b61182f806200031c6000396000f3fe6080604052600436106100c25760003560e01c80638cd86f021161007f578063a9059cbb11610059578063a9059cbb146104ed578063dc2d9af014610560578063dd62ed3e14610599578063f8b2cb4f1461061e576100c2565b80638cd86f021461038857806395d89b41146104175780639f8a0aa6146104a7576100c2565b806306fdde03146100c7578063095ea7b31461015757806323b872dd146101ca5780634e69d5601461025d57806370a08231146102b05780637e43891814610315575b600080fd5b3480156100d357600080fd5b506100dc6106ab565b6040518080602001828103825283818151815260200191508051906020019080838360005b8381101561011c578082015181840152602081019050610101565b50505050905090810190601f1680156101495780820380516001836020036101000a031916815260200191505b509250505060405180910390f35b34801561016357600080fd5b506101b06004803603604081101561017a57600080fd5b81019080803573ffffffffffffffffffffffffffffffffffffffff16906020019092919080359060200190929190505050610749565b604051808215151515815260200191505060405180910390f35b3480156101d657600080fd5b50610243600480360360608110156101ed57600080fd5b81019080803573ffffffffffffffffffffffffffffffffffffffff169060200190929190803573ffffffffffffffffffffffffffffffffffffffff169060200190929190803590602001909291905050506109fe565b604051808215151515815260200191505060405180910390f35b34801561026957600080fd5b50610272610d23565b6040518082601060200280838360005b8381101561029d578082015181840152602081019050610282565b5050505090500191505060405180910390f35b3480156102bc57600080fd5b506102ff600480360360208110156102d357600080fd5b81019080803573ffffffffffffffffffffffffffffffffffffffff169060200190929190505050610e41565b6040518082815260200191505060405180910390f35b34801561032157600080fd5b5061036e6004803603604081101561033857600080fd5b81019080803573ffffffffffffffffffffffffffffffffffffffff16906020019092919080359060200190929190505050610e8d565b604051808215151515815260200191505060405180910390f35b34801561039457600080fd5b50610401600480360360608110156103ab57600080fd5b81019080803573ffffffffffffffffffffffffffffffffffffffff169060200190929190803573ffffffffffffffffffffffffffffffffffffffff16906020019092919080359060200190929190505050610f61565b6040518082815260200191505060405180910390f35b34801561042357600080fd5b5061042c610fa2565b6040518080602001828103825283818151815260200191508051906020019080838360005b8381101561046c578082015181840152602081019050610451565b50505050905090810190601f1680156104995780820380516001836020036101000a031916815260200191505b509250505060405180910390f35b6104d3600480360360208110156104bd57600080fd5b8101908080359060200190929190505050611040565b604051808215151515815260200191505060405180910390f35b3480156104f957600080fd5b506105466004803603604081101561051057600080fd5b81019080803573ffffffffffffffffffffffffffffffffffffffff16906020019092919080359060200190929190505050611206565b604051808215151515815260200191505060405180910390f35b34801561056c57600080fd5b50610575611368565b6040518082600281111561058557fe5b60ff16815260200191505060405180910390f35b3480156105a557600080fd5b50610608600480360360408110156105bc57600080fd5b81019080803573ffffffffffffffffffffffffffffffffffffffff169060200190929190803573ffffffffffffffffffffffffffffffffffffffff169060200190929190505050611370565b6040518082815260200191505060405180910390f35b34801561062a57600080fd5b5061066d6004803603602081101561064157600080fd5b81019080803573ffffffffffffffffffffffffffffffffffffffff1690602001909291905050506113fa565b6040518082601060200280838360005b8381101561069857808201518184015260208101905061067d565b5050505090500191505060405180910390f35b60008054600181600116156101000203166002900480601f0160208091040260200160405190810160405280929190818152602001828054600181600116156101000203166002900480156107415780601f1061071657610100808354040283529160200191610741565b820191906000526020600020905b81548152906001019060200180831161072457829003601f168201915b505050505081565b60006010821061075857600080fd5b600082101561076657600080fd5b600073ffffffffffffffffffffffffffffffffffffffff168373ffffffffffffffffffffffffffffffffffffffff1614156107a057600080fd5b6060600760003373ffffffffffffffffffffffffffffffffffffffff1673ffffffffffffffffffffffffffffffffffffffff16815260200190815260200160002060008573ffffffffffffffffffffffffffffffffffffffff1673ffffffffffffffffffffffffffffffffffffffff168152602001908152602001600020805480602002602001604051908101604052809291908181526020016000905b82821015610876578382906000526020600020016040518060200160405290816000820154815250508152602001906001019061083e565b50505050905060008090505b81518110156108c2578382828151811061089857fe5b60200260200101516000015114156108b5576001925050506109f8565b8080600101915050610882565b50600760003373ffffffffffffffffffffffffffffffffffffffff1673ffffffffffffffffffffffffffffffffffffffff16815260200190815260200160002060008573ffffffffffffffffffffffffffffffffffffffff1673ffffffffffffffffffffffffffffffffffffffff1681526020019081526020016000206004600185038154811061094f57fe5b90600052602060002001908060018154018082558091505090600182039060005260206000200160009091929091909150600082015481600001555050508373ffffffffffffffffffffffffffffffffffffffff163373ffffffffffffffffffffffffffffffffffffffff167f8c5be1e5ebec7d5bd14f71427d1e84f3dd0314c0f7b2291e5b200ac8c7c3b925856040518082815260200191505060405180910390a360019150505b92915050565b60006060600760008673ffffffffffffffffffffffffffffffffffffffff1673ffffffffffffffffffffffffffffffffffffffff16815260200190815260200160002060003373ffffffffffffffffffffffffffffffffffffffff1673ffffffffffffffffffffffffffffffffffffffff168152602001908152602001600020805480602002602001604051908101604052809291908181526020016000905b82821015610ad65783829060005260206000200160405180602001604052908160008201548152505081526020019060010190610a9e565b505050509050600080905060008090505b600660008873ffffffffffffffffffffffffffffffffffffffff1673ffffffffffffffffffffffffffffffffffffffff16815260200190815260200160002080549050811015610ba75784600660008973ffffffffffffffffffffffffffffffffffffffff1673ffffffffffffffffffffffffffffffffffffffff1681526020019081526020016000208281548110610b7c57fe5b90600052602060002001600001541415610b995760019150610b9a565b5b8080600101915050610ae7565b5080610bb857600092505050610d1c565b60008090505b8251811015610d145784838281518110610bd457fe5b602002602001015160000151148015610bf45750610bf28686610e8d565b155b15610d0757610c0387866114d2565b15610d0657600660008773ffffffffffffffffffffffffffffffffffffffff1673ffffffffffffffffffffffffffffffffffffffff16815260200190815260200160002060046001870381548110610c5757fe5b90600052602060002001908060018154018082558091505090600182039060005260206000200160009091929091909150600082015481600001555050508573ffffffffffffffffffffffffffffffffffffffff168773ffffffffffffffffffffffffffffffffffffffff167fddf252ad1be2c89b69c2b068fc378daa952ba7f163c4a11628f55a4df523b3ef876040518082815260200191505060405180910390a360019350505050610d1c565b5b8080600101915050610bbe565b506000925050505b9392505050565b610d2b611784565b60008090505b60066000600360009054906101000a900473ffffffffffffffffffffffffffffffffffffffff1673ffffffffffffffffffffffffffffffffffffffff1673ffffffffffffffffffffffffffffffffffffffff16815260200190815260200160002080549050811015610e3d57600182600160066000600360009054906101000a900473ffffffffffffffffffffffffffffffffffffffff1673ffffffffffffffffffffffffffffffffffffffff1673ffffffffffffffffffffffffffffffffffffffff1681526020019081526020016000208481548110610e0e57fe5b90600052602060002001600001540360108110610e2757fe5b6020020181815250508080600101915050610d31565b5090565b6000600660008373ffffffffffffffffffffffffffffffffffffffff1673ffffffffffffffffffffffffffffffffffffffff168152602001908152602001600020805490509050919050565b600080600090505b600660008573ffffffffffffffffffffffffffffffffffffffff1673ffffffffffffffffffffffffffffffffffffffff16815260200190815260200160002080549050811015610f555782600660008673ffffffffffffffffffffffffffffffffffffffff1673ffffffffffffffffffffffffffffffffffffffff1681526020019081526020016000208281548110610f2a57fe5b90600052602060002001600001541415610f48576001915050610f5b565b8080600101915050610e95565b50600090505b92915050565b60076020528260005260406000206020528160005260406000208181548110610f8657fe5b9060005260206000200160009250925050508060000154905081565b60018054600181600116156101000203166002900480601f0160208091040260200160405190810160405280929190818152602001828054600181600116156101000203166002900480156110385780601f1061100d57610100808354040283529160200191611038565b820191906000526020600020905b81548152906001019060200180831161101b57829003601f168201915b505050505081565b600080821161104e57600080fd5b601082111561105c57600080fd5b600360009054906101000a900473ffffffffffffffffffffffffffffffffffffffff1673ffffffffffffffffffffffffffffffffffffffff163373ffffffffffffffffffffffffffffffffffffffff1614156110b757600080fd5b6110e3600360009054906101000a900473ffffffffffffffffffffffffffffffffffffffff16836114d2565b1561120157600660003373ffffffffffffffffffffffffffffffffffffffff1673ffffffffffffffffffffffffffffffffffffffff1681526020019081526020016000206004600184038154811061113757fe5b90600052602060002001908060018154018082558091505090600182039060005260206000200160009091929091909150600082015481600001555050503373ffffffffffffffffffffffffffffffffffffffff16600360009054906101000a900473ffffffffffffffffffffffffffffffffffffffff1673ffffffffffffffffffffffffffffffffffffffff167fddf252ad1be2c89b69c2b068fc378daa952ba7f163c4a11628f55a4df523b3ef846040518082815260200191505060405180910390a3600190505b919050565b60008073ffffffffffffffffffffffffffffffffffffffff168373ffffffffffffffffffffffffffffffffffffffff16141561124157600080fd5b6000821161124e57600080fd5b601082111561125c57600080fd5b61126633836114d2565b1561136257600660008473ffffffffffffffffffffffffffffffffffffffff1673ffffffffffffffffffffffffffffffffffffffff168152602001908152602001600020600460018403815481106112ba57fe5b90600052602060002001908060018154018082558091505090600182039060005260206000200160009091929091909150600082015481600001555050508273ffffffffffffffffffffffffffffffffffffffff163373ffffffffffffffffffffffffffffffffffffffff167fddf252ad1be2c89b69c2b068fc378daa952ba7f163c4a11628f55a4df523b3ef846040518082815260200191505060405180910390a3600190505b92915050565b600080905090565b6000600760008473ffffffffffffffffffffffffffffffffffffffff1673ffffffffffffffffffffffffffffffffffffffff16815260200190815260200160002060008373ffffffffffffffffffffffffffffffffffffffff1673ffffffffffffffffffffffffffffffffffffffff16815260200190815260200160002080549050905092915050565b611402611784565b60008090505b600660008473ffffffffffffffffffffffffffffffffffffffff1673ffffffffffffffffffffffffffffffffffffffff168152602001908152602001600020805490508110156114cc57600660008473ffffffffffffffffffffffffffffffffffffffff1673ffffffffffffffffffffffffffffffffffffffff168152602001908152602001600020818154811061149c57fe5b90600052602060002001600001548282601081106114b657fe5b6020020181815250508080600101915050611408565b50919050565b600080600660008573ffffffffffffffffffffffffffffffffffffffff1673ffffffffffffffffffffffffffffffffffffffff16815260200190815260200160002080549050905060008090505b6001820381101561177c5783600660008773ffffffffffffffffffffffffffffffffffffffff1673ffffffffffffffffffffffffffffffffffffffff168152602001908152602001600020828154811061157657fe5b9060005260206000200160000154141561176f57600182038114156115f957600660008673ffffffffffffffffffffffffffffffffffffffff1673ffffffffffffffffffffffffffffffffffffffff16815260200190815260200160002081815481106115df57fe5b906000526020600020016000808201600090555050611714565b600660008673ffffffffffffffffffffffffffffffffffffffff1673ffffffffffffffffffffffffffffffffffffffff168152602001908152602001600020600183038154811061164657fe5b90600052602060002001600660008773ffffffffffffffffffffffffffffffffffffffff1673ffffffffffffffffffffffffffffffffffffffff168152602001908152602001600020828154811061169a57fe5b9060005260206000200160008201548160000155905050600660008673ffffffffffffffffffffffffffffffffffffffff1673ffffffffffffffffffffffffffffffffffffffff16815260200190815260200160002060018303815481106116fe57fe5b9060005260206000200160008082016000905550505b6001600660008773ffffffffffffffffffffffffffffffffffffffff1673ffffffffffffffffffffffffffffffffffffffff1681526020019081526020016000208181805490500391508161176991906117a7565b50600192505b8080600101915050611520565b505092915050565b604051806102000160405280601090602082028038833980820191505090505090565b8154818355818111156117ce578183600052602060002091820191016117cd91906117d3565b5b505050565b6117f791905b808211156117f357600080820160009055506001016117d9565b5090565b9056fea265627a7a72315820af66b9cb950cb7626a45db8a20014c2282e440b9fdf0ef482c05c0cef624cd8064736f6c63430005100032",
  "source": "pragma solidity >=0.4.22 <0.7.0;\r\n\r\ncontract MetaCoin {\r\n\tstring public name = \"TreeCoin\"; //树币\r\n\tstring public symbol = \"TRC\";\r\n\tuint constant totalSupply = 16;\r\n\tuint256 price = 20; //认领价格\r\n\taddress farmer;\r\n\tstruct Trc {\r\n\t\tuint number; //果树编号\r\n\t}\r\n\tTrc[] initTrcs;\r\n\tenum Process { free, Appeal, end }\r\n\tProcess process;\r\n\tmapping (address => Trc[]) balances;\r\n\tmapping (address => mapping (address => Trc[])) public allowed;\r\n\r\n\tevent Transfer(address indexed _from, address indexed _to, uint256 _value);\r\n\tevent Approval(address indexed _from, address indexed _to, uint256 _value);\r\n\r\n\tconstructor() public {\r\n\t\tfor(uint i = 1; i <= totalSupply; i++) {\r\n\t\t\tinitTrcs.push(Trc(i));\r\n\t\t}\r\n\t\tfarmer = tx.origin;\r\n\t\tbalances[farmer] = initTrcs;\r\n\t}\r\n\r\n\t//余额\r\n\tfunction balanceOf(address _owner) public view returns (uint256 balance){\r\n\t\treturn balances[_owner].length;\r\n\t}\r\n\r\n\tfunction transfer(address _to, uint256 _value) public returns (bool success) {\r\n\t\trequire(_to != address(0x0));\r\n        require(_value > 0);\r\n        require(_value <= 16);\r\n\t\tif (_deleteOne(msg.sender, _value)) {\r\n\t\t\tbalances[_to].push(initTrcs[_value-1]);\r\n\t\t\temit Transfer(msg.sender, _to, _value);\r\n\t\t\tsuccess = true;\r\n\t\t}\r\n    }\r\n\r\n    function transferFrom(address _from, address _to, uint256 _value) public returns (bool success) {\r\n        Trc[] memory allowance = allowed[_from][msg.sender];\r\n\t\tbool flag = false;\r\n\t\tfor (uint i = 0; i < balances[_from].length; i++) {\r\n\t\t\tif (balances[_from][i].number == _value){\r\n\t\t\t\tflag = true;\r\n\t\t\t\tcontinue;\r\n\t\t\t}\r\n\t\t}\r\n\t\tif (!flag){\r\n\t\t\treturn false; //无此树币\r\n\t\t}\r\n\t\tfor (uint i = 0; i < allowance.length; i++) {\r\n\t\t\tif ((allowance[i].number == _value) && (!checkOwn(_to, _value))) {\r\n\t\t\t\tif (_deleteOne(_from, _value)) {\r\n\t\t\t\t\tbalances[_to].push(initTrcs[_value-1]);\r\n\t\t\t\t\temit Transfer(_from, _to, _value);\r\n\t\t\t\t\treturn true;\r\n\t\t\t\t}\r\n\t\t\t}\r\n\t\t}\r\n\t\treturn false;\r\n    }\r\n\r\n    function approve(address _spender, uint256 _value) public returns (bool success) {\r\n\t\trequire(_value < totalSupply);\r\n\t\trequire(_value >= 0);\r\n\t\trequire(_spender != address(0));\r\n        Trc[] memory allowance = allowed[msg.sender][_spender];\r\n\t\tfor (uint i = 0; i < allowance.length; i++) {\r\n\t\t\tif (allowance[i].number == _value) {\r\n\t\t\t\treturn true;\r\n\t\t\t}\r\n\t\t}\r\n        allowed[msg.sender][_spender].push(initTrcs[_value-1]);\r\n        emit Approval(msg.sender, _spender, _value);\r\n        return true;\r\n    }\r\n\r\n\tfunction allowance(address _owner, address _spender) public view returns (uint256 remaining) {\r\n\t\treturn allowed[_owner][_spender].length;\r\n\t}\r\n\r\n\tfunction checkOwn(address addr, uint number) public view returns(bool) {\r\n\t\tfor (uint i = 0; i < balances[addr].length; i++){\r\n\t\t\tif (balances[addr][i].number == number) {\r\n\t\t\t\treturn true;\r\n\t\t\t}\r\n\t\t}\r\n\t\treturn false;\r\n\t}\r\n\r\n\t//删除持有的树币\r\n\tfunction _deleteOne(address addr, uint number) private returns(bool success){\r\n\t\tuint length = balances[addr].length;\r\n\t\tfor (uint i = 0; i < length - 1; i++) {\r\n\t\t\tif (balances[addr][i].number == number) {\r\n\t\t\t\tif (i == length - 1) {\r\n\t\t\t\t\tdelete balances[addr][i];\r\n\t\t\t\t} else {\r\n\t\t\t\t\tbalances[addr][i] = balances[addr][length-1];\r\n\t\t\t\t\tdelete balances[addr][length-1];\r\n\t\t\t\t}\r\n\t\t\t\tbalances[addr].length -= 1;\r\n\t\t\t\tsuccess = true;\r\n\t\t\t}\r\n\t\t}\r\n\t}\r\n\r\n\t//认领果树\r\n\tfunction buyTrc(uint number) public payable returns (bool success) {\r\n        require(number > 0);\r\n        require(number <= totalSupply);\r\n\t\trequire(msg.sender != farmer);\r\n\t\tif(_deleteOne(farmer, number)) {\r\n\t\t\tbalances[msg.sender].push(initTrcs[number-1]);\r\n\t\t\temit Transfer(farmer, msg.sender, number);\r\n\t\t\tsuccess = true;\r\n\t\t}\r\n\t}\r\n\r\n\t//查看持有的树币列表\r\n\tfunction getBalance(address addr) public view returns(uint[totalSupply] memory bs) {\r\n\t\tfor (uint i = 0; i < balances[addr].length; i++) {\r\n\t\t\tbs[i] = balances[addr][i].number;\r\n\t\t}\r\n\t}\r\n\r\n\t//查看项目进展\r\n\tfunction getProcess() public view returns(Process) {\r\n\t\treturn Process.free;\r\n\t}\r\n\t\r\n\t//查看所有果树状态\r\n\tfunction getStatus() public view returns(uint[totalSupply] memory bs){\r\n\t\tfor (uint i = 0; i < balances[farmer].length; i++) {\r\n\t\t\tbs[balances[farmer][i].number-1] = 1;\r\n\t\t}\r\n\t}\r\n\r\n}\r\n",
  "sourcePath": "D:/codes/blocks/farmer/contracts/MetaCoin.sol",
  "compiler": {
    "name": "solc",
    "version": "0.5.16+commit.9c3226ce.Emscripten.clang"
  },
  "schemaVersion": "3.3.2",
  "updatedAt": "2020-11-29T10:07:45.524Z",
  "networkType": "ethereum",
  "devdoc": {
    "methods": {}
  },
  "userdoc": {
    "methods": {}
  }
}