{
  "contractName": "MetaCoin",
  "abi": [
    {
      "inputs": [],
      "payable": false,
      "stateMutability": "nonpayable",
      "type": "constructor"
    },
    {
      "anonymous": false,
      "inputs": [
        {
          "indexed": true,
          "internalType": "address",
          "name": "_from",
          "type": "address"
        },
        {
          "indexed": true,
          "internalType": "address",
          "name": "_to",
          "type": "address"
        },
        {
          "indexed": false,
          "internalType": "uint256",
          "name": "_value",
          "type": "uint256"
        }
      ],
      "name": "Approval",
      "type": "event"
    },
    {
      "anonymous": false,
      "inputs": [
        {
          "indexed": true,
          "internalType": "address",
          "name": "_from",
          "type": "address"
        },
        {
          "indexed": true,
          "internalType": "address",
          "name": "_to",
          "type": "address"
        },
        {
          "indexed": false,
          "internalType": "uint256",
          "name": "_value",
          "type": "uint256"
        }
      ],
      "name": "Transfer",
      "type": "event"
    },
    {
      "constant": true,
      "inputs": [
        {
          "internalType": "address",
          "name": "",
          "type": "address"
        },
        {
          "internalType": "address",
          "name": "",
          "type": "address"
        },
        {
          "internalType": "uint256",
          "name": "",
          "type": "uint256"
        }
      ],
      "name": "allowed",
      "outputs": [
        {
          "internalType": "uint256",
          "name": "number",
          "type": "uint256"
        }
      ],
      "payable": false,
      "stateMutability": "view",
      "type": "function"
    },
    {
      "constant": true,
      "inputs": [],
      "name": "name",
      "outputs": [
        {
          "internalType": "string",
          "name": "",
          "type": "string"
        }
      ],
      "payable": false,
      "stateMutability": "view",
      "type": "function"
    },
    {
      "constant": true,
      "inputs": [],
      "name": "symbol",
      "outputs": [
        {
          "internalType": "string",
          "name": "",
          "type": "string"
        }
      ],
      "payable": false,
      "stateMutability": "view",
      "type": "function"
    },
    {
      "constant": true,
      "inputs": [
        {
          "internalType": "address",
          "name": "_owner",
          "type": "address"
        }
      ],
      "name": "balanceOf",
      "outputs": [
        {
          "internalType": "uint256",
          "name": "balance",
          "type": "uint256"
        }
      ],
      "payable": false,
      "stateMutability": "view",
      "type": "function"
    },
    {
      "constant": false,
      "inputs": [
        {
          "internalType": "address",
          "name": "_to",
          "type": "address"
        },
        {
          "internalType": "uint256",
          "name": "_value",
          "type": "uint256"
        }
      ],
      "name": "transfer",
      "outputs": [
        {
          "internalType": "bool",
          "name": "success",
          "type": "bool"
        }
      ],
      "payable": false,
      "stateMutability": "nonpayable",
      "type": "function"
    },
    {
      "constant": false,
      "inputs": [
        {
          "internalType": "address",
          "name": "_from",
          "type": "address"
        },
        {
          "internalType": "address",
          "name": "_to",
          "type": "address"
        },
        {
          "internalType": "uint256",
          "name": "_value",
          "type": "uint256"
        }
      ],
      "name": "transferFrom",
      "outputs": [
        {
          "internalType": "bool",
          "name": "success",
          "type": "bool"
        }
      ],
      "payable": false,
      "stateMutability": "nonpayable",
      "type": "function"
    },
    {
      "constant": false,
      "inputs": [
        {
          "internalType": "address",
          "name": "_spender",
          "type": "address"
        },
        {
          "internalType": "uint256",
          "name": "_value",
          "type": "uint256"
        }
      ],
      "name": "approve",
      "outputs": [
        {
          "internalType": "bool",
          "name": "success",
          "type": "bool"
        }
      ],
      "payable": false,
      "stateMutability": "nonpayable",
      "type": "function"
    },
    {
      "constant": true,
      "inputs": [
        {
          "internalType": "address",
          "name": "_owner",
          "type": "address"
        },
        {
          "internalType": "address",
          "name": "_spender",
          "type": "address"
        }
      ],
      "name": "allowance",
      "outputs": [
        {
          "internalType": "uint256",
          "name": "remaining",
          "type": "uint256"
        }
      ],
      "payable": false,
      "stateMutability": "view",
      "type": "function"
    },
    {
      "constant": true,
      "inputs": [
        {
          "internalType": "address",
          "name": "addr",
          "type": "address"
        },
        {
          "internalType": "uint256",
          "name": "number",
          "type": "uint256"
        }
      ],
      "name": "checkOwn",
      "outputs": [
        {
          "internalType": "bool",
          "name": "",
          "type": "bool"
        }
      ],
      "payable": false,
      "stateMutability": "view",
      "type": "function"
    },
    {
      "constant": false,
      "inputs": [
        {
          "internalType": "uint256",
          "name": "number",
          "type": "uint256"
        }
      ],
      "name": "buyTrc",
      "outputs": [
        {
          "internalType": "bool",
          "name": "success",
          "type": "bool"
        }
      ],
      "payable": true,
      "stateMutability": "payable",
      "type": "function"
    },
    {
      "constant": true,
      "inputs": [
        {
          "internalType": "address",
          "name": "addr",
          "type": "address"
        }
      ],
      "name": "getBalance",
      "outputs": [
        {
          "internalType": "uint256[16]",
          "name": "bs",
          "type": "uint256[16]"
        }
      ],
      "payable": false,
      "stateMutability": "view",
      "type": "function"
    },
    {
      "constant": true,
      "inputs": [],
      "name": "getProcess",
      "outputs": [
        {
          "internalType": "enum MetaCoin.Process",
          "name": "",
          "type": "uint8"
        }
      ],
      "payable": false,
      "stateMutability": "view",
      "type": "function"
    },
    {
      "constant": true,
      "inputs": [],
      "name": "getStatus",
      "outputs": [
        {
          "internalType": "uint256[16]",
          "name": "bs",
          "type": "uint256[16]"
        }
      ],
      "payable": false,
      "stateMutability": "view",
      "type": "function"
    }
  ],
  "bytecode": "0x60806040526040518060400160405280600881526020017f54726565436f696e0000000000000000000000000000000000000000000000008152506000908051906020019062000051929190620001d9565b506040518060400160405280600381526020017f5452430000000000000000000000000000000000000000000000000000000000815250600190805190602001906200009f929190620001d9565b5067016345785d8a0000600255348015620000b957600080fd5b506000600190505b601081116200011d576004604051806020016040528083815250908060018154018082558091505090600182039060005260206000200160009091929091909150600082015181600001555050508080600101915050620000c1565b5032600360006101000a81548173ffffffffffffffffffffffffffffffffffffffff021916908373ffffffffffffffffffffffffffffffffffffffff160217905550600460066000600360009054906101000a900473ffffffffffffffffffffffffffffffffffffffff1673ffffffffffffffffffffffffffffffffffffffff1673ffffffffffffffffffffffffffffffffffffffff168152602001908152602001600020908054620001d292919062000260565b5062000313565b828054600181600116156101000203166002900490600052602060002090601f016020900481019282601f106200021c57805160ff19168380011785556200024d565b828001600101855582156200024d579182015b828111156200024c5782518255916020019190600101906200022f565b5b5090506200025c9190620002c1565b5090565b828054828255906000526020600020908101928215620002ae5760005260206000209182015b82811115620002ad5782826000820154816000015550509160010191906001019062000286565b5b509050620002bd9190620002e9565b5090565b620002e691905b80821115620002e2576000816000905550600101620002c8565b5090565b90565b6200031091905b808211156200030c5760008082016000905550600101620002f0565b5090565b90565b61184780620003236000396000f3fe6080604052600436106100c25760003560e01c80638cd86f021161007f578063a9059cbb11610059578063a9059cbb146104ed578063dc2d9af014610560578063dd62ed3e14610599578063f8b2cb4f1461061e576100c2565b80638cd86f021461038857806395d89b41146104175780639f8a0aa6146104a7576100c2565b806306fdde03146100c7578063095ea7b31461015757806323b872dd146101ca5780634e69d5601461025d57806370a08231146102b05780637e43891814610315575b600080fd5b3480156100d357600080fd5b506100dc6106ab565b6040518080602001828103825283818151815260200191508051906020019080838360005b8381101561011c578082015181840152602081019050610101565b50505050905090810190601f1680156101495780820380516001836020036101000a031916815260200191505b509250505060405180910390f35b34801561016357600080fd5b506101b06004803603604081101561017a57600080fd5b81019080803573ffffffffffffffffffffffffffffffffffffffff16906020019092919080359060200190929190505050610749565b604051808215151515815260200191505060405180910390f35b3480156101d657600080fd5b50610243600480360360608110156101ed57600080fd5b81019080803573ffffffffffffffffffffffffffffffffffffffff169060200190929190803573ffffffffffffffffffffffffffffffffffffffff169060200190929190803590602001909291905050506109fe565b604051808215151515815260200191505060405180910390f35b34801561026957600080fd5b50610272610d23565b6040518082601060200280838360005b8381101561029d578082015181840152602081019050610282565b5050505090500191505060405180910390f35b3480156102bc57600080fd5b506102ff600480360360208110156102d357600080fd5b81019080803573ffffffffffffffffffffffffffffffffffffffff169060200190929190505050610e41565b6040518082815260200191505060405180910390f35b34801561032157600080fd5b5061036e6004803603604081101561033857600080fd5b81019080803573ffffffffffffffffffffffffffffffffffffffff16906020019092919080359060200190929190505050610e8d565b604051808215151515815260200191505060405180910390f35b34801561039457600080fd5b50610401600480360360608110156103ab57600080fd5b81019080803573ffffffffffffffffffffffffffffffffffffffff169060200190929190803573ffffffffffffffffffffffffffffffffffffffff16906020019092919080359060200190929190505050610f61565b6040518082815260200191505060405180910390f35b34801561042357600080fd5b5061042c610fa2565b6040518080602001828103825283818151815260200191508051906020019080838360005b8381101561046c578082015181840152602081019050610451565b50505050905090810190601f1680156104995780820380516001836020036101000a031916815260200191505b509250505060405180910390f35b6104d3600480360360208110156104bd57600080fd5b8101908080359060200190929190505050611040565b604051808215151515815260200191505060405180910390f35b3480156104f957600080fd5b506105466004803603604081101561051057600080fd5b81019080803573ffffffffffffffffffffffffffffffffffffffff1690602001909291908035906020019092919050505061121e565b604051808215151515815260200191505060405180910390f35b34801561056c57600080fd5b50610575611380565b6040518082600281111561058557fe5b60ff16815260200191505060405180910390f35b3480156105a557600080fd5b50610608600480360360408110156105bc57600080fd5b81019080803573ffffffffffffffffffffffffffffffffffffffff169060200190929190803573ffffffffffffffffffffffffffffffffffffffff169060200190929190505050611388565b6040518082815260200191505060405180910390f35b34801561062a57600080fd5b5061066d6004803603602081101561064157600080fd5b81019080803573ffffffffffffffffffffffffffffffffffffffff169060200190929190505050611412565b6040518082601060200280838360005b8381101561069857808201518184015260208101905061067d565b5050505090500191505060405180910390f35b60008054600181600116156101000203166002900480601f0160208091040260200160405190810160405280929190818152602001828054600181600116156101000203166002900480156107415780601f1061071657610100808354040283529160200191610741565b820191906000526020600020905b81548152906001019060200180831161072457829003601f168201915b505050505081565b60006010821061075857600080fd5b600082101561076657600080fd5b600073ffffffffffffffffffffffffffffffffffffffff168373ffffffffffffffffffffffffffffffffffffffff1614156107a057600080fd5b6060600760003373ffffffffffffffffffffffffffffffffffffffff1673ffffffffffffffffffffffffffffffffffffffff16815260200190815260200160002060008573ffffffffffffffffffffffffffffffffffffffff1673ffffffffffffffffffffffffffffffffffffffff168152602001908152602001600020805480602002602001604051908101604052809291908181526020016000905b82821015610876578382906000526020600020016040518060200160405290816000820154815250508152602001906001019061083e565b50505050905060008090505b81518110156108c2578382828151811061089857fe5b60200260200101516000015114156108b5576001925050506109f8565b8080600101915050610882565b50600760003373ffffffffffffffffffffffffffffffffffffffff1673ffffffffffffffffffffffffffffffffffffffff16815260200190815260200160002060008573ffffffffffffffffffffffffffffffffffffffff1673ffffffffffffffffffffffffffffffffffffffff1681526020019081526020016000206004600185038154811061094f57fe5b90600052602060002001908060018154018082558091505090600182039060005260206000200160009091929091909150600082015481600001555050508373ffffffffffffffffffffffffffffffffffffffff163373ffffffffffffffffffffffffffffffffffffffff167f8c5be1e5ebec7d5bd14f71427d1e84f3dd0314c0f7b2291e5b200ac8c7c3b925856040518082815260200191505060405180910390a360019150505b92915050565b60006060600760008673ffffffffffffffffffffffffffffffffffffffff1673ffffffffffffffffffffffffffffffffffffffff16815260200190815260200160002060003373ffffffffffffffffffffffffffffffffffffffff1673ffffffffffffffffffffffffffffffffffffffff168152602001908152602001600020805480602002602001604051908101604052809291908181526020016000905b82821015610ad65783829060005260206000200160405180602001604052908160008201548152505081526020019060010190610a9e565b505050509050600080905060008090505b600660008873ffffffffffffffffffffffffffffffffffffffff1673ffffffffffffffffffffffffffffffffffffffff16815260200190815260200160002080549050811015610ba75784600660008973ffffffffffffffffffffffffffffffffffffffff1673ffffffffffffffffffffffffffffffffffffffff1681526020019081526020016000208281548110610b7c57fe5b90600052602060002001600001541415610b995760019150610b9a565b5b8080600101915050610ae7565b5080610bb857600092505050610d1c565b60008090505b8251811015610d145784838281518110610bd457fe5b602002602001015160000151148015610bf45750610bf28686610e8d565b155b15610d0757610c0387866114ea565b15610d0657600660008773ffffffffffffffffffffffffffffffffffffffff1673ffffffffffffffffffffffffffffffffffffffff16815260200190815260200160002060046001870381548110610c5757fe5b90600052602060002001908060018154018082558091505090600182039060005260206000200160009091929091909150600082015481600001555050508573ffffffffffffffffffffffffffffffffffffffff168773ffffffffffffffffffffffffffffffffffffffff167fddf252ad1be2c89b69c2b068fc378daa952ba7f163c4a11628f55a4df523b3ef876040518082815260200191505060405180910390a360019350505050610d1c565b5b8080600101915050610bbe565b506000925050505b9392505050565b610d2b61179c565b60008090505b60066000600360009054906101000a900473ffffffffffffffffffffffffffffffffffffffff1673ffffffffffffffffffffffffffffffffffffffff1673ffffffffffffffffffffffffffffffffffffffff16815260200190815260200160002080549050811015610e3d57600182600160066000600360009054906101000a900473ffffffffffffffffffffffffffffffffffffffff1673ffffffffffffffffffffffffffffffffffffffff1673ffffffffffffffffffffffffffffffffffffffff1681526020019081526020016000208481548110610e0e57fe5b90600052602060002001600001540360108110610e2757fe5b6020020181815250508080600101915050610d31565b5090565b6000600660008373ffffffffffffffffffffffffffffffffffffffff1673ffffffffffffffffffffffffffffffffffffffff168152602001908152602001600020805490509050919050565b600080600090505b600660008573ffffffffffffffffffffffffffffffffffffffff1673ffffffffffffffffffffffffffffffffffffffff16815260200190815260200160002080549050811015610f555782600660008673ffffffffffffffffffffffffffffffffffffffff1673ffffffffffffffffffffffffffffffffffffffff1681526020019081526020016000208281548110610f2a57fe5b90600052602060002001600001541415610f48576001915050610f5b565b8080600101915050610e95565b50600090505b92915050565b60076020528260005260406000206020528160005260406000208181548110610f8657fe5b9060005260206000200160009250925050508060000154905081565b60018054600181600116156101000203166002900480601f0160208091040260200160405190810160405280929190818152602001828054600181600116156101000203166002900480156110385780601f1061100d57610100808354040283529160200191611038565b820191906000526020600020905b81548152906001019060200180831161101b57829003601f168201915b505050505081565b600080821161104e57600080fd5b601082111561105c57600080fd5b600360009054906101000a900473ffffffffffffffffffffffffffffffffffffffff1673ffffffffffffffffffffffffffffffffffffffff163373ffffffffffffffffffffffffffffffffffffffff1614156110b757600080fd5b60025434146110c557600080fd5b6110f1600360009054906101000a900473ffffffffffffffffffffffffffffffffffffffff16836114ea565b1561120f57600660003373ffffffffffffffffffffffffffffffffffffffff1673ffffffffffffffffffffffffffffffffffffffff1681526020019081526020016000206004600184038154811061114557fe5b90600052602060002001908060018154018082558091505090600182039060005260206000200160009091929091909150600082015481600001555050503373ffffffffffffffffffffffffffffffffffffffff16600360009054906101000a900473ffffffffffffffffffffffffffffffffffffffff1673ffffffffffffffffffffffffffffffffffffffff167fddf252ad1be2c89b69c2b068fc378daa952ba7f163c4a11628f55a4df523b3ef846040518082815260200191505060405180910390a3600190505b8061121957600080fd5b919050565b60008073ffffffffffffffffffffffffffffffffffffffff168373ffffffffffffffffffffffffffffffffffffffff16141561125957600080fd5b6000821161126657600080fd5b601082111561127457600080fd5b61127e33836114ea565b1561137a57600660008473ffffffffffffffffffffffffffffffffffffffff1673ffffffffffffffffffffffffffffffffffffffff168152602001908152602001600020600460018403815481106112d257fe5b90600052602060002001908060018154018082558091505090600182039060005260206000200160009091929091909150600082015481600001555050508273ffffffffffffffffffffffffffffffffffffffff163373ffffffffffffffffffffffffffffffffffffffff167fddf252ad1be2c89b69c2b068fc378daa952ba7f163c4a11628f55a4df523b3ef846040518082815260200191505060405180910390a3600190505b92915050565b600080905090565b6000600760008473ffffffffffffffffffffffffffffffffffffffff1673ffffffffffffffffffffffffffffffffffffffff16815260200190815260200160002060008373ffffffffffffffffffffffffffffffffffffffff1673ffffffffffffffffffffffffffffffffffffffff16815260200190815260200160002080549050905092915050565b61141a61179c565b60008090505b600660008473ffffffffffffffffffffffffffffffffffffffff1673ffffffffffffffffffffffffffffffffffffffff168152602001908152602001600020805490508110156114e457600660008473ffffffffffffffffffffffffffffffffffffffff1673ffffffffffffffffffffffffffffffffffffffff16815260200190815260200160002081815481106114b457fe5b90600052602060002001600001548282601081106114ce57fe5b6020020181815250508080600101915050611420565b50919050565b600080600660008573ffffffffffffffffffffffffffffffffffffffff1673ffffffffffffffffffffffffffffffffffffffff16815260200190815260200160002080549050905060008090505b600182038110156117945783600660008773ffffffffffffffffffffffffffffffffffffffff1673ffffffffffffffffffffffffffffffffffffffff168152602001908152602001600020828154811061158e57fe5b90600052602060002001600001541415611787576001820381141561161157600660008673ffffffffffffffffffffffffffffffffffffffff1673ffffffffffffffffffffffffffffffffffffffff16815260200190815260200160002081815481106115f757fe5b90600052602060002001600080820160009055505061172c565b600660008673ffffffffffffffffffffffffffffffffffffffff1673ffffffffffffffffffffffffffffffffffffffff168152602001908152602001600020600183038154811061165e57fe5b90600052602060002001600660008773ffffffffffffffffffffffffffffffffffffffff1673ffffffffffffffffffffffffffffffffffffffff16815260200190815260200160002082815481106116b257fe5b9060005260206000200160008201548160000155905050600660008673ffffffffffffffffffffffffffffffffffffffff1673ffffffffffffffffffffffffffffffffffffffff168152602001908152602001600020600183038154811061171657fe5b9060005260206000200160008082016000905550505b6001600660008773ffffffffffffffffffffffffffffffffffffffff1673ffffffffffffffffffffffffffffffffffffffff1681526020019081526020016000208181805490500391508161178191906117bf565b50600192505b8080600101915050611538565b505092915050565b604051806102000160405280601090602082028038833980820191505090505090565b8154818355818111156117e6578183600052602060002091820191016117e591906117eb565b5b505050565b61180f91905b8082111561180b57600080820160009055506001016117f1565b5090565b9056fea265627a7a723158209374b89177d65e75ed7c26c7a451ba8ee780d9d5229b897ba78b7ff0a65ed9a564736f6c63430005100032",
  "source": "pragma solidity >=0.4.22 <0.7.0;\n\ncontract MetaCoin {\n\tstring public name = \"TreeCoin\"; //树币\n\tstring public symbol = \"TRC\";\n\tuint constant totalSupply = 16;\n\tuint256 price = 10**17; //认领价格\n\taddress farmer;\n\tstruct Trc {\n\t\tuint number; //果树编号\n\t}\n\tTrc[] initTrcs;\n\tenum Process { free, Appeal, end }\n\tProcess process;\n\tmapping (address => Trc[]) balances;\n\tmapping (address => mapping (address => Trc[])) public allowed;\n\n\tevent Transfer(address indexed _from, address indexed _to, uint256 _value);\n\tevent Approval(address indexed _from, address indexed _to, uint256 _value);\n\n\tconstructor() public {\n\t\tfor(uint i = 1; i <= totalSupply; i++) {\n\t\t\tinitTrcs.push(Trc(i));\n\t\t}\n\t\tfarmer = tx.origin;\n\t\tbalances[farmer] = initTrcs;\n\t}\n\n\t//余额\n\tfunction balanceOf(address _owner) public view returns (uint256 balance){\n\t\treturn balances[_owner].length;\n\t}\n\n\tfunction transfer(address _to, uint256 _value) public returns (bool success) {\n\t\trequire(_to != address(0x0));\n        require(_value > 0);\n        require(_value <= 16);\n\t\tif (_deleteOne(msg.sender, _value)) {\n\t\t\tbalances[_to].push(initTrcs[_value-1]);\n\t\t\temit Transfer(msg.sender, _to, _value);\n\t\t\tsuccess = true;\n\t\t}\n    }\n\n    function transferFrom(address _from, address _to, uint256 _value) public returns (bool success) {\n        Trc[] memory allowance = allowed[_from][msg.sender];\n\t\tbool flag = false;\n\t\tfor (uint i = 0; i < balances[_from].length; i++) {\n\t\t\tif (balances[_from][i].number == _value){\n\t\t\t\tflag = true;\n\t\t\t\tcontinue;\n\t\t\t}\n\t\t}\n\t\tif (!flag){\n\t\t\treturn false; //无此树币\n\t\t}\n\t\tfor (uint i = 0; i < allowance.length; i++) {\n\t\t\tif ((allowance[i].number == _value) && (!checkOwn(_to, _value))) {\n\t\t\t\tif (_deleteOne(_from, _value)) {\n\t\t\t\t\tbalances[_to].push(initTrcs[_value-1]);\n\t\t\t\t\temit Transfer(_from, _to, _value);\n\t\t\t\t\treturn true;\n\t\t\t\t}\n\t\t\t}\n\t\t}\n\t\treturn false;\n    }\n\n    function approve(address _spender, uint256 _value) public returns (bool success) {\n\t\trequire(_value < totalSupply);\n\t\trequire(_value >= 0);\n\t\trequire(_spender != address(0));\n        Trc[] memory allowance = allowed[msg.sender][_spender];\n\t\tfor (uint i = 0; i < allowance.length; i++) {\n\t\t\tif (allowance[i].number == _value) {\n\t\t\t\treturn true;\n\t\t\t}\n\t\t}\n        allowed[msg.sender][_spender].push(initTrcs[_value-1]);\n        emit Approval(msg.sender, _spender, _value);\n        return true;\n    }\n\n\tfunction allowance(address _owner, address _spender) public view returns (uint256 remaining) {\n\t\treturn allowed[_owner][_spender].length;\n\t}\n\n\tfunction checkOwn(address addr, uint number) public view returns(bool) {\n\t\tfor (uint i = 0; i < balances[addr].length; i++){\n\t\t\tif (balances[addr][i].number == number) {\n\t\t\t\treturn true;\n\t\t\t}\n\t\t}\n\t\treturn false;\n\t}\n\n\t//删除持有的树币\n\tfunction _deleteOne(address addr, uint number) private returns(bool success){\n\t\tuint length = balances[addr].length;\n\t\tfor (uint i = 0; i < length - 1; i++) {\n\t\t\tif (balances[addr][i].number == number) {\n\t\t\t\tif (i == length - 1) {\n\t\t\t\t\tdelete balances[addr][i];\n\t\t\t\t} else {\n\t\t\t\t\tbalances[addr][i] = balances[addr][length-1];\n\t\t\t\t\tdelete balances[addr][length-1];\n\t\t\t\t}\n\t\t\t\tbalances[addr].length -= 1;\n\t\t\t\tsuccess = true;\n\t\t\t}\n\t\t}\n\t}\n\n\t//认领果树\n\tfunction buyTrc(uint number) public payable returns (bool success) {\n        require(number > 0);\n        require(number <= totalSupply);\n\t\trequire(msg.sender != farmer);\n\t\trequire(msg.value == price);\n\t\tif(_deleteOne(farmer, number)) {\n\t\t\tbalances[msg.sender].push(initTrcs[number-1]);\n\t\t\temit Transfer(farmer, msg.sender, number);\n\t\t\tsuccess = true;\n\t\t}\n\t\trequire(success);\n\t}\n\n\t//查看持有的树币列表\n\tfunction getBalance(address addr) public view returns(uint[totalSupply] memory bs) {\n\t\tfor (uint i = 0; i < balances[addr].length; i++) {\n\t\t\tbs[i] = balances[addr][i].number;\n\t\t}\n\t}\n\n\t//查看项目进展\n\tfunction getProcess() public view returns(Process) {\n\t\treturn Process.free;\n\t}\n\t\n\t//查看所有果树状态\n\tfunction getStatus() public view returns(uint[totalSupply] memory bs){\n\t\tfor (uint i = 0; i < balances[farmer].length; i++) {\n\t\t\tbs[balances[farmer][i].number-1] = 1;\n\t\t}\n\t}\n\n}\n",
  "sourcePath": "/home/f/codes/bcs/farmer/contracts/MetaCoin.sol",
  "compiler": {
    "name": "solc",
    "version": "0.5.16+commit.9c3226ce.Emscripten.clang"
  },
  "schemaVersion": "3.3.1",
  "updatedAt": "2020-11-30T09:30:05.058Z",
  "networkType": "ethereum",
  "devdoc": {
    "methods": {}
  },
  "userdoc": {
    "methods": {}
  }
}