{
  "contractName": "TreeCoin",
  "abi": [
    {
      "inputs": [],
      "payable": false,
      "stateMutability": "nonpayable",
      "type": "constructor"
    },
    {
      "anonymous": false,
      "inputs": [
        {
          "indexed": true,
          "internalType": "address",
          "name": "_from",
          "type": "address"
        },
        {
          "indexed": true,
          "internalType": "address",
          "name": "_to",
          "type": "address"
        },
        {
          "indexed": false,
          "internalType": "uint256",
          "name": "_value",
          "type": "uint256"
        }
      ],
      "name": "Approval",
      "type": "event"
    },
    {
      "anonymous": false,
      "inputs": [
        {
          "indexed": true,
          "internalType": "address",
          "name": "_from",
          "type": "address"
        },
        {
          "indexed": true,
          "internalType": "address",
          "name": "_to",
          "type": "address"
        },
        {
          "indexed": false,
          "internalType": "uint256",
          "name": "_value",
          "type": "uint256"
        }
      ],
      "name": "Transfer",
      "type": "event"
    },
    {
      "constant": true,
      "inputs": [
        {
          "internalType": "address",
          "name": "",
          "type": "address"
        },
        {
          "internalType": "address",
          "name": "",
          "type": "address"
        },
        {
          "internalType": "uint256",
          "name": "",
          "type": "uint256"
        }
      ],
      "name": "allowed",
      "outputs": [
        {
          "internalType": "uint32",
          "name": "number",
          "type": "uint32"
        }
      ],
      "payable": false,
      "stateMutability": "view",
      "type": "function"
    },
    {
      "constant": true,
      "inputs": [],
      "name": "farmer",
      "outputs": [
        {
          "internalType": "address",
          "name": "",
          "type": "address"
        }
      ],
      "payable": false,
      "stateMutability": "view",
      "type": "function"
    },
    {
      "constant": true,
      "inputs": [
        {
          "internalType": "uint256",
          "name": "",
          "type": "uint256"
        }
      ],
      "name": "initTrcs",
      "outputs": [
        {
          "internalType": "uint32",
          "name": "number",
          "type": "uint32"
        }
      ],
      "payable": false,
      "stateMutability": "view",
      "type": "function"
    },
    {
      "constant": true,
      "inputs": [],
      "name": "name",
      "outputs": [
        {
          "internalType": "string",
          "name": "",
          "type": "string"
        }
      ],
      "payable": false,
      "stateMutability": "view",
      "type": "function"
    },
    {
      "constant": true,
      "inputs": [],
      "name": "price",
      "outputs": [
        {
          "internalType": "uint256",
          "name": "",
          "type": "uint256"
        }
      ],
      "payable": false,
      "stateMutability": "view",
      "type": "function"
    },
    {
      "constant": true,
      "inputs": [],
      "name": "symbol",
      "outputs": [
        {
          "internalType": "string",
          "name": "",
          "type": "string"
        }
      ],
      "payable": false,
      "stateMutability": "view",
      "type": "function"
    },
    {
      "constant": true,
      "inputs": [
        {
          "internalType": "address",
          "name": "_owner",
          "type": "address"
        }
      ],
      "name": "balanceOf",
      "outputs": [
        {
          "internalType": "uint256",
          "name": "balance",
          "type": "uint256"
        }
      ],
      "payable": false,
      "stateMutability": "view",
      "type": "function"
    },
    {
      "constant": true,
      "inputs": [],
      "name": "getTotal",
      "outputs": [
        {
          "internalType": "uint256",
          "name": "",
          "type": "uint256"
        }
      ],
      "payable": false,
      "stateMutability": "view",
      "type": "function"
    },
    {
      "constant": true,
      "inputs": [],
      "name": "getPrice",
      "outputs": [
        {
          "internalType": "uint256",
          "name": "",
          "type": "uint256"
        }
      ],
      "payable": false,
      "stateMutability": "view",
      "type": "function"
    },
    {
      "constant": true,
      "inputs": [],
      "name": "getInitTrcNumbers",
      "outputs": [
        {
          "internalType": "uint32[16]",
          "name": "numbers",
          "type": "uint32[16]"
        }
      ],
      "payable": false,
      "stateMutability": "view",
      "type": "function"
    },
    {
      "constant": false,
      "inputs": [
        {
          "internalType": "address",
          "name": "_to",
          "type": "address"
        },
        {
          "internalType": "uint256",
          "name": "_value",
          "type": "uint256"
        }
      ],
      "name": "transfer",
      "outputs": [
        {
          "internalType": "bool",
          "name": "success",
          "type": "bool"
        }
      ],
      "payable": false,
      "stateMutability": "nonpayable",
      "type": "function"
    },
    {
      "constant": false,
      "inputs": [
        {
          "internalType": "address",
          "name": "_from",
          "type": "address"
        },
        {
          "internalType": "address",
          "name": "_to",
          "type": "address"
        },
        {
          "internalType": "uint256",
          "name": "_value",
          "type": "uint256"
        }
      ],
      "name": "transferFrom",
      "outputs": [
        {
          "internalType": "bool",
          "name": "success",
          "type": "bool"
        }
      ],
      "payable": false,
      "stateMutability": "nonpayable",
      "type": "function"
    },
    {
      "constant": false,
      "inputs": [
        {
          "internalType": "address",
          "name": "_spender",
          "type": "address"
        },
        {
          "internalType": "uint256",
          "name": "_value",
          "type": "uint256"
        }
      ],
      "name": "approve",
      "outputs": [
        {
          "internalType": "bool",
          "name": "success",
          "type": "bool"
        }
      ],
      "payable": false,
      "stateMutability": "nonpayable",
      "type": "function"
    },
    {
      "constant": true,
      "inputs": [
        {
          "internalType": "address",
          "name": "_owner",
          "type": "address"
        },
        {
          "internalType": "address",
          "name": "_spender",
          "type": "address"
        }
      ],
      "name": "allowance",
      "outputs": [
        {
          "internalType": "uint256",
          "name": "remaining",
          "type": "uint256"
        }
      ],
      "payable": false,
      "stateMutability": "view",
      "type": "function"
    },
    {
      "constant": true,
      "inputs": [
        {
          "internalType": "address",
          "name": "addr",
          "type": "address"
        },
        {
          "internalType": "uint256",
          "name": "number",
          "type": "uint256"
        }
      ],
      "name": "checkOwn",
      "outputs": [
        {
          "internalType": "bool",
          "name": "",
          "type": "bool"
        }
      ],
      "payable": false,
      "stateMutability": "view",
      "type": "function"
    },
    {
      "constant": false,
      "inputs": [
        {
          "internalType": "uint256",
          "name": "number",
          "type": "uint256"
        }
      ],
      "name": "buyTrc",
      "outputs": [
        {
          "internalType": "bool",
          "name": "success",
          "type": "bool"
        }
      ],
      "payable": true,
      "stateMutability": "payable",
      "type": "function"
    },
    {
      "constant": true,
      "inputs": [
        {
          "internalType": "address",
          "name": "addr",
          "type": "address"
        }
      ],
      "name": "getBalance",
      "outputs": [
        {
          "internalType": "uint256[16]",
          "name": "bs",
          "type": "uint256[16]"
        }
      ],
      "payable": false,
      "stateMutability": "view",
      "type": "function"
    },
    {
      "constant": true,
      "inputs": [],
      "name": "getProcess",
      "outputs": [
        {
          "internalType": "enum TreeCoin.Process",
          "name": "",
          "type": "uint8"
        }
      ],
      "payable": false,
      "stateMutability": "view",
      "type": "function"
    },
    {
      "constant": true,
      "inputs": [],
      "name": "getStatus",
      "outputs": [
        {
          "internalType": "uint256[16]",
          "name": "bs",
          "type": "uint256[16]"
        }
      ],
      "payable": false,
      "stateMutability": "view",
      "type": "function"
    }
  ],
  "bytecode": "0x60806040526040518060400160405280600881526020017f54726565436f696e000000000000000000000000000000000000000000000000815250600090805190602001906200005192919062000202565b506040518060400160405280600381526020017f5452430000000000000000000000000000000000000000000000000000000000815250600190805190602001906200009f92919062000202565b5067016345785d8a0000600255348015620000b957600080fd5b506000600190505b60108163ffffffff16116200014657600460405180602001604052808363ffffffff1681525090806001815401808255809150509060018203906000526020600020016000909192909190915060008201518160000160006101000a81548163ffffffff021916908363ffffffff1602179055505050508080600101915050620000c1565b5032600360006101000a81548173ffffffffffffffffffffffffffffffffffffffff021916908373ffffffffffffffffffffffffffffffffffffffff160217905550600460066000600360009054906101000a900473ffffffffffffffffffffffffffffffffffffffff1673ffffffffffffffffffffffffffffffffffffffff1673ffffffffffffffffffffffffffffffffffffffff168152602001908152602001600020908054620001fb92919062000289565b5062000378565b828054600181600116156101000203166002900490600052602060002090601f016020900481019282601f106200024557805160ff191683800117855562000276565b8280016001018555821562000276579182015b828111156200027557825182559160200191906001019062000258565b5b50905062000285919062000317565b5090565b828054828255906000526020600020908101928215620003045760005260206000209182015b82811115620003035782826000820160009054906101000a900463ffffffff168160000160006101000a81548163ffffffff021916908363ffffffff160217905550505091600101919060010190620002af565b5b5090506200031391906200033f565b5090565b6200033c91905b80821115620003385760008160009055506001016200031e565b5090565b90565b6200037591905b808211156200037157600080820160006101000a81549063ffffffff02191690555060010162000346565b5090565b90565b611d0a80620003886000396000f3fe6080604052600436106101145760003560e01c8063957292d1116100a0578063a9059cbb11610064578063a9059cbb1461067a578063d811fcf0146106ed578063dc2d9af014610744578063dd62ed3e1461077d578063f8b2cb4f1461080257610114565b8063957292d1146104fb57806395d89b411461054e57806398d5fdca146105de5780639f8a0aa614610609578063a035b1fe1461064f57610114565b80634e69d560116100e75780634e69d5601461030a57806370a082311461035d578063775a25e3146103c25780637e438918146103ed5780638cd86f021461046057610114565b806306fdde0314610119578063095ea7b3146101a957806323b872dd1461021c57806332758cbc146102af575b600080fd5b34801561012557600080fd5b5061012e61088f565b6040518080602001828103825283818151815260200191508051906020019080838360005b8381101561016e578082015181840152602081019050610153565b50505050905090810190601f16801561019b5780820380516001836020036101000a031916815260200191505b509250505060405180910390f35b3480156101b557600080fd5b50610202600480360360408110156101cc57600080fd5b81019080803573ffffffffffffffffffffffffffffffffffffffff1690602001909291908035906020019092919050505061092d565b604051808215151515815260200191505060405180910390f35b34801561022857600080fd5b506102956004803603606081101561023f57600080fd5b81019080803573ffffffffffffffffffffffffffffffffffffffff169060200190929190803573ffffffffffffffffffffffffffffffffffffffff16906020019092919080359060200190929190505050610c31565b604051808215151515815260200191505060405180910390f35b3480156102bb57600080fd5b506102e8600480360360208110156102d257600080fd5b8101908080359060200190929190505050610fbb565b604051808263ffffffff1663ffffffff16815260200191505060405180910390f35b34801561031657600080fd5b5061031f610ff2565b6040518082601060200280838360005b8381101561034a57808201518184015260208101905061032f565b5050505090500191505060405180910390f35b34801561036957600080fd5b506103ac6004803603602081101561038057600080fd5b81019080803573ffffffffffffffffffffffffffffffffffffffff169060200190929190505050611126565b6040518082815260200191505060405180910390f35b3480156103ce57600080fd5b506103d7611172565b6040518082815260200191505060405180910390f35b3480156103f957600080fd5b506104466004803603604081101561041057600080fd5b81019080803573ffffffffffffffffffffffffffffffffffffffff1690602001909291908035906020019092919050505061117b565b604051808215151515815260200191505060405180910390f35b34801561046c57600080fd5b506104d96004803603606081101561048357600080fd5b81019080803573ffffffffffffffffffffffffffffffffffffffff169060200190929190803573ffffffffffffffffffffffffffffffffffffffff16906020019092919080359060200190929190505050611265565b604051808263ffffffff1663ffffffff16815260200191505060405180910390f35b34801561050757600080fd5b506105106112b6565b6040518082601060200280838360005b8381101561053b578082015181840152602081019050610520565b5050505090500191505060405180910390f35b34801561055a57600080fd5b5061056361132c565b6040518080602001828103825283818151815260200191508051906020019080838360005b838110156105a3578082015181840152602081019050610588565b50505050905090810190601f1680156105d05780820380516001836020036101000a031916815260200191505b509250505060405180910390f35b3480156105ea57600080fd5b506105f36113ca565b6040518082815260200191505060405180910390f35b6106356004803603602081101561061f57600080fd5b81019080803590602001909291905050506113d4565b604051808215151515815260200191505060405180910390f35b34801561065b57600080fd5b506106646115df565b6040518082815260200191505060405180910390f35b34801561068657600080fd5b506106d36004803603604081101561069d57600080fd5b81019080803573ffffffffffffffffffffffffffffffffffffffff169060200190929190803590602001909291905050506115e5565b604051808215151515815260200191505060405180910390f35b3480156106f957600080fd5b50610702611774565b604051808273ffffffffffffffffffffffffffffffffffffffff1673ffffffffffffffffffffffffffffffffffffffff16815260200191505060405180910390f35b34801561075057600080fd5b5061075961179a565b6040518082600281111561076957fe5b60ff16815260200191505060405180910390f35b34801561078957600080fd5b506107ec600480360360408110156107a057600080fd5b81019080803573ffffffffffffffffffffffffffffffffffffffff169060200190929190803573ffffffffffffffffffffffffffffffffffffffff1690602001909291905050506117a2565b6040518082815260200191505060405180910390f35b34801561080e57600080fd5b506108516004803603602081101561082557600080fd5b81019080803573ffffffffffffffffffffffffffffffffffffffff16906020019092919050505061182c565b6040518082601060200280838360005b8381101561087c578082015181840152602081019050610861565b5050505090500191505060405180910390f35b60008054600181600116156101000203166002900480601f0160208091040260200160405190810160405280929190818152602001828054600181600116156101000203166002900480156109255780601f106108fa57610100808354040283529160200191610925565b820191906000526020600020905b81548152906001019060200180831161090857829003601f168201915b505050505081565b60006010821061093c57600080fd5b600082101561094a57600080fd5b600073ffffffffffffffffffffffffffffffffffffffff168373ffffffffffffffffffffffffffffffffffffffff16141561098457600080fd5b6060600760003373ffffffffffffffffffffffffffffffffffffffff1673ffffffffffffffffffffffffffffffffffffffff16815260200190815260200160002060008573ffffffffffffffffffffffffffffffffffffffff1673ffffffffffffffffffffffffffffffffffffffff168152602001908152602001600020805480602002602001604051908101604052809291908181526020016000905b82821015610a76578382906000526020600020016040518060200160405290816000820160009054906101000a900463ffffffff1663ffffffff1663ffffffff168152505081526020019060010190610a22565b50505050905060008090505b8151811015610ac85783828281518110610a9857fe5b60200260200101516000015163ffffffff161415610abb57600192505050610c2b565b8080600101915050610a82565b50600760003373ffffffffffffffffffffffffffffffffffffffff1673ffffffffffffffffffffffffffffffffffffffff16815260200190815260200160002060008573ffffffffffffffffffffffffffffffffffffffff1673ffffffffffffffffffffffffffffffffffffffff16815260200190815260200160002060046001850381548110610b5557fe5b906000526020600020019080600181540180825580915050906001820390600052602060002001600090919290919091506000820160009054906101000a900463ffffffff168160000160006101000a81548163ffffffff021916908363ffffffff1602179055505050508373ffffffffffffffffffffffffffffffffffffffff163373ffffffffffffffffffffffffffffffffffffffff167f8c5be1e5ebec7d5bd14f71427d1e84f3dd0314c0f7b2291e5b200ac8c7c3b925856040518082815260200191505060405180910390a360019150505b92915050565b60006060600760008673ffffffffffffffffffffffffffffffffffffffff1673ffffffffffffffffffffffffffffffffffffffff16815260200190815260200160002060003373ffffffffffffffffffffffffffffffffffffffff1673ffffffffffffffffffffffffffffffffffffffff168152602001908152602001600020805480602002602001604051908101604052809291908181526020016000905b82821015610d25578382906000526020600020016040518060200160405290816000820160009054906101000a900463ffffffff1663ffffffff1663ffffffff168152505081526020019060010190610cd1565b505050509050600080905060008090505b600660008873ffffffffffffffffffffffffffffffffffffffff1673ffffffffffffffffffffffffffffffffffffffff16815260200190815260200160002080549050811015610e0c5784600660008973ffffffffffffffffffffffffffffffffffffffff1673ffffffffffffffffffffffffffffffffffffffff1681526020019081526020016000208281548110610dcb57fe5b9060005260206000200160000160009054906101000a900463ffffffff1663ffffffff161415610dfe5760019150610dff565b5b8080600101915050610d36565b5080610e1d57600092505050610fb4565b60008090505b8251811015610fac5784838281518110610e3957fe5b60200260200101516000015163ffffffff16148015610e5f5750610e5d868661117b565b155b15610f9f57610e6e878661191a565b15610f9e57600660008773ffffffffffffffffffffffffffffffffffffffff1673ffffffffffffffffffffffffffffffffffffffff16815260200190815260200160002060046001870381548110610ec257fe5b906000526020600020019080600181540180825580915050906001820390600052602060002001600090919290919091506000820160009054906101000a900463ffffffff168160000160006101000a81548163ffffffff021916908363ffffffff1602179055505050508573ffffffffffffffffffffffffffffffffffffffff168773ffffffffffffffffffffffffffffffffffffffff167fddf252ad1be2c89b69c2b068fc378daa952ba7f163c4a11628f55a4df523b3ef876040518082815260200191505060405180910390a360019350505050610fb4565b5b8080600101915050610e23565b506000925050505b9392505050565b60048181548110610fc857fe5b906000526020600020016000915090508060000160009054906101000a900463ffffffff16905081565b610ffa611c2d565b60008090505b60066000600360009054906101000a900473ffffffffffffffffffffffffffffffffffffffff1673ffffffffffffffffffffffffffffffffffffffff1673ffffffffffffffffffffffffffffffffffffffff1681526020019081526020016000208054905081101561112257600182600160066000600360009054906101000a900473ffffffffffffffffffffffffffffffffffffffff1673ffffffffffffffffffffffffffffffffffffffff1673ffffffffffffffffffffffffffffffffffffffff16815260200190815260200160002084815481106110dd57fe5b9060005260206000200160000160009054906101000a900463ffffffff160363ffffffff166010811061110c57fe5b6020020181815250508080600101915050611000565b5090565b6000600660008373ffffffffffffffffffffffffffffffffffffffff1673ffffffffffffffffffffffffffffffffffffffff168152602001908152602001600020805490509050919050565b60006010905090565b600080600090505b600660008573ffffffffffffffffffffffffffffffffffffffff1673ffffffffffffffffffffffffffffffffffffffff168152602001908152602001600020805490508110156112595782600660008673ffffffffffffffffffffffffffffffffffffffff1673ffffffffffffffffffffffffffffffffffffffff168152602001908152602001600020828154811061121857fe5b9060005260206000200160000160009054906101000a900463ffffffff1663ffffffff16141561124c57600191505061125f565b8080600101915050611183565b50600090505b92915050565b6007602052826000526040600020602052816000526040600020818154811061128a57fe5b9060005260206000200160009250925050508060000160009054906101000a900463ffffffff16905081565b6112be611c50565b60008090505b601081101561132857600481815481106112da57fe5b9060005260206000200160000160009054906101000a900463ffffffff1682826010811061130457fe5b602002019063ffffffff16908163ffffffff168152505080806001019150506112c4565b5090565b60018054600181600116156101000203166002900480601f0160208091040260200160405190810160405280929190818152602001828054600181600116156101000203166002900480156113c25780601f10611397576101008083540402835291602001916113c2565b820191906000526020600020905b8154815290600101906020018083116113a557829003601f168201915b505050505081565b6000600254905090565b60008082116113e257600080fd5b60108211156113f057600080fd5b600360009054906101000a900473ffffffffffffffffffffffffffffffffffffffff1673ffffffffffffffffffffffffffffffffffffffff163373ffffffffffffffffffffffffffffffffffffffff16141561144b57600080fd5b600254341461145957600080fd5b611485600360009054906101000a900473ffffffffffffffffffffffffffffffffffffffff168361191a565b156115d057600660003373ffffffffffffffffffffffffffffffffffffffff1673ffffffffffffffffffffffffffffffffffffffff168152602001908152602001600020600460018403815481106114d957fe5b906000526020600020019080600181540180825580915050906001820390600052602060002001600090919290919091506000820160009054906101000a900463ffffffff168160000160006101000a81548163ffffffff021916908363ffffffff1602179055505050503373ffffffffffffffffffffffffffffffffffffffff16600360009054906101000a900473ffffffffffffffffffffffffffffffffffffffff1673ffffffffffffffffffffffffffffffffffffffff167fddf252ad1be2c89b69c2b068fc378daa952ba7f163c4a11628f55a4df523b3ef846040518082815260200191505060405180910390a3600190505b806115da57600080fd5b919050565b60025481565b60008073ffffffffffffffffffffffffffffffffffffffff168373ffffffffffffffffffffffffffffffffffffffff16141561162057600080fd5b6000821161162d57600080fd5b601082111561163b57600080fd5b611645338361191a565b1561176e57600660008473ffffffffffffffffffffffffffffffffffffffff1673ffffffffffffffffffffffffffffffffffffffff1681526020019081526020016000206004600184038154811061169957fe5b906000526020600020019080600181540180825580915050906001820390600052602060002001600090919290919091506000820160009054906101000a900463ffffffff168160000160006101000a81548163ffffffff021916908363ffffffff1602179055505050508273ffffffffffffffffffffffffffffffffffffffff163373ffffffffffffffffffffffffffffffffffffffff167fddf252ad1be2c89b69c2b068fc378daa952ba7f163c4a11628f55a4df523b3ef846040518082815260200191505060405180910390a3600190505b92915050565b600360009054906101000a900473ffffffffffffffffffffffffffffffffffffffff1681565b600080905090565b6000600760008473ffffffffffffffffffffffffffffffffffffffff1673ffffffffffffffffffffffffffffffffffffffff16815260200190815260200160002060008373ffffffffffffffffffffffffffffffffffffffff1673ffffffffffffffffffffffffffffffffffffffff16815260200190815260200160002080549050905092915050565b611834611c2d565b60008090505b600660008473ffffffffffffffffffffffffffffffffffffffff1673ffffffffffffffffffffffffffffffffffffffff1681526020019081526020016000208054905081101561191457600660008473ffffffffffffffffffffffffffffffffffffffff1673ffffffffffffffffffffffffffffffffffffffff16815260200190815260200160002081815481106118ce57fe5b9060005260206000200160000160009054906101000a900463ffffffff1663ffffffff168282601081106118fe57fe5b602002018181525050808060010191505061183a565b50919050565b600080600660008573ffffffffffffffffffffffffffffffffffffffff1673ffffffffffffffffffffffffffffffffffffffff16815260200190815260200160002080549050905060008090505b60018203811015611c255783600660008773ffffffffffffffffffffffffffffffffffffffff1673ffffffffffffffffffffffffffffffffffffffff16815260200190815260200160002082815481106119be57fe5b9060005260206000200160000160009054906101000a900463ffffffff1663ffffffff161415611c185760018203811415611a6657600660008673ffffffffffffffffffffffffffffffffffffffff1673ffffffffffffffffffffffffffffffffffffffff1681526020019081526020016000208181548110611a3d57fe5b90600052602060002001600080820160006101000a81549063ffffffff02191690555050611bbd565b600660008673ffffffffffffffffffffffffffffffffffffffff1673ffffffffffffffffffffffffffffffffffffffff1681526020019081526020016000206001830381548110611ab357fe5b90600052602060002001600660008773ffffffffffffffffffffffffffffffffffffffff1673ffffffffffffffffffffffffffffffffffffffff1681526020019081526020016000208281548110611b0757fe5b906000526020600020016000820160009054906101000a900463ffffffff168160000160006101000a81548163ffffffff021916908363ffffffff160217905550905050600660008673ffffffffffffffffffffffffffffffffffffffff1673ffffffffffffffffffffffffffffffffffffffff1681526020019081526020016000206001830381548110611b9857fe5b90600052602060002001600080820160006101000a81549063ffffffff021916905550505b6001600660008773ffffffffffffffffffffffffffffffffffffffff1673ffffffffffffffffffffffffffffffffffffffff16815260200190815260200160002081818054905003915081611c129190611c73565b50600192505b8080600101915050611968565b505092915050565b604051806102000160405280601090602082028038833980820191505090505090565b604051806102000160405280601090602082028038833980820191505090505090565b815481835581811115611c9a57818360005260206000209182019101611c999190611c9f565b5b505050565b611cd291905b80821115611cce57600080820160006101000a81549063ffffffff021916905550600101611ca5565b5090565b9056fea265627a7a7231582071df3659c8d202fef698f1e599feac9026b01ef1c53dbd394ad11fdf3e1fa6d864736f6c63430005100032",
  "source": "pragma solidity >=0.4.22 <0.7.0;\n\ncontract TreeCoin {\n\tstring public name = \"TreeCoin\"; //\n\tstring public symbol = \"TRC\";\n\tuint constant totalSupply = 16;\n\tuint256 public price = 10**17; //\n\taddress public farmer;\n\tstruct Trc {\n\t\tuint32 number; // \n\t}\n\tTrc[] public initTrcs;\n\tenum Process { free, Appeal, end }\n\tProcess process;\n\tmapping (address => Trc[]) balances;\n\tmapping (address => mapping (address => Trc[])) public allowed;\n\n\tevent Transfer(address indexed _from, address indexed _to, uint256 _value);\n\tevent Approval(address indexed _from, address indexed _to, uint256 _value);\n\n\tconstructor() public {\n\t\tfor(uint32 i = 1; i <= totalSupply; i++) {\n\t\t\tinitTrcs.push(Trc(i));\n\t\t}\n\t\t//\n\t\t// for(uint i = 0; i < 2; i++) {\n\t\t// \tinitTrcs.push(Trc(numbers[i]));\n\t\t// }\n\t\t// initTrcs = [Trc(6), Trc(66), Trc(666), Trc(6666),\n\t\t// \tTrc(66666), Trc(666666), Trc(6666666), Trc(66666666),\n\t\t// \tTrc(8), Trc(88), Trc(888), Trc(8888),\n\t\t// \tTrc(88888), Trc(888888), Trc(8888888), Trc(88888888)];\n\t\tfarmer = tx.origin;\n\t\tbalances[farmer] = initTrcs;\n\t}\n\n\t//\n\tfunction balanceOf(address _owner) public view returns (uint256 balance){\n\t\treturn balances[_owner].length;\n\t}\n\n\tfunction getTotal() public view returns (uint) {\n\t\treturn totalSupply;\n\t}\n\n\tfunction getPrice() public view returns (uint256) {\n\t\treturn price;\n\t}\n\n\tfunction getInitTrcNumbers() public view returns(uint32[totalSupply] memory numbers) {\n\t\tfor(uint i = 0; i < totalSupply; i++) {\n\t\t\tnumbers[i] = (initTrcs[i].number);\n\t\t}\n\t}\n\n\tfunction transfer(address _to, uint256 _value) public returns (bool success) {\n\t\trequire(_to != address(0x0));\n        require(_value > 0);\n        require(_value <= 16);\n\t\tif (_deleteOne(msg.sender, _value)) {\n\t\t\tbalances[_to].push(initTrcs[_value-1]);\n\t\t\temit Transfer(msg.sender, _to, _value);\n\t\t\tsuccess = true; \n\t\t}\n    }\n\n    function transferFrom(address _from, address _to, uint256 _value) public returns (bool success) {\n        Trc[] memory allowance = allowed[_from][msg.sender];\n\t\tbool flag = false;\n\t\tfor (uint i = 0; i < balances[_from].length; i++) {\n\t\t\tif (balances[_from][i].number == _value){\n\t\t\t\tflag = true;\n\t\t\t\tcontinue;\n\t\t\t}\n\t\t}\n\t\tif (!flag){\n\t\t\treturn false; //\n\t\t}\n\t\tfor (uint i = 0; i < allowance.length; i++) {\n\t\t\tif ((allowance[i].number == _value) && (!checkOwn(_to, _value))) {\n\t\t\t\tif (_deleteOne(_from, _value)) {\n\t\t\t\t\tbalances[_to].push(initTrcs[_value-1]);\n\t\t\t\t\temit Transfer(_from, _to, _value);\n\t\t\t\t\treturn true;\n\t\t\t\t}\n\t\t\t}\n\t\t}\n\t\treturn false;\n    }\n\n    function approve(address _spender, uint256 _value) public returns (bool success) {\n\t\trequire(_value < totalSupply);\n\t\trequire(_value >= 0);\n\t\trequire(_spender != address(0));\n        Trc[] memory allowance = allowed[msg.sender][_spender];\n\t\tfor (uint i = 0; i < allowance.length; i++) {\n\t\t\tif (allowance[i].number == _value) {\n\t\t\t\treturn true;\n\t\t\t}\n\t\t}\n        allowed[msg.sender][_spender].push(initTrcs[_value-1]);\n        emit Approval(msg.sender, _spender, _value);\n        return true;\n    }\n\n\tfunction allowance(address _owner, address _spender) public view returns (uint256 remaining) {\n\t\treturn allowed[_owner][_spender].length;\n\t}\n\n\tfunction checkOwn(address addr, uint number) public view returns(bool) {\n\t\tfor (uint i = 0; i < balances[addr].length; i++){\n\t\t\tif (balances[addr][i].number == number) {\n\t\t\t\treturn true;\n\t\t\t}\n\t\t}\n\t\treturn false;\n\t}\n\n\t//\n\tfunction _deleteOne(address addr, uint number) private returns(bool success){\n\t\tuint length = balances[addr].length;\n\t\tfor (uint i = 0; i < length - 1; i++) {\n\t\t\tif (balances[addr][i].number == number) {\n\t\t\t\tif (i == length - 1) {\n\t\t\t\t\tdelete balances[addr][i];\n\t\t\t\t} else {\n\t\t\t\t\tbalances[addr][i] = balances[addr][length-1];\n\t\t\t\t\tdelete balances[addr][length-1];\n\t\t\t\t}\n\t\t\t\tbalances[addr].length -= 1;\n\t\t\t\tsuccess = true;\n\t\t\t}\n\t\t}\n\t}\n\n\t//\n\tfunction buyTrc(uint number) public payable returns (bool success) {\n        require(number > 0);\n        require(number <= totalSupply);\n\t\trequire(msg.sender != farmer);\n\t\trequire(msg.value == price);\n\t\tif(_deleteOne(farmer, number)) {\n\t\t\tbalances[msg.sender].push(initTrcs[number-1]);\n\t\t\temit Transfer(farmer, msg.sender, number);\n\t\t\tsuccess = true;\n\t\t}\n\t\trequire(success);\n\t}\n\n\t//\n\tfunction getBalance(address addr) public view returns(uint[totalSupply] memory bs) {\n\t\tfor (uint i = 0; i < balances[addr].length; i++) {\n\t\t\tbs[i] = balances[addr][i].number;\n\t\t}\n\t}\n\n\t//\n\tfunction getProcess() public view returns(Process) {\n\t\treturn Process.free;\n\t}\n\t\n\t//\n\tfunction getStatus() public view returns(uint[totalSupply] memory bs){\n\t\tfor (uint i = 0; i < balances[farmer].length; i++) {\n\t\t\tbs[balances[farmer][i].number-1] = 1;\n\t\t}\n\t}\n\n}\n",
  "sourcePath": "/home/f/codes/bcs/farmer/contracts/TreeCoin.sol",
  "compiler": {
    "name": "solc",
    "version": "0.5.16+commit.9c3226ce.Emscripten.clang"
  },
  "schemaVersion": "3.3.1",
  "updatedAt": "2020-12-04T01:38:26.700Z",
  "networkType": "ethereum",
  "devdoc": {
    "methods": {}
  },
  "userdoc": {
    "methods": {}
  }
}